:10000000C01A00209DDA0200392C00003D2C0000AF
:10001000A70A02020002000004180FAC0067950056
:1000200000000000000000000000000000000000D0
:10003000000000000C0903000000000000000000A8
:100040000000000000000000FFFFFFFFFFFFFFFFB8
:10005000FFFFFFFFFFFFFFFFFFFFFFFFFFFFFFFFB0
:1000600000700F000000000000000000FFFFFFFF15
:10007000FFFFFFFF1C000000000000000000000068
:100080000000000000000000A43E0020A43E00206C
:10009000C01A0020205403002CE20200601100204E
:0C00A000241100200000100000000000EF
:10020000C01A00209DDA0200392C00003D2C0000AD
:10021000D9800000412C0000492C000099DA02002E
:1002200099DA020099DA020099DA020099DA0200FA
:100230004D2C000099DA020099DA020099DA0200E6
:100240007D47000051710100352F0000C02C0000D7
:1002500029690100BD7101005D7101007571010026
:1002600055710100B13E0000853F0000A15D000016
:1002700005B80000C02C0000C02C0000C02C0000FD
:10028000C02C0000C02C0000A93F0000C02C0000C2
:10029000C02C0000C02C0000C02C0000C02C0000AE
:1002A000C02C0000C02C0000C02C0000C02C00009E
:1002B000C171010059710100454500000172010042
:1002C000C02C0000AD570100C02C0000C02C000065
:1002D000C02C0000C02C0000C02C0000C02C00006E
:1002E000C02C0000C02C0000C02C0000C02C00005E
:1002F000C02C0000C02C0000C02C0000C02C00004E
:0C030000C02C0000C02C000099DA0200A4
:10030C00F8B500BFF8BC08BC9E467047F8B500BFF6
:10031C00F8BC08BC9E46704710B5054C237833B921
:10032C00044B13B10448AFF300800123237010BDBC
:10033C004821002000000000904D030008B5034B3D
:10034C001BB103490348AFF3008008BD0000000057
:10035C004C210020904D0300154B002B08BF134B74
:10036C009D46A3F5803A00218B460F461348144A4C
:10037C00121A2DF043FF0F4B002B00D098470E4B59
:10038C00002B00D098470020002104000D000D48E0
:10039C00002802D00C48AFF300802DF0F1FE2000B5
:1003AC0029000BF03FFC2DF0D7FE00BF0000080029
:1003BC00C01A0020000000000000000048210020AE
:1003CC00A43E002000000000000000000120704747
:1003DC00012070470120704710B5084C23681B683A
:1003EC0058790DF0D4F823681B68587900F083FC19
:1003FC00002010F003F9012010BD00BFB43B002019
:10040C0038B50D49002304461422012000F0D8FD14
:10041C000949C0F347000023DAB2904200D838BD36
:10042C0001EB430211F81350527802EB052224F829
:10043C0013200133F0E700BF8C21002010B5002001
:10044C0000F084FD0446012000F080FDE1B280B292
:10045C00BDE8104001F07EBA08B5002000F076FD32
:10046C00BDE80840C0B200F047B908B5002000F064
:10047C006DFDBDE80840C0B200F044B908B50020DD
:10048C0000F064FDBDE80840C0B200F029B908B521
:10049C00002000F05BFDBDE80840C0B200F026B9BA
:1004AC0010B5002000F052FD0446012000F04EFD76
:1004BC0081B2E0B2BDE8104000F0ECB810B50020FD
:1004CC0000F044FD0446012000F040FD81B2E0B292
:1004DC00BDE8104000F0EEB838B5002000F036FD55
:1004EC00054C05462046FFF78BFF22460146E8B235
:1004FC00BDE8384000F0C2B86421002038B50020B7
:10050C0000F024FD054C05462046FFF779FF2246F6
:10051C000146E8B2BDE8384000F0B6B8B42100207E
:10052C000129F8B507460D4616461C461BD91B6B10
:10053C009847142D4FF0040328BF14252370E1189D
:10054C0084F82C506770002336F8130021F8020B46
:10055C000133D8B28542F7D8A188206C1AF04AFE34
:10056C00012384F82D30F8BD38B50C464B6B05468D
:10057C009847012323703DB14FF47A716943206C85
:10058C00BDE838401AF036BE236C1D7038BD38B546
:10059C000C460B6B05469847002323703DB14FF476
:1005AC007A716943206CBDE838401AF023BE236C85
:1005BC001D7038BD10B5036C00221A700378044608
:1005CC00042B4ED8DFE803F003090B222600436B03
:1005DC009847E36BBDE810401847036BF8E7436B93
:1005EC009847637813B901232370F2E7FF2B1CBFE4
:1005FC0003F1FF3363706378002BF4D00323237073
:10060C006188206CBDE810401AF0F4BD036B98476C
:10061C000223F4E7437813B9436B9847E3E790F868
:10062C002D30DB074CBF436B036B984794F82D3090
:10063C00206C04EB430399881AF0DCFD94F82D3000
:10064C0094F82C200133DBB29A4284F82D3008D870
:10065C00002384F82D306378FF2B1CBF03F1FF338C
:10066C00637010BD0148FFF7A5BF00BFE834002040
:10067C000148FFF79FBF00BF2C350020014BFFF74F
:10068C004FBF00BFE8340020014BFFF749BF00BF4C
:10069C002C35002038B5064C6180636B05469847B5
:1006AC0003236188206C23701AF0A4FD657038BD9B
:1006BC00E834002038B5094CA4F84610A36F054661
:1006CC0098470323B4F84610D4F8840084F84430D7
:1006DC001AF090FD84F8455038BD00BFE834002076
:1006EC000149FFF741BF00BFE83400200149FFF783
:1006FC003BBF00BF2C3500200149FFF748BF00BFAE
:10070C00E83400200149FFF742BF00BF2C35002020
:10071C00704738B5C37B05460BB1832038BDC47C0C
:10072C002CB9FFF759FE20B9EB7B002BF5D18120BA
:10073C00F4E72046F2E7C37B10B504460BB18320E7
:10074C0010BDC37C1BB1012B10D08120F8E7017DBB
:10075C0082898B1C9A420CD380680DF0AAFF07F09B
:10076C001FFD40B9E37B002BE9D1EEE707F030FD2C
:10077C00F7E78020E4E70020E2E7F8B5C37B044606
:10078C000BB18320F8BDC37C052B29D8DFE803F01F
:10079C00032A35414C4F057D8289AB1C9A4201D20C
:1007AC008020EFE7ADB2294680680DF082FF064647
:1007BC00A068A789023528440DF0A0FF2844013019
:1007CC008742EDD32946A289A0680DF079FF014636
:1007DC00304607F091F9002848D1E37B002BD0D1AB
:1007EC008120CFE7017D82898B1C9A42D8D3806807
:1007FC000DF05FFF07F0A0F9EDE7037D81895A1C2E
:10080C009142CDD38268591C1144D05C07F0C4F9D5
:10081C00E1E7017D82898B1C9A42C1D380680DF07F
:10082C0048FF07F03BFAD6E707F094FAD3E7057DCB
:10083C008289AB1C9A42B3D3ADB2294680680DF0C5
:10084C0038FF0646A068A789023528440DF056FFEC
:10085C00284401308742A3D32946A289A0680DF011
:10086C002FFF0146304607F0BDFAB4E7002089E7B8
:10087C00C37B2DE9F7430446002B40F0BA80C37CC0
:10088C00062B00F2B880DFE803F0044A5A6A75853B
:10089C00A800057D8289AB1C9A4203D2802003B04C
:1008AC00BDE8F083ADB2294680680DF002FFA28945
:1008BC00E91C8A42064605F10203EFD3881C8242EA
:1008CC00ECD3A068C75C0DF0F4FE8046A068B4F8C9
:1008DC000C90053528440DF011FF2844013081455A
:1008EC00DCD32946A289A0680DF0EAFE8146A068F7
:1008FC0028440DF003FF01300544A06810FA85F57B
:10090C0000954B464246394630460AF0CFFB00284C
:10091C0073D1E37B002B14BF83208120BFE7057DBF
:10092C008289EB1C9A42B9D3ADB2294680680DF08E
:10093C00C0FE0235A368595D0AF09EFCE7E7057D11
:10094C008289EB1C9A42A9D3ADB2294680680DF07E
:10095C00B0FE0235A368595D09F0C2FED7E7017DF0
:10096C0082898B1C9A4299D380680DF0A2FE09F003
:10097C0025FFCCE7057D8289EB1C9A428ED3ADB264
:10098C00294680680DF095FE0235A368595D0AF082
:10099C00C9F8BCE7057D8289AB1C9A42FFF47EAF97
:1009AC00ADB2294680680DF084FEA289E91C8A420A
:1009BC00064605F10203FFF471AFA068C75C8B1CFF
:1009CC009A4207D30DF075FE0246394630460AF0BE
:1009DC0081F99CE74FF6FF72F7E7017D82898B1C4A
:1009EC009A42FFF45BAF80680DF063FE09F04EFF96
:1009FC008DE7832053E7812051E700204FE7C37B2D
:100A0C0010B504460BB1832010BDC37C012B0BD059
:100A1C0003D3022B0BD08120F6E700F0B7F948B9CD
:100A2C00E37B002BEFD1F6E700F0ACF9F7E700F031
:100A3C00ABF9F4E70020E7E7C37BF7B50446002BDE
:100A4C0040F0D180C37C072B00F2CF80DFE813F09D
:100A5C0008003700590085009A00A900B500C800AD
:100A6C00037D8289591C8A42C0F0C1809DB2691CE9
:100A7C00881C8242C0F0BB80A068C75C0DF019FED8
:100A8C00EB1CA6895A1C964222BFA268D25C2B1D75
:100A9C00014603F1010038BFFF2286422ABFA0683D
:100AAC00FF23C35C384608F009F8002840F0A18009
:100ABC00E37B002B14BF8320812003B0F0BD067DA7
:100ACC008589731C9D42C0F09280B7B2BA1C9542C6
:100ADC0007F10103C0F08B808068C15C13460132C2
:100AEC00954224BFC25CFB1C03F1010738BFFF22F7
:100AFC00BD4228BFC35C805D38BFFF2307F0F2FF07
:100B0C00D3E7037D8289591C8A4270D39DB2A91CFC
:100B1C008A4205F101076AD3881C824267D3A06818
:100B2C00C65CC75D0DF0C5FD291DB4F80CC04B1C8F
:100B3C009C4522BFA3685B5C691D024601F1010064
:100B4C0038BFFF2384452ABFA068FF21415C009178
:100B5C003046394607F0D6FFA7E7027D8189501C45
:100B6C00814293B222BFA0680133805C03F1010281
:100B7C0038BFFF2091422ABFA268FF21D15C07F049
:100B8C00D3FF92E7017D8289CB1C9A422FD38068D8
:100B9C00455C01310DF08DFD0146284607F098FFAC
:100BAC0083E7037D81899A1C914220D38268591C6A
:100BBC00D05C515C07F09EFF77E7037D8289191D9D
:100BCC008A4214D3806899B2C55C4B1C0231C65C56
:100BDC000DF06FFD31460246284607F09CFF64E796
:100BEC0007F0A7FF61E7832067E7812065E7802096
:100BFC0063E7002061E738B5C37B002B437D14BF4E
:100C0C008325C325012B044616D0637DE3B92368E5
:100C1C00228A598858790CF076FBA8B123685B8836
:100C2C00052B29D012D8032B1CD020D863B9204611
:100C3C00BDE83840FFF76DBD0368028A59885879C2
:100C4C000CF06AFB0028E0D0284638BD082B18D0E1
:100C5C00B3F5407F1AD0062BF6D12046BDE83840BC
:100C6C00FFF7CDBE2046BDE83840FFF764BD2046F7
:100C7C00BDE83840FFF781BD2046BDE83840FFF79E
:100C8C00F7BD2046BDE83840FFF7D6BEE37B002B0E
:100C9C0014BF83258125D7E77047012070470120B9
:100CAC007047012070477047002070470020704744
:100CBC0000207047002070470020704700207047CC
:100CCC000120704701207047B52070470020704705
:100CDC0000207047002070470020704770470020AC
:100CEC007047B52070470020704770470020704750
:100CFC0084207047704770477047002070477047DA
:100D0C0000207047034B1B681878012808BF02208D
:100D1C00704700BF802E002000207047034A034616
:100D2C000120C3E9032000221A7070470100FEFF66
:100D3C00704700207047002070470020704700204B
:100D4C00704700207047002070470020704700203B
:100D5C0070477047B52070470020704700207047DF
:100D6C007047002070477047704781207047B5204E
:100D7C007047704770470020704770474FF6FF7000
:100D8C007047704701207047012070470120704761
:100D9C00094A0023FF21137082F8783082F86530FD
:100DAC0082F8773082F8793082F87A1082F87B30CA
:100DBC00024A1360704700BFDC2100208035002000
:100DCC00F8B50D468C680A6828490646202002F0C2
:100DDC00F6FD6B687BB92649202002F0F0FD20203F
:100DEC000AF0D6FA2349202002F0FEFD2020BDE8AF
:100DFC00F8400AF0CDBA002EF1D01F4D1F4E204FF7
:100E0C00013C14F8013F23B91A49202002F0ECFDF3
:100E1C00E5E7752B18D0762B18D0772B18D0732BC1
:100E2C0018D0722B18D0712B18D0622B18D06E2BB7
:100E3C0018D02A2B18D01349134A212B18BF11464E
:100E4C00202002F0BCFDDCE72946F9E73146F7E744
:100E5C003946F5E70D49F3E70D49F1E70D49EFE7A1
:100E6C000D49EDE70D49EBE70D49E9E7E9230300EF
:100E7C00BFE2020070E202007DE2020071E20200B9
:100E8C0088E20200C9E20200C6E2020094E202001B
:100E9C009EE20200A9E20200B4E20200BEE20200FD
:100EAC00C3E20200F0B5214A92F87B30184452FAA2
:100EBC0080F01F4B90F865C090F866501F78A5EB3A
:100ECC000C050026EDB23046F4B2A54225D90CEB48
:100EDC00060313445B7811B10CB92D2B17D0782B6A
:100EEC001FD0582B05D108B137240AE0013C012C46
:100EFC0014D9602B17D8402BF6D83A2B34BF30249A
:100F0C0000241B1BDBB29F4203D900FB07300136C8
:100F1C00DAE7052382F879300020F0BD1027002095
:100F2C00F5E70028E2D05724EBE700BFDC210020D6
:100F3C00C81A0020FFF72CBF034B93F8770093F8E7
:100F4C007B30C01AC0B27047DC2100200021FFF7B3
:100F5C00A9BF000010B50A4B93F87B20024453FA4A
:100F6C0082F292F8652013445C78A4F12D03594267
:100F7C005941FFF797FF2D2C08BF404210BD00BF11
:100F8C00DC21002030B50C4A92F87B300344C0437E
:100F9C00DBB2C00F39B1D51895F8664095F865509D
:100FAC00641B241A0C7042FA83F393F865301844CE
:100FBC00024B184430BD00BFDC210020DD21002095
:100FCC00F7B50E460DF1070115461C46FFF7DAFF83
:100FDC009DF80730AB42074688BF8DF807501CB10F
:100FEC009DF807402C1BE4B222463046002100F04D
:100FFC0077FB30199DF80720394600F015FB9DF85A
:10100C00070003B0F0BD38B508220C460123FFF7EA
:10101C00D7FF04F10803621E043413F8011D12F803
:10102C00015F1D70A3421170F7D138BD38B5014670
:10103C0005460120FFF7C4FED5E901436CB91C46F7
:10104C00084D236863B12946202002F0B8FC2146E4
:10105C000020FFF7B5FE0C34F3E71B786E2BEFD0B6
:10106C0038BD00BF4D26030008B50449202002F00E
:10107C00A6FC2020BDE808400AF08AB931E2020043
:10108C0038B5FFF7F1FF064D002461190C346319D4
:10109C0053F80C3C03B938BD0020FFF791FEF4E780
:1010AC0098EF02002DE9F84F1F4B204D53F82020EC
:1010BC001F49202002F083FC2B681BB9BDE8F84FB8
:1010CC00FFF7DEBF1B4FDFF874A0FFF7CDFF002644
:1010DC00B94697F87B30F4B2013B9C4204DB28689C
:1010EC00BDE8F84FFFF7A2BF47FA86F34C4493F8DC
:1010FC0065800023C84494F8662094F86510521A51
:10110C0003F1010BD2B2DBB2934205D30A49202082
:10111C0002F055FC0136DCE7434451465A78202056
:10112C0002F04DFC5B46E6E7CC1A0020803500202F
:10113C002CE20200DC2100204E2603008C29030047
:10114C002DE9F74F884C94F87730002B00F0A280F3
:10115C00864B1B7813F0010F04F101071FD00025FB
:10116C00834E14E06319202093F8662093F86530C1
:10117C00D21A44FA85F3D2B293F8651039440AF0C6
:10118C0002F93146202002F01AFC0135EDB294F838
:10119C007730AB42E6D87749202002F010FC94F867
:1011AC0077300193DFF8D8E1734B00269EF800806E
:1011BC001EF801CF1EF8012C4FF00009ACEB020C0D
:1011CC00B8445FFA8CFC4D461868002852D00138A0
:1011DC00C24619E02AB9002D4AD04FF001090C3350
:1011EC00F2E71AF8011BA1F1410BBBF1190F98BFE3
:1011FC002031A2F1410B98BFC9B2BBF1190F9CBFB2
:10120C002032D2B28A42EAD1AAEB0801614510F829
:10121C00012FDFD1002ADED11D46584B1D6094F8FA
:10122C007B30013384F87B30D5E901230136F6B2EB
:10123C00002A35D01B786E2B31D03F2B23D04FF0AA
:10124C000009C8464FF0070B042394F87710AA68DE
:10125C00B14212F808702BD8AFB1904498F8013015
:10126C002A2B10D0212F1CBF032384F879300AE0DD
:10127C001D46B4E7B9F1000F01D1002DCDD10223E9
:10128C0084F87930002594F87900002869D16868D1
:10129C000CF0F6FE03B0BDE8F04FFFF779BD134636
:1012AC00019AB24282D8032284F879201D46EAE7DB
:1012BC00732F09D8712F0BD2212F1FD0622F3CD046
:1012CC00002F4BD1032246E0A7F17502022A45D824
:1012DC00752F29D0762F2AD0732F2BD0722F47F64B
:1012EC00FF7A18BF4FF0FF3A012148460193FFF7F0
:1012FC00D9FD5045019B01D984F87930AA68424444
:10130C0052782A2A94F879201CBF08F101085FFA58
:10131C0088F8002AB7D1212F1FBF013609F1010926
:10132C00F6B25FFA89F990E74FF0FF0ADCE74FF667
:10133C00FF7AD9E74FF07F0AD6E794F87B204A442E
:10134C0054FA82F292F8652022445278222AD5D09F
:10135C007B2AD3D0052284F87920CFE784F879B0A2
:10136C00CCE7FFF79FFE95E7DC21002058220020F8
:10137C004E2603006EE2020098EF0200803500203A
:10138C00412200202DE9F3415E4C5F4F06460D468D
:10139C004FF0000866B90DF10701284609F0EEFF81
:1013AC0078B1262800F0A980012384F879304BE02D
:1013BC00002D00F0A28016F8013B8DF80730013D9E
:1013CC00EDB23A789DF807303B700D2A01D10A2B0B
:1013DC00E0D00D2B0CD0A3F10A02514251412278DE
:1013EC008846042AD6D8DFE802F0051D263C3100D9
:1013FC000121F4E721B1FFF7A3FE4FF00108C9E783
:10140C00202B63D0222B07D10223237094F8782051
:10141C00642A5DD10623C8E77B2B01D10323F4E7B3
:10142C000123F2E709B9202BF0D194F87730112B76
:10143C003FD10323B9E7222BF7D00029E6D00523AF
:10144C0084F879304FF0010804232370B8F1000FB1
:10145C00A0D094F8790008B1FFF724FEFFF798FCB0
:10146C0098E77D2B94F87A0003D1FF28DDD0052373
:10147C009BE7602B13D8402B13D8392B8CBF002241
:10148C0030229A1AD2B20F2A10D8FF280BD002EBB6
:10149C000012FF238DF8072084F87A30B6E7572224
:1014AC00EFE73722EDE784F87A2073E7202BDED1C3
:1014BC0070E70133DBB284F87730234494F878205A
:1014CC0083F8652000232370002994D1884661E7B6
:1014DC002378012B09D19DF80730A3F1410119297B
:1014EC009CBF2033DBB28DF80730A3189DF8071092
:1014FC005970013284F878204CE7404602B0BDE8C0
:10150C00F08100BFDC2100205922002049BA89B2A9
:10151C004840C0F303114140080380B24840C3B2B5
:10152C0080EA4310704716F03DBC70477047704717
:10153C0070477047704770477047704770477047E7
:10154C00704770470020704782B002AB03E9060079
:10155C0002B07047704770470020704700207047FA
:10156C0070470120704701207047704770477047E3
:10157C0070477047704770472DE9F047204DDFF8F2
:10158C00A090DFF8A0A000245FFA84F8404619F080
:10159C0019FCFF2806460CD122461A49287802F07D
:1015AC0023FA2878013409F0F3FE142CECD1BDE8B1
:1015BC00F087154B59F82420144947B213EA270336
:1015CC0038BF5346287802F00FFA002FE9DA14B12D
:1015DC00B8F1030F08D10E4B0E49287816F0010F05
:1015EC0018BF194602F000FA0A2CDAD10A4B0B4943
:1015FC00287816F0010F18BF194602F0F5F9D0E75C
:10160C00891E0020E5E3020070E202000DE40200F6
:10161C00A8E30200BEE30200D0E30200DAE302001A
:10162C0054E30200A52403008842F0B54FEA92036C
:10163C001AD89BB29E00871904460D460437043411
:10164C00BC4205F104053AD1C3EB8333314402EBC0
:10165C008303013E304411FA83F3994220D011F8F0
:10166C00012B00F8012FF8E7541E20449BB22144B3
:10167C00A0EB830604460D46043E043CB442A5F19F
:10168C0004050ED16FF003045C43C3EB833302EB10
:10169C00830321449BB201342044CB1A994209D1D3
:1016AC00F0BD2F792771EF78E770AF78A7706F785E
:1016BC006770E2E711F8012900F8012DEEE715F843
:1016CC0004CC04F804CC15F803CC04F803CC15F8BE
:1016DC0002CC04F802CC15F801CC04F801CCAEE72E
:1016EC000244904200D1704700F8011BF9E710B595
:1016FC00013801390AB9104606E010F8014F11F80B
:10170C00013F9C4201D0E01A10BD013A92B2F1E7C0
:10171C0000207047014B1888704700BF62220020E0
:10172C002620704770B50C4615460C490C4A1E46CF
:10173C00002808BF0A4603460A4901200DF066FC42
:10174C003246094901200DF061FC2B46224607491F
:10175C000120BDE870400DF059BC00BF02E502004D
:10176C00161803000FE5020035E502004BE50200F8
:10177C00022810B5044617D003281DD001282AD101
:10178C00034604220A21032005F028FC002304222E
:10179C000B21032005F022FC002304220C21032042
:1017AC00BDE8104005F01ABC002304220A210320D6
:1017BC0005F014FC0123EAE7002304220B2105F0B9
:1017CC000DFC012304220C21204605F007FC00230C
:1017DC0004220A21E3E710BD70B5012188B04E4800
:1017EC004E4C4F4D04F08AFB0023042209210220A9
:1017FC0005F0F4FB002304220A21032005F0EEFB84
:10180C00002304220B21032005F0E8FB0023042213
:10181C000C21032005F0E2FB00230222CDE9013369
:10182C0003218DF80520012203938DF809208DF8F2
:10183C000D20CDF816308DF810208DF811208DF874
:10184C000A10CDF81230CDF81930FFF797FA4FF691
:10185C00FF739842334B0ABF4FF47A7218801A8088
:10186C00012131481A88314BB3FBF2F32B8004F081
:10187C0045FB204601AA002105F0DDFE236B43F059
:10188C0001032363636B43F00E0363632B885A08D5
:10189C00E2662046E36104A904F5806405F078FE55
:1018AC000121234804F02AFB01AA2046002105F05F
:1018BC00C2FE236B43F001032363636B002643F0EA
:1018CC001203636301AA2046E666012105F0B3FE0C
:1018DC00236B43F002032363636B43F49053636302
:1018EC0001AA2046E667022105F0A5FE236B43F012
:1018FC0004032363636B43F4901363632B88C4F872
:10190C008C6004A9E361204605F042FE0120FFF73C
:10191C002FFF08B070BD00BF00350A0000800140E9
:10192C0062220020602200200002040000F0490224
:10193C000012040010B5044CE0660448C166C2678E
:10194C00C0F88C3010BD00BF008001400084014005
:10195C0070470000013903290FD8DFE801F00205B8
:10196C00070A084BD8667047074BFBE7064BD8674E
:10197C007047054BC3F88C00704740F25F11034869
:10198C0000F036BD00800140008401406FE502008C
:10199C0082B2074B42B11A80000C064B0ABF4FF6BD
:1019AC00CE2218801A8070474BF6EF62F3E700BF27
:1019BC00901B0020921B0020094B1888020448BF82
:1019CC0080F0620042001A80064A1388190444BF52
:1019DC0083F4805383F00B035900118058407047F7
:1019EC00901B0020921B0020034B1870034B1970A6
:1019FC00034B00221A7070476522002064220020DD
:101A0C0066220020024B187800F07F00704700BF60
:101A1C0067220020034B18780130C0B2187000F018
:101A2C007F007047672200201FB5030A8DF80E3027
:101A3C000323009303AB8DF80D0000F0BDF905B046
:101A4C005DF804FB1FB5030A8DF80F1004218DF807
:101A5C000E30009103AB8DF80D0000F0ADF905B020
:101A6C005DF804FB2DE9F04389B00746BDF8405002
:101A7C009DF84460BDF84C4088460DF109001146B4
:101A8C0008229946FFF7D0FD8DF81250012E4FEA2F
:101A9C0015258DF811908DF813508DF8146017D012
:101AAC00032E1CD1082212990DF11500FFF7BCFD75
:101ABC009DF850308DF81D3016230093BDF854203E
:101ACC0002AB4146384600F077F909B0BDE8F08327
:101ADC008DF81540240A8DF816400F23EDE70120F0
:101AEC00F3E71FB50C46194602238DF80D20009321
:101AFC000A4603AB0146204600F05EF904B010BD67
:101B0C0070B586B0044616460DF10D0008221D4630
:101B1C00FFF78AFD0A2300932A4603AB34212046A3
:101B2C008DF8156000F048F906B070BD30B585B081
:101B3C000024ADF80A20021D92B2012A1D46ADF810
:101B4C000840ADF80610ADF8044003D94FF6FF720B
:101B5C00904207D1064A2B46127801A91FF0A0FF2C
:101B6C0005B030BD014601AA204620F05FF8F7E72A
:101B7C00941B00202DE9F74FFF2A98461DBF464BBA
:101B8C001B689C5C002418BF6408B8F1FF0F1EBFD3
:101B9C00414B1B6813F808700E46814614BF7F0832
:101BAC0000271546FFF736FF4FEA19238DF8000082
:101BBC008DF803600621360A68468DF804608DF8AE
:101BCC0001908DF802308DF8054019F079FEFF2850
:101BDC00064604D11824204603B0BDE8F08F4FEA26
:101BEC00440B0BF1070A0AEB4701C9B219F01CFEB2
:101BFC000028EFD10446A3451BD10BF106013A4650
:101C0C0001F0FE01304619F0D6FE5FFA8AF44FF06F
:101C1C00000A5FFA8AF5AF4223D83346BDF830206C
:101C2C0006214846FFF782FF0446304619F0ECFCCB
:101C3C00D1E72146284619F0B9FEA11D0246C9B2CA
:101C4C00304619F0B8FE611CC9B2284619F0AEFE38
:101C5C00E11D0246C9B23046023419F0ACFEE4B2C2
:101C6C00C9E76D00EDB22946404619F09FFE2146AA
:101C7C000246304619F09FFE691CC9B2404619F065
:101C8C0095FE611C0246C9B23046023419F093FE2F
:101C9C000AF1010AE4B2BCE7381B00202DE9F0413F
:101CAC0088B00F4602A906460AF02EFF00287CD009
:101CBC00FFF7B0FE8DF8100019F02CFA8DF811001A
:101CCC0019F028FA000A8DF81200082239490DF192
:101CDC001300FFF7A9FCBDF808308DF81C301B0A67
:101CEC008DF81D300F219DF80D308DF81B6004A868
:101CFC008DF81E3019F0E4FDFF28044657D04FF044
:101D0C0000089DF80D305FFA88F2934208F1010843
:101D1C001DD801220DF10E01204619F013FE4FF0D3
:101D2C0000089DF80E305FFA88F2934208F1010822
:101D3C0024D823463A4620210020FFF7F7FE05461B
:101D4C00204619F061FC284608B0BDE8F08100215E
:101D5C0030460AF005FF0DF107018DF80700054626
:101D6C000122204619F0EEFD2D0A01220DF107018A
:101D7C0020468DF8075019F0E5FDC2E701213046E9
:101D8C000AF0EEFE0DF107018DF807000546012261
:101D9C00204619F0D7FD2D0A01220DF1070120462E
:101DAC008DF8075019F0CEFDBBE7A325CBE718251E
:101DBC00C9E700BF493D0020F8B51C460E46174642
:101DCC000546FFF727FE9DF818102070204619F0E5
:101DDC0077FDFF2804460BD003463A462846314689
:101DEC00FFF7A4FE0546204619F00EFC2846F8BD68
:101DFC001825FBE708B5FFF7EFFCBDE808400EF02F
:101E0C0017BA08B5FEF771FFBDE808400EF03ABAF4
:101E1C007047FEF792BFFEF796BF0020704738B5AB
:101E2C0004460D46FEF7A9FF29462046BDE838407A
:101E3C0009F034BFFEF789BFFEF793BF01220021E2
:101E4C0009200EF0FBBE00002DE9F84F184E80461D
:101E5C000D461446994606F1010A0DB9BDE8F88FF6
:101E6C00102D4FF00D02494650462F4628BF102723
:101E7C00FFF7DAFB012333700D48F4730023B373BF
:101E8C00013421F013FE0B495FFA87FBE4B24246A2
:101E9C0012F8013B11F8010F434002F8013CA2EB90
:101EAC000803DBB25B45F3D3ED1BADB29046D4E730
:101EBC006C2200206B2200202DE9F04F374D85B0AD
:101ECC001746BDF83880019003930D220F9B0293A7
:101EDC000E460146681CFFF7A7FB49232B702846CA
:101EEC004FEA1823AB7385F80F8021F0DFFD2B78B8
:101EFC0083EA17232B706B784FF002097B406B70D1
:101F0C004C46AA464FF0000B21E0C4F1100CA7EB95
:101F1C000B031FFA8CFC9BB2634528BF634630460B
:101F2C00A11B00EB010C5FFA8CF2A0EB060C1FFA64
:101F3C008CFC9C451BD31C44E4B29B44102C1E44CB
:101F4C001FFA8BFB03D1284621F0B0FD0024BB45C2
:101F5C00DBD314B1504621F0A9FDB9F1010F4FF0BC
:101F6C000004039E47460BD04FF00109CAE710F856
:101F7C0001CB1AF802E08CEA0E0C0AF802C0D0E78A
:101F8C00029806490422FFF74FFB019B0298224658
:101F9C00042105B0BDE8F04FFFF756BF6C220020BE
:101FAC00F7B5099FBDF82040CDE9004706461D4610
:101FBC00FFF782FF2CB13346012221462846FFF75A
:101FCC0043FF002003B0F0BD2DE9F743BDF82870A6
:101FDC000F4C1E4605468846914603463946304608
:101FEC000122FFF731FF33464A4641462846CDE9E8
:101FFC000074FFF761FF042221460B98FFF777FB73
:10200C00002814BF7E20002003B0BDE8F08300BF81
:10201C00682200202DE9F3410A4F0C469918154609
:10202C001E468046214438460422FFF7FDFACDE9CE
:10203C00006763192A4621464046FFF7C5FF02B0E8
:10204C00BDE8F0817C220020002070470020704702
:10205C007047704710B5104C1049A16103232166DD
:10206C000F491022C4E904330E4BE361C4E9191281
:10207C0000230D49A362E01D6362E3622367E366FC
:10208C00636722622CF0C2F8084920462CF0BEF897
:10209C002023A37110BD00BF00380020F3F802000C
:1020AC008022002090220020FCF8020000F902009F
:1020BC002DE9F84F1F4B16461A7881468A469846EA
:1020CC000AB9FFF7C7FF182707FB09873D6FD7F839
:1020DC006CB05D452BD9BC6E796E641BB44228BFC5
:1020EC0034462944504622462CF07DF8BB6E2544DC
:1020FC00A244361BAB4208BF0025ABEB050B5E457B
:10210C0028BF5E4656B1182303FB09833246596E2D
:10211C00504629442CF067F83444354424B1182334
:10212C0003FB0988C8F870502046BDE8F88F0024DE
:10213C00E3E700BF00380020F8B504460E4617460A
:10214C0004F073FA3A46054631462046FFF7B0FFD5
:10215C000446284604F06FFA2046F8BD2DE9F843F2
:10216C00124D1E462B788146884617460BB9FFF751
:10217C0071FF04F05AFA696900244FF0180C0CFB3B
:10218C0004535A6E2AB10134A142F8DC4FF0FF34EB
:10219C0007E0A142FADDC3E918989F661A67DA6670
:1021AC005E6704F048FA2046BDE8F883003800204A
:1021BC00FFF750BF012270B51146042004F072F8ED
:1021CC001A4B1B4D1A681B4842F001021A60DA6860
:1021DC004FF0604442F08072DA60174BC4F8B03FA5
:1021EC0000260223C4F8006EC4F8806EC5F8F030E7
:1021FC0003F064FF00F5D520104B114A00F2FC40AF
:10220C00B0FBF3F00F4B01382861C4F8406E1A6034
:10221C000D4BC4F8803E4FF48073C5F80433D4F8EA
:10222C00003E43F48073C4F8003E70BDF0ED00E056
:10223C00000004E006000E0055CEACC5F8590D00A8
:10224C00FF030040001000E00D00010010B501215B
:10225C00104803F053FE104B01241C60002004F0C6
:10226C0065FE234604220221052004F0B7FE204619
:10227C0015F02BF8FFF79EFF15F028F8FFF798FFE5
:10228C002346402205490648FFF768FF054B1860B6
:10229C00C00F10BD00350A0010881442A022002087
:1022AC0007F90200981B0020024B1868003018BF79
:1022BC0001207047F0ED00E0054A4170D123037016
:1022CC001378C370090A8170591C1170042070476F
:1022DC00E02200202DE9F74F354E33681C5C032CAF
:1022EC00074663D92BF0ABFCDFF8C88001900534AE
:1022FC00E4B24FF6FF7A0025C146D8F800204AB167
:10230C00AC4207D92BF09BFC019BC01A80B2B0F5F4
:10231C00FA7F05D9601B18BF012003B0BDE8F08F10
:10232C00002D3DD0012D1DD13268D55D4FF0020B33
:10233C004FF06042D2F8801ECB0711D51146D9F868
:10234C000C0040F08070C9F80C00D1F8000E40F47D
:10235C008070C1F8000E086A0028F0D082F8205076
:10236C005D46CAE7E21E05F1010B95425FFA8BFB55
:10237C0002D15FFA8AF5DBE7A21E954202D1CAF3BD
:10238C000725D5E7621E95420ED0A91EC9B2384664
:10239C0019F00CFB51460546FFF7B8F88246C7E723
:1023AC005B254FF0010BC3E75D25C1E70120B4E7C6
:1023BC00381B0020F0ED00E010B50B4B90B0402224
:1023CC0069461868FFF7B8FE58B1C1B2684619F0F3
:1023DC0077FA04460146122015F08AF8204619F0C7
:1023EC0013F910B010BD00BF981B002042DE7047DF
:1023FC0038B504460D4615F0A3FD00F0CFFD04F0F2
:10240C000CF92946204615F03FF82B462246054983
:10241C00012008F0C3FF29462046BDE83840FFF7ED
:10242C00E5BF00BF17F902006D4B2DE9F0416D4C73
:10243C005A68A2655A6AE2656B4AD2F800122166A4
:10244C00D2F8042262669A6AA266DA6AE2661A6BAB
:10245C0022675A6B6267DB6BA26BA367D4E90F53DD
:10246C0012F0040F18BF1D462BF0D8FB002285423A
:10247C000346606522655CD35C4A954259D8AA69CB
:10248C006264E969A164B4F85810C1F30801062923
:10249C0053D157498A4250D356498A424DD211885A
:1024AC004DF64262914248D16268C4F89420A26809
:1024BC00C4F8982040F201704F4A5049934238BFFB
:1024CC0013460A468B423BD3D31AE3640023C4E978
:1024DC001F33C4E92133C4E92333484E444FDFF89A
:1024EC0014C1AE4232D8D4E91FC7D4E92165D4E96E
:1024FC0023124FF0000E013BDBB2FF2B41D1BEF19A
:10250C00000F05D0C4E91FC7C4E92165C4E9231233
:10251C00B4F85830C3F30803DA1E0F2A55D8DFE895
:10252C0002F03A5B474A5454545454515454545442
:10253C00543E0022C4E911221D464FF42060BBE733
:10254C001E68B6F1CD3FBFD10433BBE756F8042D5E
:10255C00BA42C6D36245C4D2D107C2D5002104EB1E
:10256C00010EDEF87CE09645BBD004311829F6D17B
:10257C000BB9052301E0013BDBB204EB8301CA6715
:10258C00AFE7E0464FF0010EBC4637462E460D46EF
:10259C0011464246AFE740F60120BDE8F081184BEA
:1025AC00DB6913F0020F40F2025318BF1846F4E730
:1025BC0040F60320F1E740F60423B0F5206F08BF86
:1025CC001846EAE740F60520E7E7013B40F607220C
:1025DC00412B98BF1046E0E740F60220DDE700BF34
:1025EC0000ED00E00000002000E100E0A01A002057
:1025FC00240300002CE202009C000020C01A0020E2
:10260C0000200540062804D007280CBF012002201A
:10261C0070470020704700002DE9F04385B04FF45F
:10262C008073ADF80C3001F08BFC01211548DFF8FC
:10263C005C80DFF85C9003F061FC0121124803F030
:10264C005DFC0024012703AB0122E35C18F8336026
:10265C0008EBC30330465D680023294604F0BEFC3A
:10266C004946E8B201F07AFCCDE9007701232A460D
:10267C002946304604F066FC14B105B0BDE8F08381
:10268C000124E0E74041050000350A002CF9020066
:10269C002527000008B5FFF7B5FF022816BF024B2F
:1026AC000020185C08BD00BFE122002008B5FFF730
:1026BC00A9FF02281CBF014B195408BDE1220020C0
:1026CC0008B5FFF79FFF022805D0034A135CB3FA45
:1026DC0083F35B09135408BDE122002008B5FFF712
:1026EC0091FF022811D00A4A12F8301030234B43C4
:1026FC0002EBC00207491944536803EBC1039B006A
:10270C001868B0FA80F0400908BD0020FCE700BF53
:10271C002CF902001CA0104270B50446FFF7DEFF36
:10272C000026054601E000261D462046FFF7D6FF91
:10273C00A8420346F7D10136052EF2D12046FFF709
:10274C00A9FFA8420BD029462046FFF7AFFF204631
:10275C00FFF7A0FF014620460AF054F870BD204652
:10276C00FFF7AEFF2046FFF795FF014620460AF023
:10277C0049F82046FFF7A4FFE9E7000010B504F084
:10278C006DFE044604F064FE0022012101FA02F3FE
:10279C00234014D01B4B33F812301B4A062B13D09A
:1027AC0040F207218B420DD1184919480C6884421C
:1027BC0008D14CF23C334B800B88138012E0013271
:1027CC00112AE3D1104AF8E7104B58884FF20F0149
:1027DC00884214D11988B1F5406F10D211804CF297
:1027EC003C325A80084B1A8840F201739A4201BF5E
:1027FC00084A094BD2E90001C3E9000110BD4FF4AE
:10280C00C061EBE73CF90200EC2200200000002044
:10281C0007020FF094000020E4220020014B1888DE
:10282C00000A7047EC220020014B1888704700BF4B
:10283C00EC2200202DE9F04F4D4CA36BD4F850B096
:10284C00D4F840A05A074FBF0027D4F84CB0D4F8A6
:10285C005480D4F83CA05ABF464FDFF84091DFF8C3
:10286C004091454A48BFB84613F0080F434B18BF78
:10287C001A46B7EB08061CBF7308642187B01FBF4C
:10288C0001FB0B33B3FBF6F39BB205933C49CDF83C
:10289C0000804B46CDE9017A08BF0596054601F04C
:1028AC00A3F8B3B2CDE900931FFA8BF2059B35491F
:1028BC00284601F099F8A36B5B070AD49C3E5E4551
:1028CC0007D1626D304B9A4203D23049284601F051
:1028DC008BF8BA4501D8C24504D24A462C49284641
:1028EC0001F082F8284608F053FD236E0BB9636E95
:1028FC00BBB32849DFF8AC80DFF8AC90284601F078
:10290C005EF800260127226E07FA06F3134207D061
:10291C0058F8262013781BB14946284601F04FF889
:10292C000136202EEFD1DFF87C80DFF87C9000267A
:10293C000127626E07FA06F3134209D008EB8603EF
:10294C00D3F8802013781BB14946284601F037F89C
:10295C000136122EEDD1284607B0BDE8F04F01F03C
:10296C003DB80D49284607B0BDE8F04F01F03CB822
:10297C0000000020C01A00204EFC020047FC0200A0
:10298C0056FC020084FC02009C000020BDFC0200EE
:10299C00E9FC020007FD020036FD020042FC0200C9
:1029AC00A71303004CFD0200E82303002DE9F843B4
:1029BC000446FFF739FF40F60123984239D010D86E
:1029CC0040F2025398421DD040F20173984224D039
:1029DC0040F20153984213D16549204601F004F8A6
:1029EC0022E040F6032398426CD03DD340F60423FA
:1029FC00984200F09C8040F60523984200F0B58088
:102A0C00BDE8F8835B49204600F0EEFF5A4B5B496A
:102A1C005A6C204600F0E8FF06E0574A5849D2E9C4
:102A2C002523204600F0E0FF2046BDE8F84308F0DF
:102A3C00AFBC514D5349204600F0D6FF95F86C3091
:102A4C009F0703D55049204600F0CEFF95F86F3014
:102A5C005E0603D54D49204600F0C6FF95F96F3050
:102A6C00002BE1DA4A49B8E7434D4A49204600F0C9
:102A7C00BBFF95F86830980704D06A6C3F49204634
:102A8C0000F0B2FF95F96830002B04DA6A6F424906
:102A9C00204600F0A9FFDFF80C81DFF81891002622
:102AAC000127AA6E07FA06F3134207D058F826201E
:102ABC0013781BB14946204600F096FF0136082ECC
:102ACC00EFD1B1E72C4D3549204600F08DFF2B4955
:102ADC006A6C204600F088FF95F86930590703D5D9
:102AEC002F49204600F080FF95F96930002B04DA5D
:102AFC006A6F2949204600F077FF2A4FDFF8B4802F
:102B0C000826AB6EF340DA0707D557F82620137862
:102B1C001BB14146204600F067FF0136102EF0D164
:102B2C0095F86830002B7FF47FAF1F4955E7124DA5
:102B3C001E491C4FDFF87C80204600F055FF6A6C64
:102B4C000E49204600F050FF1026AB6EF340DB0719
:102B5C0007D557F8262013781BB14146204600F0C4
:102B6C0043FF01361A2EF0D15EE711494BE700BF47
:102B7C00D1F902000EFA0200000000203EFA020019
:102B8C0057FA020071FA020089FA0200C3FA020035
:102B9C00F6FA020032FB020057FB02007BFB02003C
:102BAC0092FB020060F90200D8FB020008FC020054
:102BBC0021FC020073FB02002DE9F84F164C174F55
:102BCC00DFF86080DFF860A00646002523785FFA06
:102BDC0085FB0BB9BDE8F88F57F8043B104922462A
:102BEC00304600F0ECFE227804F1010982B96278DB
:102BFC0082B10BF0030103290CBF4146514630460C
:102C0C0000F0DDFE304608F0C3FB01354C46DDE735
:102C1C004C46E8E74146F2E714FE020004000020AF
:102C2C00C8F902006EE202005C16030000F00CB85A
:102C3C0000F00AB800F008B800F006B800F004B8CC
:102C4C0000F002B800F000B872B61EF0080F09D000
:102C5C001EF0040F0DD0DFF850E0AEE8FF1F6FF050
:102C6C0002000CE0DFF840E0AEE8FF1F6FF00E0052
:102C7C0005E0DFF834E0AEE8FF1F6FF006006946B0
:102C8C00EFF309828EE8070086460848084C854514
:102C9C0001D3A54501D384F30888FFF7C5FB84F362
:102CAC0008882AF097FF000004000020A0110020E3
:102CBC00C01A0020FFF7C6BF10B501210A4803F067
:102CCC001DF90121094803F019F9042211460023CA
:102CDC00052004F083F90521002304220846BDE8F1
:102CEC00104004F07BB900BF4041050000350A00DC
:102CFC00064B03EBC00213F83030516801228A40B6
:102D0C0030215943024B5A50704700BFA4040300B2
:102D1C000CA00046064B03EBC00213F83030516890
:102D2C0001228A4030215943024B5A50704700BF50
:102D3C00A40403000CA00044074A12F8301002EB64
:102D4C00C002536801229A4030234B4303F1804365
:102D5C0003F520439A617047A404030010B10020CE
:102D6C00FFF7C6BFFFF7D6BF37B57F2A14BF15468E
:102D7C0000254BF234629142044619D17F2241F274
:102D8C00020168460823FFF7EFFF08222449684632
:102D9C00FEF7ADFC30B908237F2241F2F0116846F2
:102DAC00FFF7E2FF082269462046FEF73DFC09E0EA
:102DBC0041F2F01291421AD11A490A6C496C01384D
:102DCC001D1F0BB903B030BD013B9D4200F8012F14
:102DDC004FEA1222F5D1033400229A42F2D001328A
:102DEC00042A04F8011F4FEA1121F6D1EAE701F495
:102DFC007042B2F5805F07D1C1F30B0404F17E641D
:102E0C009AB203FB0541D0E701F46042B2F5005FD2
:102E1C00D8D1C1F30B0404F17E6404F58044EFE7D0
:102E2C0060050300B081E00F70B5054616461C46E0
:102E3C00DBB14BF23463994210D1082C28BF082423
:102E4C007F2241F202012346FFF78EFFA2B207490F
:102E5C002846FEF74CFC40B941F2F01123463246AD
:102E6C002846BDE87040FFF77FBF70BD60050300CA
:102E7C002DE9F8431646C20704460F4603D5DD215B
:102E8C002748FFF7B5FAF30703D5DE212448FFF7EF
:102E9C00AFFA04F47043B3F5805F21D1C4F30B0493
:102EAC0004F17E64731E1F4A23449342254603D9C2
:102EBC00E3211B48FFF79CFADFF8649005EB06084A
:102ECC00454522D156B37208394620462AF00DFEEC
:102EDC0020B340F20F111248BDE8F843FFF788BA4F
:102EEC0004F46043B3F5005F07D1C4F30B0404F1A1
:102EFC007E6404F580442546DEE7EA210848FFF7A6
:102F0C0077FA6FF00F050024D6E715F8013BFF2B7D
:102F1C00D6D0F4214846FFF76BFAD1E7BDE8F88329
:102F2C00C4040300FF07E00FFFF780BE1FB50121AB
:102F3C001648174C02F0E2FF01221146104603F02E
:102F4C00B1F90421072004F073FA124A1068516891
:102F5C0001AB03C39068186001238DF804300D2376
:102F6C008DF80C3001A9032320468DF80D3004F0A8
:102F7C0068FC094B04220221C3F8802161621A60AB
:102F8C00A36A0B43A36204B010BD00BF00250A0066
:102F9C00002005406805030000E100E0014804F052
:102FAC0044BC00BF00200540A52803D100210248E5
:102FBC0004F027BC704700BF00200540024B186886
:102FCC0000F00100704700BF00200540024A9368E2
:102FDC00002BFCD1704700BF00200540002070473B
:102FEC00002070477047000013B572B603F015FB54
:102FFC00754B76495B698B6000230B76E0204B7632
:10300C008B764023C876087748778877CB77704BD8
:10301C008022602481F8202081F8210081F8220090
:10302C0081F8232083F8002383F80143202483F8BC
:10303C00024383F8034383F8042383F8052383F8BE
:10304C00062383F8072383F8082383F8092383F8DE
:10305C000A2383F80B2383F80C2383F80D2383F8BE
:10306C000E2383F80F2383F8102383F8112383F89E
:10307C00122383F8132383F8142383F8152383F87E
:10308C00162383F8172383F8182383F8192383F85E
:10309C001A2383F81B2383F81C2383F81D2383F83E
:1030AC001E2383F81F2383F8202383F8212383F81E
:1030BC00224383F8232383F8242383F8252383F8DE
:1030CC00262383F8272383F8282383F8292383F8DE
:1030DC002A2383F82B2383F82C2383F82D2383F8BE
:1030EC002E2383F82F2383F8302383F8312383F89E
:1030FC003203CB6823F4E0631B041B0C43F0BF6367
:10310C0043F40133CB604B6943F400734B614B695F
:10311C0043F010034B614FF4E0234B6204F05CFF6F
:10312C00FFF72CFBEFF308832A4A043B4FF0CD3119
:10313C0093421DD2284A294892B20021FEF7D0FAB8
:10314C0062B6274B01225A64264BDB6C1B0E12D144
:10315C00254926484AF6E8520A60026842F0040201
:10316C0002600B60224A136843F40053136004E0BE
:10317C001960043BDCE7012BF4D01E4A136A23F4DC
:10318C00441343F488131362A2F58042012413689C
:10319C0043F480731360184B1C6104F061FE01F062
:1031AC0059FA002368460093ADF804308DF80340BB
:1031BC0003F09AFC00F022F92AF04EFD0F480EF0B5
:1031CC0093FD02B010BD00BF0000000000ED00E058
:1031DC0000E100E06011002084100000A00000203D
:1031EC0000000E40B081E00F90310E4098310E403F
:1031FC0064310E4000400E4000300E40CC2D0300D8
:10320C0040F201602AF0E6BCFEF722BF08B50021AF
:10321C000B20FEF71BFFBDE80840FEF71ABF03208A
:10322C0000F076BA08B5FFF7F9FA044B0B289ABFF1
:10323C0000B203EB8000184608BD00BFC0060300B7
:10324C0008B5FFF7F1FA044BC0F30F22C0B253F8E4
:10325C00223003EB800008BD8406030010B5FFF795
:10326C00DDFA0446FFF7E0FAC0B228B9012C24D1EC
:10327C0064F07F04E4B216E0072CF9D801A353F8EC
:10328C0024F000BFB33200007D320000B1320000E8
:10329C00B7320000B7320000BB320000BF32000072
:1032AC00C33200000924204610BD0224FBE703248E
:1032BC00F9E70B24F7E70624F5E70446F3E700BF2C
:1032CC0007282DE9F84F04460F462DD0082808BFD3
:1032DC00022421460120FDF754FDFFF76FFE651E09
:1032EC00D5F1000848EB050800B3012C1ED1A52030
:1032FC00FFF75AFE2646EFF31089012383F310885B
:10330C00EFF3118A4FF0000B8BF31188354D4046CB
:10331C0008F0C6FA631EC5F800B0042B59D8DFE8D4
:10332C0003F00E4D4D5155000324D2E7FFF746FE36
:10333C0018B1FFF74BFE0026DDE70646DBE72A4A0D
:10334C00136923F00403136130BF284AD2F82834E0
:10335C00D2F81C2413409BB2254A2B60D2F80011E2
:10336C00480502D51168490506D4D2F80011480366
:10337C0005D51268510302D543F480332B601C4BE6
:10338C00D3F80021520006D51B685B0042BF2B68A6
:10339C0043F400332B601EB10121164804F031FABE
:1033AC00404608F093FACFB18AF3118889F310885C
:1033BC0021460020BDE8F84FFDF7E3BC012003F0E7
:1033CC00D9FAC2E7012003F0F3FABEE703F020FBC1
:1033DC00BBE788210848FFF70BF8B6E787F310889E
:1033EC00E6E700BFF422002000ED00E000A0004062
:1033FC0000E100E000200540F0060300044AD2F88A
:10340C001C341B0C1B04C2F82434024A1360704792
:10341C0000A00040F02200200021FFF751BFFFF771
:10342C00FBBF00002DE9F04F89B02AF0BDFC074628
:10343C00002840F0DD806F4E6F4D3168286829F010
:10344C0049FC0446002827D033689A69D3E9000167
:10345C001268904733689B6904A89B689847336847
:10346C009B690220DB6898473C4632680598536894
:10347C00B3FBF0F3E7B2BB42916904F1010442D80B
:10348C00CB680020984733689B695B689847316824
:10349C00286829F01FFC0446DFF888910026002CD0
:1034AC0053D1564BF35C4FEA8608002B31D1544B69
:1034BC00F35C0193534BA24603EB080B019B28686A
:1034CC005FFA8AF7BB4253D84F4BF35C002B3CD0CE
:1034DC004C4B019F9844FBB27E2B286835D8D8F80A
:1034EC00003007EB030A03AA02AB514629F02CFE6D
:1034FC0048452AD05146286829F06CFE013704460D
:10350C000028E8D021E012680B6907FB00209847DF
:10351C00ABE73C4B286853F8267003AA02AB39463C
:10352C0029F012FE484507D078B9039B012B0CD02B
:10353C003946286829F04EFE344B286853F8083079
:10354C0039461A6829F02AFD04460136242EA6D1E4
:10355C00B4FA84F32E4A5B0913702E4B9C4241D073
:10356C002DD8002C32D0013B9C423FD0C5242DE0FD
:10357C00DBF800301F4403AA02AB394629F0E4FD06
:10358C0048450AD010B10AF1010A97E7039B8BB9A1
:10359C00214B029AF35C9A42F5D01F4B1B4A9B5D60
:1035AC0052F808202868394629F06AFC0028EAD02D
:1035BC00044689E73946286829F00CFEEDE7174BDD
:1035CC009C4211D004339C42D0D1C1242B681B7C6B
:1035DC0023B14FF489711248FEF70AFF204609B057
:1035EC00BDE8F08FC324F1E7C424EFE7C224EDE774
:1035FC00C624F3E7141D0020101D0020B4E80200BF
:10360C0000E80200FCE80200D8E8020024E802000E
:10361C00F822002002E000F08CE9020004E000F047
:10362C008E0703000BE000F0232970B506460C460C
:10363C0015461AD8144A127822B3144A1068144A40
:10364C0052F82110134A125D3AB1324629F0F4FCBB
:10365C00C0B1BDE87040FDF768BF7F2D08BF0025E5
:10366C003246294429F056FCF2E7FF2903D9BDE87C
:10367C007040FFF7D9BB40F245110748BDE87040D8
:10368C00FEF7B6BE70BD00BFF8220020101D002052
:10369C00FCE80200B4E802008E0703002328F8B50A
:1036AC0004460D46164619D81449097829B314490D
:1036BC00144F0868144951F824103C5D3CB1126851
:1036CC0029F06CFCC8B1BDE8F840FDF72EBF7F2D8A
:1036DC0008BF0025294429F0D3FBF3E7FF2805D9BF
:1036EC001A463146BDE8F840FFF7C2BB4FF4BC7137
:1036FC000648BDE8F840FEF77BBEF8BDF822002076
:10370C00101D0020B4E80200FCE802008E07030044
:10371C0008B5084B1B7863B1074B53F82010074BC7
:10372C000022186829F0C8FC18B1BDE80840FDF764
:10373C00FCBE08BDF8220020FCE80200101D002091
:10374C0070B5164685180AB9304470BD01F00F03E8
:10375C000A2B34BF302437242344013A090905F8D5
:10376C00013DD2B2EFE70000F0B5F9B100281CDA48
:10377C002D23B0F1004F137000D04042012115E011
:10378C00801B8642ECB205F10105F9D904B927B1C9
:10379C004D1C303454540127E9B20133092B09D1A3
:1037AC00303050540131C8B2F0BD00210023DFF895
:1037BC000CC01F465CF823600025E2E728080300D4
:1037CC002DE9F04F95B04FF0000B02AC81468A46C4
:1037DC0017461D465E46A0463B7863B902ABE41A19
:1037EC00E4B2224619465046C847002840F0938060
:1037FC003444E0B290E0252B13D0BBF1000F14D170
:10380C002370013412AB9C426DD3A4EB0804E4B2D8
:10381C00224641465046C84700287CD12644F6B281
:10382C0060E0BBF1000F00D101373B78632B00F057
:10383C0092801BD8392B09D8302B80F09E80002B1E
:10384C00CCD0252B51D04FF0000BDBE7582B00F0E0
:10385C008B80622BF7D12B6801936B6800934FF030
:10386C00000B009B9B4543D10835ECE7702B1ED019
:10387C0017D8642B01D06C2BE5D16C2B05F1040B04
:10388C0028686CD17B78752B14BF0121002101D0E5
:10389C00642B00D101372246FFF766FF04445D46D6
:1038AC00D1E7752BE9D0782B5ED0732BCBD1A4EB61
:1038BC000804E4B2224602A9504605F1040B2D6817
:1038CC00C84740BB2644F6B2C4B201302B5D002B76
:1038DC00FAD1224629465046C847E0B926445D46EF
:1038EC00F6B283464446013776E723700134AAE7E3
:1038FC00019B204613F80B100222FFF721FF12AB9D
:10390C00984204460ED3A0EB0804E4B2224641468A
:10391C005046C84718B1002015B0BDE8F08F2644BA
:10392C00F6B24446009B013B5B4582BF20232370CB
:10393C00013412AB9C420BD3A4EB0804E4B2224634
:10394C0041465046C8470028E5D12644F6B24446C5
:10395C000BF1010B85E72B6823700435C6E7752B3B
:10396C000CBF0021012196E7204602222978FFF79F
:10397C00E7FE05F1040B044691E77A7802F0DF02CA
:10398C00582A19D1322B07F1010B09D129882F1D87
:10399C0004222046FFF7D4FE3D4604465F4652E71C
:1039AC00342B09D12F1D2D680422290C2046FFF73A
:1039BC00C7FE0422A9B2EDE74FF0010B22E70EB4CB
:1039CC0003B503AA52F8041B019208F00BF8C0B21D
:1039DC0002B05DF804EB03B0704700000149FFF73B
:1039EC00EEBF00BF6EE202000EB433B505AA054669
:1039FC0052F8041B019207F0F5FF04462846FFF726
:103A0C00EDFFE0B202B0BDE8304003B0704708B53E
:103A1C0007F0E8FFC0B208BD2DE9F04F9B46584BAC
:103A2C0085B01B78109F9DF844A0DDF850800646A9
:103A3C0089461546002B00F09280072A00F29180EF
:103A4C000E9B002B00F08D800F9B002B00F08980CB
:103A5C00129BB3F5006F00F38480012801D1002F75
:103A6C007FD0484B03EB05131B7B002B7BD0464CC4
:103A7C001022002168462AF0C1FB04EB45141022E9
:103A8C00B9F1000F5CD1494620462AF0B7FBA37868
:103A9C0043F01003A370E37843F03003E370BAF102
:103AAC00000F03D1DBB243F00303E3703649129BE2
:103ABC00CDF800B06A01013B885A01EB020C63F3AC
:103ACC000E1088520E9BCCF808300F9BCCF80430AB
:103ADC009DF84C109CF80330012E61F383038CF895
:103AEC00033042D11323CCF80C309CE80F000CF1BE
:103AFC00100E8EE80F00DCF81C20CCF814706FF060
:103B0C00030161F39F02B9F1010FCCF81C2004D121
:103B1C000F9BCCF81830CCF804701A492A018B187A
:103B2C0041F802800027159A5A6028469F605E7300
:103B3C002246694603F0E0FA384605B0BDE8F08F3E
:103B4C00002120462AF05AFB1023A3700323E370B4
:103B5C00BAF1000FAAD1DBB243F03003A5E70B4852
:103B6C00EBE70B48E9E70B48E7E7B8F1000FD4D1D6
:103B7C009CF8023068F304138CF80230CDE700BFD8
:103B8C007C240020FC2200207C230020028000F0FA
:103B9C00018000F0078000F038B5104B1B7805460B
:103BAC00BBB1C0B102F041FD0D49002301EB031282
:103BBC00147B3CB92B6001231373146002F03BFDA2
:103BCC00204638BD0133082BF0D102F034FD0548F6
:103BDC00F7E70548F5E70548F3E700BF7C2400202C
:103BEC00FC220020048000F0028000F0018000F034
:103BFC0038B502F01AFD0B4A05460023D1180C7B90
:103C0C005CB91033802BF9D103F02AFA064B284605
:103C1C001C7002F010FD204638BD284602F00BFD4A
:103C2C000248F9E7FC2200207C240020058000F0EB
:103C3C000D4B1B7810B5044693B1072812D802F02F
:103C4C00F4FC0A4B03EB04131A7B2AB100241C73FB
:103C5C0002F0F1FC204610BD02F0EDFC0448FAE73E
:103C6C000448F8E70448F6E77C240020FC220020F6
:103C7C00068000F0028000F0018000F013B5164BB6
:103C8C001868019000238DF8043002F0CEFC134B21
:103C9C001C7824B102F0CFFC114802B010BD0122F7
:103CAC001A7002F0C8FC0F4B1C731C7783F82C4065
:103CBC0083F83C4083F84C4083F85C4083F86C40BC
:103CCC0083F87C4004230DEB03008DF8073003F0E0
:103CDC00E7F92046E1E700BF4C0803007C240020F4
:103CEC00038000F0FC22002010B588B00E9C0794D5
:103CFC000D9C06949DF8304005940B9C04949DF803
:103D0C00284003940024CDE9013400920B4602466E
:103D1C0021462046FFF780FE08B010BD10B588B0D4
:103D2C000E9C07940D9C06949DF8304005940B9CBA
:103D3C0004949DF8284003940024CDE901340092AA
:103D4C000B46024601212046FFF766FE08B010BD67
:103D5C0008B50A4B1B785BB107280BD8084B03EB53
:103D6C0000131B7B43B1002103F090F9002008BD28
:103D7C000448FCE70448FAE70448F8E77C240020F0
:103D8C00FC220020028000F0018000F0078000F08F
:103D9C0008B50A4B1B785BB107280BD8084B03EB13
:103DAC0000131B7B43B1012103F070F9002008BD07
:103DBC000448FCE70448FAE70448F8E77C240020B0
:103DCC00FC220020028000F0018000F0078000F04F
:103DDC0008B50A4B1B7853B107280AD8084B03EBDC
:103DEC0000131B7B3BB103F0D9F9002008BD05483B
:103DFC00FCE70548FAE70548F8E700BF7C240020FB
:103E0C00FC220020028000F0018000F0078000F00E
:103E1C000D4B1B7893B1072812D889B10B4B03EBD0
:103E2C0000131B7B73B10A4B1A6A012303FA00F0CF
:103E3C0010401ABF00200B7008707047054870477F
:103E4C0005487047054870477C240020FC22002060
:103E5C0000200E40028000F0018000F0078000F08E
:103E6C000B4B1B7810B50C4663B107280CD859B115
:103E7C00084B03EB00131B7B43B103F0A5F9206047
:103E8C00002010BD0448FCE70448FAE70448F8E7B2
:103E9C007C240020FC220020028000F0018000F035
:103EAC00078000F02DE9F843174E326EF36E12EADC
:103EBC00030800D5FEE7154CDFF8549001270025C8
:103ECC0018EA070F16D02368B7669BB1A168626821
:103EDC000131A16028469847637B012B0AD148B970
:103EEC0009EB4513197B1A7F60F3410160F3410222
:103EFC0019731A770135082D4FEA470704F110049E
:103F0C00DED1BDE8F88300BF00200E40FC2200206B
:103F1C007C23002070B5094E0446012504B970BD00
:103F2C0094FAA4F0B0FA80F005FA00F324EA030442
:103F3C0056F82030002BF1D09847EFE78024002072
:103F4C00054B4FF48022C3F880211A604FF4806235
:103F5C00C3F880211A60704700E100E038B50446D0
:103F6C000D4602F062FB034B43F82450BDE8384089
:103F7C0002F061BB80240020074BD3F82804D3F84F
:103F8C001C24104020F42A5020F02A004004400C3D
:103F9C00C3F82404FFF7BEBF00A00040074BD3F8C2
:103FAC002804D3F81C24104020F4AA4020F055001B
:103FBC000004000CC3F82404FFF7ACBF00A00040C1
:103FCC00104A4161136830B51546ABB91060836077
:103FDC0011E0091B9C6841611A467CB123465C695F
:103FEC008C42F6D9002CF4D052B19060836013B19E
:103FFC005A69511A596130BD0022F0E72346F4E7A3
:10400C002860F3E7D024002010B500F057FA094BD4
:10401C00094A196831B11368C41A4B69A34203D316
:10402C001B1B4B61106003E0C01A002310604B6136
:10403C0010BD00BFD0240020C4240020074B1B68F7
:10404C0010B55C69064B1B6802201C4400F058FA42
:10405C002046BDE8104000F037BA00BFD024002045
:10406C00C424002070B59DF8145005710025164627
:10407C008560049ABDF81850C58004460260C0E9FA
:10408C0003360D4629B961610BB11146984796B1BB
:10409C00354602F0CAFA0646FFF7B6FF2946204617
:1040AC00FFF78EFF054B1B68A34201D1FFF7C6FF3C
:1040BC00304602F0C0FA002070BD00BFD0240020B2
:1040CC000C4A136800217BB183420AD1836879B111
:1040DC008B6083681BB15A6941690A445A6100209C
:1040EC00704719469B68EEE70028EFD00220704716
:1040FC001360EEE7D024002070B5114D02F095FA54
:10410C002C780646BCB90F4B1C600F4B1C600F4B38
:10411C001C7000F093F9012000F0F2F900F024FA81
:10412C002346024640F2E731094829F095FE094B37
:10413C00186001232B70304602F07DFA002070BD10
:10414C00C0240020D0240020C4240020CC24002033
:10415C0018FCFFFFC8240020F8B5054600B302F098
:10416C0064FA104C0646FFF74FFF2268AA420DD1A5
:10417C00022000F0D3F901272846FFF7A1FF0546DE
:10418C0030B1304602F057FA2846F8BD0027F3E765
:10419C00002FF6D02368002BF3D0FFF74FFFF0E78A
:1041AC002225F1E7D0240020F0B50D4685B0164647
:1041BC001F46044680B1FFF7CFFFBDF82C300293A9
:1041CC009DF828300022CDE900732946334620465D
:1041DC00FFF748FF05B0F0BD2220FBE738B50C46D1
:1041EC00054698B191B100230B7002F01EFA084BF2
:1041FC001B6801210BB122781AB102F01CFA0020C5
:10420C0038BD9D420CBF21709B68F3E72220F7E775
:10421C00D0240020F0B587B01F4600230D4616466B
:10422C008DF817300446A0B10DF11701FFF7D6FF3A
:10423C009DF817207AB9BDF8343002939DF83030D0
:10424C002946CDE9007320463346FFF70BFF07B034
:10425C00F0BD2220FBE70320F9E70000F8B50C467F
:10426C000646C8B1C1B102F0E0F90546FFF7CCFE35
:10427C0073692360134B1B68B3420FD023B92846D4
:10428C0002F0D9F903201CE0596922689B680A44A2
:10429C002260F1E700230FE0222012E00A4E27688B
:1042AC0000F00CF93368C01A8742F3D900F006F914
:1042BC003368C01A23681B1A2846236002F0BBF926
:1042CC000020F8BDD0240020C424002000F0F6B853
:1042DC0038B50A4B1B68834204460D460CD300F0DC
:1042EC0043F94FF47A720023A4FB000129F0B4FDCA
:1042FC0001302860002038BD2120FCE7C8240020B4
:10430C0038B5044600F030F94FF47A73A4FB03453A
:10431C00A8B1431E034212D100F026F9B0FA80F383
:10432C00C3F11F03C3F12002A3F1200005FA02F22E
:10433C0024FA03F3134325FA00F0184338BD00F0B8
:10434C0013F9002302462946204629F085FDF5E79E
:10435C00C2072DE9F84F044608D5354A13780133C6
:10436C00DBB21370FFF750FEFFF768FEA3075DD5B5
:10437C00304EDFF8C49000F0A1F835680746451BB5
:10438C0002F053F94FF0000A8046D9F80040002C97
:10439C0044D06369AB4205D95D1B65613760FFF79B
:1043AC004DFE3EE0376023462A465969914209D8B2
:1043BC00187994F804C0844588BF1C469B68521A2F
:1043CC00002BF2D1404602F036F9D4F81480C4F830
:1043DC0014A002F02AF983462046FFF771FE5846D6
:1043EC0002F029F923694BB102F01FF921698346C8
:1043FC002046FFF7E5FD584602F01DF9E36813B1BE
:10440C0021682046984700F059F84744ED1B0446B4
:10441C00054402F00AF927468046B6E7022000F070
:10442C007DF84046BDE8F84F02F005B9BDE8F88FBD
:10443C00CC240020C4240020D024002010B51B4B19
:10444C0086B05968186803AA03C2197A53F8090F81
:10445C00117001909A8816489B79ADF808200121BB
:10446C008DF80A30002401F049FD03A88DF80C40AA
:10447C008DF8104003F03EF801A9012003F01AF862
:10448C000C4A536A23F4FF6323F00703536240F290
:10449C00FF7313620120946003F026F8064B4FF073
:1044AC008042C3F880211A6006B010BD500803008A
:1044BC00A00914000020044000E100E0014B9868C2
:1044CC00704700BF002004400C4A9368516D9269FC
:1044DC00520704D4CA1A022A01D899420DD1C21A21
:1044EC00012A98BF981C054BB0F1FF3F28BF013043
:1044FC0058655A6A42F004025A6270470020044020
:10450C008207054A00F00103516A48BF43F00403D7
:10451C000B435362704700BF00200440054900F074
:10452C00010283074B6A48BF42F0040223EA0203EC
:10453C004B6270470020044010B502F076F8094A2F
:10454C0093690446590703F0010003F0070348BFC1
:10455C0040F002001362FFF7FBFE2046BDE810405E
:10456C0002F069B800200440014801F0A7BD00BF6B
:10457C00A0091400044B4FF04042DA621A6B22F08F
:10458C0040421A63704700BF00300E402C48F0B513
:10459C00002203682B4D114654592CB11E68AC18DF
:1045AC00002E36D1234601210832282AF4D101B13C
:1045BC0003602549254E0B680022144695592DB1F0
:1045CC001F68B518002F2BD12B4601240832282A3E
:1045DC00F4D104B10B6000681D4B026842B3DA6978
:1045EC00007922F0FF020243DA611A6B42F080423A
:1045FC0009681A630A68164BF2B1DA69097922F470
:10460C007F4242EA0122DA611A6B42F000421A63DD
:10461C00F0BD1E792779B74284BF23460121C3E739
:10462C001F7995F804C0BC453CBF2B460124CDE74F
:10463C001A6B22F08042DBE71A6B22F00042E6E7AD
:10464C00E0240020F0240020E42400201825002081
:10465C0000300E4008B51B4B1B4801221A7000217C
:10466C00282229F0CBFD28220021184829F0C6FD6C
:10467C00174A184B13601849184A13600A684B6D97
:10468C00C2F30742FF2A02D0DBB2FF2B01D19023E9
:10469C001922134802EB820103EBD1010160DB000C
:1046AC000521B3FBF1F313440E4A1360FFF762FFCD
:1046BC000D4B0122C3F880211A60FFF767FF002021
:1046CC0008BD00BFD4240020F024002018250020B1
:1046DC00E0240020E8240020B081E00FE424002036
:1046EC00D8240020DC24002000E100E0064B186AEE
:1046FC00C0B20523C000B0FBF3F0044B1B68181AC2
:10470C0000F3070040B2704700300E40DC2400205C
:10471C0010B5144C226B616A0A4010D5124B1B6801
:10472C001A682AB1002119605960FFF7DFFF904722
:10473C004FF00043E362BDE81040FFF727BF530082
:10474C00F9D50A4B1B681A6832B1002119605960FF
:10475C00FFF7CCFF01219047024B4FF08042DA6209
:10476C00E9E700BF00300E40E4240020E0240020E4
:10477C00FFF7CEBF38B141B1013AB2F5006F044832
:10478C0038BF00207047034870470148704700BF8E
:10479C00037000F0027000F00D490E4A0B7810B552
:1047AC004BB9C2E90033C2E9023301240C7042F860
:1047BC002300002010BD002352F823100029F6D04E
:1047CC008142F4D00133042BF6D10348F2E700BF49
:1047DC005025002040250020027000F038B504461A
:1047EC000D4601F022FFA28892B222B92A6001F094
:1047FC0022FF064838BD6388142202FB03430833AA
:10480C002B6001F018FF0020F4E700BF0B7000F0E4
:10481C0038B504460D4601F008FFA3889BB223B9B6
:10482C002B6001F008FF0C4838BD6388E188142226
:10483C0002FB034308332B6063885A1C92FBF1F391
:10484C0001FB13239BB26380A388013B9BB2A38023
:10485C0001F0F1FE0020E7E70B7000F07FB50123BB
:10486C0080F82C3090F8323093B90C4A03680392DC
:10487C000022049002924A680192012200920A6876
:10488C00016980681C33FFF749FA07B05DF804FB37
:10489C00012BEAD0002380F82C30F6E7F950000009
:1048AC007FB5012380F82D3090F8323083B902683F
:1048BC0034320D4B03930023049002934B68019305
:1048CC00012300930B68C1684068FFF70DFA07E0FD
:1048DC00012B02D102682832EBE7002380F82D303F
:1048EC0007B05DF804FB00BFF9480000F7B5906A0B
:1048FC0001A91446FFF772FF144B984220D0019B7C
:10490C0000251D619D6001F090FE019AD668074656
:10491C0026B1D2E9002329462046B04701A9A06A56
:10492C00FFF776FFA06A83889BB263B101A9FFF7FA
:10493C0055FF01992046FFF7B3FF384601F07BFE87
:10494C00012003B0F0BD84F82D30F6E70B7000F0B9
:10495C00427E30235343044A1A44437F03EBC20381
:10496C009B001868C0B270471CA0104213B51D4ABA
:10497C00002352F82340617F81420ED00133042B77
:10498C00F7D102B010BD0028FBD19DF80730002BE9
:10499C00F7D06068FFF7DCF9F3E794F83130022BBD
:1049AC00EFD12046FFF7D4FF637D2075022BE8D1B1
:1049BC0094F82E3003F0FF02002BE2D102A96068BC
:1049CC0001F8012DFFF724FA237D1BB194F82F3049
:1049DC00002BD8D0002384F82F306068FFF7D8F96B
:1049EC00CFE700BF4025002090F8323053B9036860
:1049FC000122DA601A69D007FCD55A6F42F0010225
:104A0C005A677047012B0CD103685A6C9107FCD480
:104A1C0001225A609A68D207FCD55A6D42F0010205
:104A2C005A65704790F832303BB903685A6F22F0E0
:104A3C0001025A670222DA607047012B09D1036820
:104A4C005A6C9207FCD45A6D22F001025A6502226C
:104A5C005A60704710B50446FFF710F90021201D6D
:104A6C00FFF79AF8014608B1044810BD04F108009C
:104A7C00FFF792F80028F8D0F6E700BF0E7000F0B0
:104A8C00F8B5044617460D4601F0CFFDA388E28821
:104A9C009A42064605D800233B6001F0CCFD16482F
:104AAC00F8BD2388142202FB0343083305F1100CD4
:104ABC002A4603CA624518605960154603F108037B
:104ACC00F6D1106818602388E188142202FB034396
:104ADC0008333B6023885A1C92FBF1F301FB132330
:104AEC009BB22380A38801339BB23046A38001F094
:104AFC00A2FD0020D4E700BF0A7000F073B5044695
:104B0C000D46C07DE67E002934D0012304223146B7
:104B1C0002F064FA01230222217F207E02F05EFA69
:104B2C0094F83130022B16D100230122617F607E74
:104B3C0002F054FA00230422A07EA17F02F04EFA68
:104B4C000123627F607E01930093114602F0FAF913
:104B5C00002002B070BD032BFAD100230122617F2B
:104B6C00607E02F03BFA00230422A17FA07E02F0BB
:104B7C0035FAEDE70B460A46314602F02FFA2B4682
:104B8C002A46217F207E02F029FA94F83130022B3C
:104B9C0010D12B462A46617F607E02F01FFA2B460D
:104BAC002A46A07EA17F02F019FA627F607E0195F1
:104BBC000123C9E7032BCBD12B462A46617F607EAC
:104BCC0002F00CFA2B462A46CFE790F8323013B994
:104BDC00036818697047012B1CD103689B6803F0AC
:104BEC000200DA0748BF40F00100590748BF40F007
:104BFC0008001A0748BF40F02000D90648BF40F013
:104C0C0040009A0648BF40F080005B0603D540F494
:104C1C0000507047002070472DE9F3410D460446C3
:104C2C00002879D001F001FD012D06463BD1A36A85
:104C3C009B889BB2002B3DD06068FFF7C9F800231E
:104C4C00A06A84F82D3083889BB273B101A9FFF759
:104C5C00C5FD01996068364F0831FFF701F9019BDA
:104C6C001F61A06A83889BB253BB2046FFF7ADFF40
:104C7C008304FAD5023D012D10D8A068FFF7A8F8DF
:104C8C000023606A84F82C3083889BB23BBB94F879
:104C9C003130032B02D02046FFF7C4FE304601F022
:104CAC00CAFC002009E0022D38D1636A9B889BB2B4
:104CBC00002BDFD101F0BFFC1E4802B0BDE8F08133
:104CCC0001A9FFF7A5FD019BD3F80C80B8F1000FEB
:104CDC00C7D09B68002239462046C047C1E76946C9
:104CEC00FFF77CFD0099A068114F0831FFF7B8F869
:104CFC00009B1F61606A83889BB2002BC7D06946FA
:104D0C00FFF786FD009BDD68002DF3D09B68002229
:104D1C0039462046A847EDE70748CEE7032DA9D131
:104D2C00A36A9B889BB2002B86D1636A80E700BF85
:104D3C00097000F0087000F0027000F0436A988867
:104D4C00C0B270472DE9F3410546406A8488984605
:104D5C00A4B200230E461746CDE900333CB1694698
:104D6C00FFF73CFD01A90446A868FFF779F8009904
:104D7C0071B16CB94868019BC01A3860C8F8003032
:104D8C000B6833602846FFF720FF02B0BDE8F081C6
:104D9C000021C8F8001039603160F3E7836A988805
:104DAC00C0B270472DE9F3410546806A8488984665
:104DBC00A4B200230E461746CDE900333CB1694638
:104DCC00FFF70CFD01A904466868FFF749F8009944
:104DDC0071B16CB94868019BC01A3860C8F80030D2
:104DEC000B6833602846FFF7F0FE02B0BDE8F08197
:104DFC000021C8F8001039603160F3E7007D70477E
:104E0C002DE9F04104460E461746FFF7B3FC8046E9
:104E1C0050BB092001F02EFC0546A26A93889BB278
:104E2C0013B194F82E3013B394F8322022BB2368BC
:104E3C001D6915F0020533D0012384F83030002AA7
:104E4C003FD13744BE42206836D103699E06FCD55B
:104E5C0055B994F83230002B42D123685A6F22F0A6
:104E6C0002025A670822DA604046BDE8F081002D44
:104E7C00D4D0FFF717F8D0E7012A1BD123689D681F
:104E8C0015F00205D8D1596C8807FCD4042159605F
:104E9C0099688907FCD5596D41F002015965CBE73A
:104EAC000421D96019698907FCD5596F41F00201B9
:104EBC005967C1E70025BFE716F8011B02F09CFCFF
:104ECC00C0E7012AD0D13744B742206803D18368A8
:104EDC001907FCD5BCE716F8011B02F0BAF9F3E789
:104EEC00012BC1D123685A6C9207FCD45A6D22F065
:104EFC0002025A6508225A60B6E7000010B5044653
:104F0C00B0B190F82E3033B990F83130022B0AD072
:104F1C006068FEF71DFF94F82E300133DBB284F885
:104F2C002E30002010BDFFF713FD0028F3D1EFE762
:104F3C000048F7E7027000F010B50446D0B190F8C5
:104F4C002E30CBB190F82E30012B06D190F83130A9
:104F5C00022B0AD06068FEF71BFF94F82E30013B41
:104F6C00DBB284F82E30002010BDFFF7F1FC0028D6
:104F7C00F3D1EFE70148F7E70148F5E7027000F0DD
:104F8C00057000F037B590F83150022D044618D159
:104F9C00A37F407D01229A40A37E30215943134BBD
:104FAC000B4410B903F1806303E0012805D103F130
:104FBC00C0631A60002003B030BD217D0029F6D1FA
:104FCC00F0E7012DF6D1037D73B911238DF807306D
:104FDC00FFF794FF2A460DF107012046FFF710FF5B
:104FEC002046FFF7A9FFE5E71323EFE70CA00040ED
:104FFC0090F83130032B05D00229417518BF01758B
:10500C00FFF7C0BF00487047057000F010B50446AC
:10501C0000283AD00321FFF7FFFD00212046FFF7BF
:10502C00E7FF00212046FFF769FD94F8323003BBFF
:10503C0023680A22DA600021206A00F05FFF94F8EE
:10504C003130032B03D00021607FFEF787FF6068AF
:10505C00FEF7EEFDA068FEF7EBFDFEF7C9FD636AF7
:10506C000020188058809880A36A188058809880F7
:10507C0010BD012BDFD1206802F0D7F823685A6CE1
:10508C009207FCD40A225A60D5E70148F0E700BF2A
:10509C00027000F0F0B587B004461646FFF76AFBC5
:1050AC000546F0B9CDE9011604936A460E4B606AC9
:1050BC00039601A90593FFF7E3FC054688B994F81C
:1050CC002C3073B92046FFF78FFC00992046FFF770
:1050DC00C5FB94F83130032B03D025752046FFF720
:1050EC0051FF284607B0F0BD017000F073B5506A4F
:1050FC0001A91446FFF772FB334B98422FD094F85A
:10510C003200019B002836D12268116C11F4007119
:10511C0028D02E49196198604FF40073936401F004
:10512C0084FA0199CD68064635B14A688B682046E9
:10513C00D31A0A680969A84701A9606AFFF768FBD6
:10514C00606A8588ADB2002D2FD001A9FFF746FB10
:10515C0001992046FFF782FB304601F06CFA0120E2
:10516C0002B070BD106CC5051BD51948186199604B
:10517C004FF48073D2E7012813D12268D16A11F061
:10518C00800106D011491961002199608023536375
:10519C00C5E7D06A400604D50D48186199604023D4
:1051AC00F5E700221A619A60B9E7012323752046BE
:1051BC00FFF7E8FE94F8313084F82C50032BCBD059
:1051CC002046FFF72FFCC7E70B7000F00D7000F0C6
:1051DC000C7000F02DE9F041094F04460D460FCF3D
:1051EC0088B001AE0FC697E8070086E80700002CD0
:1051FC0000F0C48445B9034E304608B0BDE8F081D8
:10520C0070080300037000F038220021204628F0BB
:10521C00F5FF2046FFF7C0FA06460028ECD12B7CA0
:10522C0084F83130CD4A2B682360934284F83200E5
:10523C0040F07F81CA4B2362CA4BE3604FF440239A
:10524C002361D5E90623002662621680568096807B
:10525C0084F82C60A3621E805E809E806B68039332
:10526C006B89ADF81430AB89ADF81230AB7B8DF88F
:10527C0010300121EB7BBC4884F82D6084F82F6042
:10528C0005278DF816308DF8117000F037FE0121CE
:10529C00B64800F033FE0121206A00F02FFE01A970
:1052AC0028688DF8046002F069FAD5F800C06A7AB3
:1052BC00DCF878002B7A20F4F85020F01F00104313
:1052CC0040EA03200321CCF87800CCF87410206855
:1052DC00DFF888C2604540F06281BB4240F27A81BF
:1052EC00981F042840F27881A3F10B00B84240F2D9
:1052FC007581A3F11100062808D9A3F1180106291C
:10530C0040F26E811F2B14BFFF213946042AE17530
:10531C0040F26881511F042940F26681A2F10A0112
:10532C00052940F26381A2F11001062940F2608147
:10533C00A2F11701072940F25D811F2A14BFFF213A
:10534C0000212176002B58D0012B56D0022B54D0A3
:10535C00032B52D0042B50D0052B4ED0062B00F033
:10536C005381072B00F05281082B00F05181092B3F
:10537C0000F050810A2B00F04F810B2B00F05A816A
:10538C000C2B00F039810D2B00F038810E2B00F026
:10539C0037810F2B00F03681102B00F03581112B4B
:1053AC0000F02E81122B00F02D81132B00F02C819C
:1053BC00142B00F02B81152B00F02A81162B00F0FA
:1053CC002981172B00F02881182B00F02781192B2D
:1053DC0000F026811A2B00F025811B2B00F0248174
:1053EC001C2B00F023811D2B00F022811E2B00F0C2
:1053FC0021811F2B0CBF0723FF23E376002A00F02B
:10540C00A983012A00F0A883022A00F09183032AC1
:10541C0000F09083042A00F08F83052A00F08E831D
:10542C00062A00F08D83072A00F08C83082A00F0EE
:10543C008B83092A00F08A830A2A00F06F830B2AD7
:10544C0000F06E830C2A00F06D830D2A00F06C8343
:10545C000E2A00F06B830F2A00F07083102A00F0E4
:10546C006383112A00F06283122A00F06783132AE7
:10547C0000F06683142A00F06583152A00F064831B
:10548C00162A00F06383172A00F06283182A00F0B2
:10549C006183192A00F060831A2A00F049831B2AC1
:1054AC0000F048831C2A00F047831D2A00F0368345
:1054BC001E2A00F035831F2A14BFFF2300232377F5
:1054CC006B7C6376AB7C6377EB7CA3762B7DA377CD
:1054DC0001212046FFF712FB064600287FF48CAE14
:1054EC0001F0A3F82F7C032F804640F037832B6804
:1054FC002A8CDA675A6E42F004025A665A6F42F0EE
:10550C0030025A6728684FF0FF3383642B7C032BDF
:10551C000CBF0521042102F0F7F82B684FF4406210
:10552C00DA602046FFF796FA0646404601F083F80B
:10553C0062E60F4A934206D10E4B23620E4BE36098
:10554C004FF450237CE60D4A93421DD10C4B236241
:10555C000C4BE3604FF4602372E600BF0000014087
:10556C000042040001000C004041050000350A0017
:10557C00000401400052040001000D00000801402D
:10558C000062040001000E00C54A93427FF433AE62
:10559C00C44B2362C44BE3604FF4702350E6DFF836
:1055AC000CC3604548D1052B14D9981F042813D976
:1055BC00A3F10B00052811D9A3F1110006287FF6E1
:1055CC00A5AEA3F1180106290AD91F2B14BFFF2180
:1055DC0005219BE6314699E6012197E6022195E6E5
:1055EC00394693E60021ACE60121AAE60221A8E6A1
:1055FC000321A6E60521A4E60723FEE60823FCE624
:10560C000923FAE60A23F8E60B23F6E60C23F4E664
:10561C000D23F2E60E23F0E60F23EEE60023ECE674
:10562C000123EAE60223E8E60323E6E60423E4E6A4
:10563C000523E2E60623E0E6DFF874C2604540F09D
:10564C003981042B40F2F880591F032940F2F6806F
:10565C00A3F10901042940F2F380A3F10E010E29F4
:10566C0040F2F080A3F11D01012940F2ED801F2BC7
:10567C0014BFFF210A21032AE17540F2E780111FB4
:10568C00032940F2E580A2F10801042940F2E280EE
:10569C00A2F10D010E2940F2DF80A2F11C010229BA
:1056AC0040F2DC801F2A14BFFF2100212176002B41
:1056BC0000F0DC80012B00F0DB80022B00F0DA80A4
:1056CC00032B00F0D980042B00F0D880052B00F0C0
:1056DC00E380062B00F0E280072B00F0C180082B42
:1056EC0000F0C080092B00F0C3800A2B00F0C280B0
:1056FC000B2B00F0C1800C2B00F0C0800D2B00F0A8
:10570C00BF800E2B00F0C8800F2B00F0C780102B31
:10571C0000F0A880112B00F0A780122B00F0A680BF
:10572C00132B00F0A580142B00F0A480152B00F097
:10573C00A380162B00F0A280172B00F0A180182B51
:10574C0000F0A080192B00F09F801A2B00F09E8097
:10575C001B2B00F09D801C2B00F09C801D2B00F05F
:10576C009B801E2B00F09A801F2B0CBF0223FF2363
:10577C00E376002A00F0D281012A00F0D181022ABE
:10578C0000F0D081032A00F0CF81042A00F0E081E0
:10579C00052A00F0DF81062A00F0DE81072A00F0DE
:1057AC00C781082A00F0BA81092A00F0B9810A2AB7
:1057BC0000F0B8810B2A00F0B7810C2A00F0B681FA
:1057CC000D2A00F0C5810E2A00F0C4810F2A00F0CA
:1057DC00AF81102A00F0AE81112A00F0AD81122A9F
:1057EC0000F09C81132A00F09B81142A00F09A810E
:1057FC00152A00F09981162A00F09881172A00F0DA
:10580C009D81182A00F09C81192A00F09B811A2A8C
:10581C0000F09A811B2A00F099811C2A00F09881D3
:10582C001D2A00F097811E2A00F096811F2A08BFBE
:10583C00052318BFFF2342E631461CE708211AE76F
:10584C00012118E7394616E70A2114E700212DE754
:10585C0008212BE7012129E7052127E70A2125E764
:10586C00022385E7032383E7042381E705237FE7EE
:10587C0006237DE707237BE7082379E7092377E7EE
:10588C000A2375E70B2373E70C2371E70D236FE7EE
:10589C000E236DE70F236BE7002369E7012367E70E
:1058AC00000C01400072040001000F0000040140D4
:1058BC0000080140B34EB0427FF49DAC072B21D9B8
:1058CC00A3F10801012940F2EF80A3F10A01052997
:1058DC0040F2EC80A3F11001012940F2E980A3F120
:1058EC001201052940F2E680A3F11801042940F2C7
:1058FC00E380A3F11D01012940F2E0801F2B14BFAE
:10590C00FF210A21062AE17540F2DA80D11F012914
:10591C0040F2D880A2F10901052940F2D580A2F10C
:10592C000F01012940F2D280A2F11101052940F2A8
:10593C00CF80A2F11701042940F2CC80A2F11C0106
:10594C00022940F2C9801F2A14BFFF2103212176AE
:10595C00002B00F0C780012B00F0C680022B00F05A
:10596C00C580032B00F0CC80042B00F0CB80052BE2
:10597C0000F0CA80062B00F0C980072B00F0C8800D
:10598C00082B00F0B580092B00F0B4800A2B00F036
:10599C00A5800B2B00F0A4800C2B00F0A3800D2B0A
:1059AC0000F0A2800E2B00F0A1800F2B00F0A8803D
:1059BC00102B00F0AB80112B00F0AA80122B00F002
:1059CC00A980132B00F0A880142B00F09180152BCC
:1059DC0000F09080162B00F08F80172B00F08E803B
:1059EC00182B00F08D80192B00F08C801A2B00F0F6
:1059FC008B801B2B00F08A801C2B00F089801D2BC8
:105A0C0000F088801E2B00F087801F2B0CBF022318
:105A1C00FF23E376002A00F08780012A00F08680BD
:105A2C00022A00F08B80032A00F08A80042A00F0FE
:105A3C008980052A00F08880062A00F08780072AD2
:105A4C0000F08A80082A73D0092A67D00A2A67D006
:105A5C000B2A67D00C2A67D00D2A67D00E2A6DD07E
:105A6C000F2A71D0102A71D0112A71D0122A71D03C
:105A7C00132A71D0142A5BD0152A5BD0162A5BD05E
:105A8C00172A5BD0182A5BD0192A5BD01A2A5BD054
:105A9C001B2A5BD01C2A5BD01D2A5BD01E2A5BD034
:105AAC001F2A08BF0823C4E608212BE7012129E798
:105ABC00092127E7022125E7052123E70A2121E710
:105ACC00032144E7082142E7012140E709213EE791
:105ADC0002213CE705213AE70A2138E7062398E73B
:105AEC00072396E7082394E7092392E70A2390E714
:105AFC0002238EE703238CE704238AE7052388E738
:105B0C000B2386E70C2384E70D2382E70E2380E723
:105B1C000F237EE700237CE701237AE70623CEE4FC
:105B2C000723CCE40823CAE40923C8E40A23C6E407
:105B3C000323C4E40423C2E40523C0E40B23BEE422
:105B4C000C23BCE40D23BAE40E23B8E40F23B6E413
:105B5C000023B4E40123B2E40223B0E4022F7FF467
:105B6C00D1AC607F0849FEF7F9F9FEF7E9F9A675A3
:105B7C00267567752046FFF705FAC3E4034EFFF759
:105B8C003BBB00BF000C014079490000027000F0E3
:105B9C0090F83120012A10B5034610D102290ED0FD
:105BAC00827D8A4201D1002010BD997511B9FFF791
:105BBC00C3F9F8E70129F6D1FFF7A0F9F3E701489B
:105BCC00F2E700BF057000F0F0B587B0044616464A
:105BDC00FEF7D0FD054600BBCDE9011604936A46DD
:105BEC000F4BA06A039601A90593FEF749FF0546E2
:105BFC0098B994F82D3083B900F017FDA36A9B88EF
:105C0C009BB2064633B100992046FEF749FE0123AC
:105C1C0084F83030304600F00EFD284607B0F0BD59
