:10000000E01A0020F1B30200F9210000FD210000F8
:10001000A70A02020002000004180FAC5066CC00D0
:1000200000000000000000000000000000000000D0
:100030000000000014E302000000000000000000C7
:100040000000000000000000FFFFFFFFFFFFFFFFB8
:10005000FFFFFFFFFFFFFFFFFFFFFFFFFFFFFFFFB0
:1000600000700F000000000000000000FFFFFFFF15
:10007000FFFFFFFF1C000000000000000000000068
:100080000000000000000000483E0020483E002024
:10009000E01A002074270300FCBA0200801100203F
:0C00A000601100200000100000000000B3
:10020000E01A0020F1B30200F9210000FD210000F6
:10021000052200000122000009220000EDB30200C7
:10022000EDB30200EDB30200EDB30200EDB3020046
:100230000D220000EDB30200EDB30200EDB30200A9
:10024000B13D00008D650200D12400008022000035
:10025000315F0200F965020099650200B165020094
:1002600091650200E5340000B9350000D553000067
:10027000FD95000080220000802200008022000006
:100280008022000080220000DD3500008022000076
:1002900080220000802200008022000080220000D6
:1002A00080220000802200008022000080220000C6
:1002B000FD65020095650200353B00003D660200C9
:1002C00080220000FD2F020080220000802200001A
:1002D0008022000080220000802200008022000096
:1002E0008022000080220000802200008022000086
:1002F0008022000080220000802200008022000076
:0C0300008022000080220000EDB302000B
:10030C00F8B500BFF8BC08BC9E467047F8B500BFF6
:10031C00F8BC08BC9E46704710B5054C237833B921
:10032C00044B13B10448AFF300800123237010BDBC
:10033C005020002000000000FC21030008B5034BF6
:10034C001BB103490348AFF3008008BD0000000057
:10035C0054200020FC210300154B002B08BF134B2D
:10036C009D46A3F5803A00218B460F461348144A4C
:10037C00121A2BF0ABFB0F4B002B00D098470E4BF7
:10038C00002B00D098470020002104000D000D48E0
:10039C00002802D00C48AFF300802BF059FB200052
:1003AC00290009F047FB2BF03FFB00BF00000800C1
:1003BC00E01A002000000000000000005020002087
:1003CC00483E0020000000000000000000207047A4
:1003DC0007B5054B0090054A054901200CF0ECFDD2
:1003EC0003B05DF804FB00BF40BD020049BD020034
:1003FC004EBD0200012304220A21184606F0E4B87F
:10040C0038B5C37B05460BB1832038BDC47C6CB9B1
:10041C00017D82898B1C9A420AD380680CF037F9D3
:10042C0007F032F830B9EB7B002BEDD18120ECE7F3
:10043C008020EAE72046E8E738B5C37B002B437DF4
:10044C0014BF8325C325012B04460FD10368028AF0
:10045C00598858790AF05CFF40B123685B88032BFC
:10046C001BD12046BDE83840FFF7CABF637DA3B956
:10047C002368228A598858790AF041FF68B12368A9
:10048C005B88032B04D040F20242934200D023B984
:10049C00E37B002B14BF83258125284638BD70478C
:1004AC0001207047012070470120704770470020E1
:1004BC0070470020704700207047002070470020D4
:1004CC0070470020704700207047012070470120C2
:1004DC007047B520704700207047002070470020FF
:1004EC007047002070477047002070477047B52058
:1004FC007047002070477047002070478420704779
:10050C0070470120704700000246024901200CF0A0
:10051C0053BD00BF62BD020000207047034B1B6837
:10052C001878012808BF0220704700BFB82D0020A2
:10053C0000207047034A03460120C3E90320002230
:10054C001A7070470100FEFF70477047002070471B
:10055C000020704700207047002070470020704733
:10056C000020704700207047002070477047B5206E
:10057C00704700207047002070477047002070477C
:10058C0070477047B5207047704770470020704720
:10059C0070477047094A0023FF21137082F87830A6
:1005AC0082F8653082F8773082F8793082F87A10E8
:1005BC0082F87B30024A1360704700BF6C20002029
:1005CC0020340020F8B50D468C680A682849064688
:1005DC00202002F00EFD6B687BB92649202002F02A
:1005EC0008FD202008F0C0FD2349202002F016FD54
:1005FC002020BDE8F84008F0B7BD002EF1D01F4D0B
:10060C001F4E204F013C14F8013F23B91A492020FA
:10061C0002F004FDE5E7752B18D0762B18D0772B5C
:10062C0018D0732B18D0722B18D0712B18D0622BBA
:10063C0018D06E2B18D02A2B18D01349134A212B03
:10064C0018BF1146202002F0D4FCDCE72946F9E75C
:10065C003146F7E73946F5E70D49F3E70D49F1E780
:10066C000D49EFE70D49EDE70D49EBE70D49E9E7DA
:10067C0095F902001DBE0200CEBD0200DBBD0200DA
:10068C00CFBD0200E6BD020027BE020024BE020060
:10069C00F2BD0200FCBD020007BE020012BE020049
:1006AC001CBE020021BE0200F0B5214A92F87B303C
:1006BC00184452FA80F01F4B90F865C090F86650C1
:1006CC001F78A5EB0C050026EDB23046F4B2A5421E
:1006DC0025D90CEB060313445B7811B10CB92D2B07
:1006EC0017D0782B1FD0582B05D108B137240AE02E
:1006FC00013C012C14D9602B17D8402BF6D83A2B7F
:10070C0034BF302400241B1BDBB29F4203D900FBF7
:10071C0007300136DAE7052382F879300020F0BD86
:10072C0010270020F5E70028E2D05724EBE700BFA4
:10073C006C200020E81A0020FFF72CBF034B93F825
:10074C00770093F87B30C01AC0B270476C20002041
:10075C000021FFF7A9BF000010B50A4B93F87B20CE
:10076C00024453FA82F292F8652013445C78A4F1A7
:10077C002D0359425941FFF797FF2D2C08BF4042DA
:10078C0010BD00BF6C20002030B50C4A92F87B30B5
:10079C000344C043DBB2C00F39B1D51895F866409D
:1007AC0095F86550641B241A0C7042FA83F393F885
:1007BC0065301844024B184430BD00BF6C2000203B
:1007CC006D200020F7B50E460DF1070115461C46AD
:1007DC00FFF7DAFF9DF80730AB42074688BF8DF86C
:1007EC0007501CB19DF807402C1BE4B22246304642
:1007FC00002100F07DFB30199DF80720394600F0F0
:10080C001BFB9DF8070003B0F0BD38B508220C4661
:10081C000123FFF7D7FF04F10803621E043413F819
:10082C00011D12F8015F1D70A3421170F7D138BD84
:10083C0038B5014605460120FFF7C4FED5E9014352
:10084C006CB91C46084D236863B12946202002F080
:10085C00D0FB21460020FFF7B5FE0C34F3E71B78E4
:10086C006E2BEFD038BD00BFF2FB020008B5044977
:10087C00202002F0BEFB2020BDE8084008F074BC2C
:10088C008FBD020038B5FFF7F1FF064D002461194A
:10089C000C34631953F80C3C03B938BD0020FFF736
:1008AC0091FEF4E770C902002DE9F84F1F4B204D63
:1008BC0053F820201F49202002F09BFB2B681BB90A
:1008CC00BDE8F84FFFF7DEBF1B4FDFF874A0FFF752
:1008DC00CDFF0026B94697F87B30F4B2013B9C4221
:1008EC0004DB2868BDE8F84FFFF7A2BF47FA86F390
:1008FC004C4493F865800023C84494F8662094F81F
:10090C006510521A03F1010BD2B2DBB2934205D33C
:10091C000A49202002F06DFB0136DCE743445146C6
:10092C005A78202002F065FB5B46E6E7EC1A0020C3
:10093C00203400208ABD02006C200020F3FB020052
:10094C0000FF02002DE9F74F884C94F87730002B0C
:10095C0000F0A280864B1B7813F0010F04F1010705
:10096C001FD00025834E14E06319202093F86620D5
:10097C0093F86530D21A44FA85F3D2B293F8651025
:10098C00394408F0ECFB3146202002F032FB0135F3
:10099C00EDB294F87730AB42E6D87749202002F0DC
:1009AC0028FB94F877300193DFF8D8E1734B0026DD
:1009BC009EF800801EF801CF1EF8012C4FF00009A4
:1009CC00ACEB020CB8445FFA8CFC4D46186800285E
:1009DC0052D00138C24619E02AB9002D4AD04FF046
:1009EC0001090C33F2E71AF8011BA1F1410BBBF121
:1009FC00190F98BF2031A2F1410B98BFC9B2BBF1BE
:100A0C00190F9CBF2032D2B28A42EAD1AAEB08015C
:100A1C00614510F8012FDFD1002ADED11D46584B5D
:100A2C001D6094F87B30013384F87B30D5E90123C9
:100A3C000136F6B2002A35D01B786E2B31D03F2B05
:100A4C0023D04FF00009C8464FF0070B042394F84D
:100A5C007710AA68B14212F808702BD8AFB1904445
:100A6C0098F801302A2B10D0212F1CBF032384F8B7
:100A7C0079300AE01D46B4E7B9F1000F01D1002D21
:100A8C00CDD1022384F87930002594F87900002820
:100A9C0069D168680BF0E2FA03B0BDE8F04FFFF7DC
:100AAC0079BD1346019AB24282D8032284F8792088
:100ABC001D46EAE7732F09D8712F0BD2212F1FD0B7
:100ACC00622F3CD0002F4BD1032246E0A7F17502D8
:100ADC00022A45D8752F29D0762F2AD0732F2BD0E8
:100AEC00722F47F6FF7A18BF4FF0FF3A01214846A4
:100AFC000193FFF7D9FD5045019B01D984F879305A
:100B0C00AA68424452782A2A94F879201CBF08F12A
:100B1C0001085FFA88F8002AB7D1212F1FBF0136D0
:100B2C0009F10109F6B25FFA89F990E74FF0FF0A73
:100B3C00DCE74FF6FF7AD9E74FF07F0AD6E794F857
:100B4C007B204A4454FA82F292F86520224452786F
:100B5C00222AD5D07B2AD3D0052284F87920CFE75E
:100B6C0084F879B0CCE7FFF79FFE95E76C20002066
:100B7C00E8200020F3FB0200CCBD020070C902008B
:100B8C0020340020D12000202DE9F3415E4C5F4F32
:100B9C0006460D464FF0000866B90DF107012846D0
:100BAC0008F0D8FA78B1262800F0A980012384F83F
:100BBC0079304BE0002D00F0A28016F8013B8DF847
:100BCC000730013DEDB23A789DF807303B700D2AA5
:100BDC0001D10A2BE0D00D2B0CD0A3F10A0251420B
:100BEC00514122788846042AD6D8DFE802F0051D48
:100BFC00263C31000121F4E721B1FFF7A3FE4FF0B1
:100C0C000108C9E7202B63D0222B07D102232370C4
:100C1C0094F87820642A5DD10623C8E77B2B01D198
:100C2C000323F4E70123F2E709B9202BF0D194F860
:100C3C007730112B3FD10323B9E7222BF7D00029B2
:100C4C00E6D0052384F879304FF001080423237093
:100C5C00B8F1000FA0D094F8790008B1FFF724FE8A
:100C6C00FFF798FC98E77D2B94F87A0003D1FF28C6
:100C7C00DDD005239BE7602B13D8402B13D8392BE1
:100C8C008CBF002230229A1AD2B20F2A10D8FF2819
:100C9C000BD002EB0012FF238DF8072084F87A307A
:100CAC00B6E75722EFE73722EDE784F87A2073E7AF
:100CBC00202BDED170E70133DBB284F8773023448C
:100CCC0094F8782083F8652000232370002994D1B0
:100CDC00884661E72378012B09D19DF80730A3F1F1
:100CEC00410119299CBF2033DBB28DF80730A318C2
:100CFC009DF807105970013284F878204CE7404673
:100D0C0002B0BDE8F08100BF6C200020E92000207B
:100D1C0049BA89B24840C0F303114140080380B27C
:100D2C004840C3B280EA431070470FF00BBD7047C8
:100D3C0070477047704770477047704770477047EF
:100D4C007047704770477047002070477047704776
:100D5C0070470020704782B002AB03E9060002B076
:100D6C0070477047704700207047002070477047ED
:100D7C0001207047012070477047704770477047DB
:100D8C0070477047704700002DE9F047204DDFF8A1
:100D9C00A090DFF8A0A000245FFA84F8404613F07E
:100DAC000BF8FF2806460CD122461A49287802F087
:100DBC0035F92878013408F0D7F9142CECD1BDE8BA
:100DCC00F087154B59F82420144947B213EA27032E
:100DDC0038BF5346287802F021F9002FE9DA14B114
:100DEC00B8F1030F08D10E4B0E49287816F0010FFD
:100DFC0018BF194602F012F90A2CDAD10A4B0B492A
:100E0C00287816F0010F18BF194602F007F9D0E741
:100E1C00A51D002045BF0200CEBD02006DBF020023
:100E2C0008BF02001EBF020030BF02003ABF020022
:100E3C00B4BE02004AFA02008842F0B54FEA9203AF
:100E4C001AD89BB29E00871904460D460437043409
:100E5C00BC4205F104053AD1C3EB8333314402EBB8
:100E6C008303013E304411FA83F3994220D011F8E8
:100E7C00012B00F8012FF8E7541E20449BB22144AB
:100E8C00A0EB830604460D46043E043CB442A5F197
:100E9C0004050ED16FF003045C43C3EB833302EB08
:100EAC00830321449BB201342044CB1A994209D1CB
:100EBC00F0BD2F792771EF78E770AF78A7706F7856
:100ECC006770E2E711F8012900F8012DEEE715F83B
:100EDC0004CC04F804CC15F803CC04F803CC15F8B6
:100EEC0002CC04F802CC15F801CC04F801CCAEE726
:100EFC000244904200D1704700F8011BF9E710B58D
:100F0C00013801390AB9104606E010F8014F11F802
:100F1C00013F9C4201D0E01A10BD013A92B2F1E7B8
:100F2C0082B2074B42B11A80000C064B0ABF4FF637
:100F3C00CE2218801A8070474BF6EF62F3E700BFA1
:100F4C00B01B0020B21B0020094B1888020448BFBC
:100F5C0080F0620042001A80064A1388190444BFCC
:100F6C0083F4805383F00B03590011805840704771
:100F7C00B01B0020B21B0020034B1870034B1970E0
:100F8C00034B00221A707047F0200020EF20002045
:100F9C00F1200020024B187800F07F00704700BF52
:100FAC00F2200020034B18780130C0B2187000F00A
:100FBC007F007047F22000201FB5030A8DF80E3019
:100FCC000323009303AB8DF80D0000F0BDF905B0C1
:100FDC005DF804FB1FB5030A8DF80F1004218DF882
:100FEC000E30009103AB8DF80D0000F0ADF905B09B
:100FFC005DF804FB2DE9F04389B00746BDF840507D
:10100C009DF84460BDF84C4088460DF1090011462E
:10101C0008229946FFF710FF8DF81250012E4FEA67
:10102C0015258DF811908DF813508DF8146017D08C
:10103C00032E1CD1082212990DF11500FFF7FCFEAE
:10104C009DF850308DF81D3016230093BDF85420B8
:10105C0002AB4146384600F077F909B0BDE8F083A1
:10106C008DF81540240A8DF816400F23EDE701206A
:10107C00F3E71FB50C46194602238DF80D2000939B
:10108C000A4603AB0146204600F05EF904B010BDE1
:10109C0070B586B0044616460DF10D0008221D46AB
:1010AC00FFF7CAFE0A2300932A4603AB34212046DD
:1010BC008DF8156000F048F906B070BD30B585B0FC
:1010CC000024ADF80A20021D92B2012A1D46ADF88B
:1010DC000840ADF80610ADF8044003D94FF6FF7286
:1010EC00904207D1064A2B46127801A919F0ACFBA5
:1010FC0005B030BD014601AA204619F06BFCF7E79C
:10110C00B41B00202DE9F74FFF2A98461DBF464B14
:10111C001B689C5C002418BF6408B8F1FF0F1EBF4D
:10112C00414B1B6813F808700E46814614BF7F08AC
:10113C0000271546FFF736FF4FEA19238DF80000FC
:10114C008DF803600621360A68468DF804608DF828
:10115C0001908DF802308DF8054013F09FFBFF28AD
:10116C00064604D11824204603B0BDE8F08F4FEAA0
:10117C00440B0BF1070A0AEB4701C9B213F042FB0F
:10118C000028EFD10446A3451BD10BF106013A46CA
:10119C0001F0FE01304613F0FCFB5FFA8AF44FF0CD
:1011AC00000A5FFA8AF5AF4223D83346BDF83020E7
:1011BC0006214846FFF782FF0446304613F012FA28
:1011CC00D1E72146284613F0DFFBA11D0246C9B228
:1011DC00304613F0DEFB611CC9B2284613F0D4FB79
:1011EC00E11D0246C9B23046023413F0D2FBE4B220
:1011FC00C9E76D00EDB22946404613F0C5FB214608
:10120C000246304613F0C5FB691CC9B2404613F0C8
:10121C00BBFB611C0246C9B23046023413F0B9FB69
:10122C000AF1010AE4B2BCE7581B00202DE9F04199
:10123C0088B00F4602A9064609F07CFC00287CD039
:10124C00FFF7B0FE8DF8100012F052FF8DF8110070
:10125C0012F04EFF000A8DF81200082239490DF1E8
:10126C001300FFF7E9FDBDF808308DF81C301B0AA0
:10127C008DF81D300F219DF80D308DF81B6004A8E2
:10128C008DF81E3013F00AFBFF28044657D04FF0A0
:10129C0000089DF80D305FFA88F2934208F10108BE
:1012AC001DD801220DF10E01204613F039FB4FF031
:1012BC0000089DF80E305FFA88F2934208F101089D
:1012CC0024D823463A4620210020FFF7F7FE054696
:1012DC00204613F087F9284608B0BDE8F0810021BC
:1012EC00304609F053FC0DF107018DF80700054657
:1012FC000122204613F014FB2D0A01220DF10701E7
:10130C0020468DF8075013F00BFBC2E70121304645
:10131C0009F03CFC0DF107018DF807000546012290
:10132C00204613F0FDFA2D0A01220DF1070120468B
:10133C008DF8075013F0F4FABBE7A325CBE718257B
:10134C00C9E700BFF53C0020F8B51C460E46174611
:10135C000546FFF727FE9DF818102070204613F065
:10136C009DFAFF2804460BD003463A4628463146E0
:10137C00FFF7A4FE0546204613F034F92846F8BDC5
:10138C001825FBE708B5FFF735F8BDE808400CF069
:10139C002BBF08B5FFF7AFF8BDE808400CF050BF05
:1013AC00FFF7D8B8FFF7DCB80020704738B5044613
:1013BC000D46FFF7EDF829462046BDE8384008F009
:1013CC000BBDFFF7CFB8FFF7D9B84022032101209E
:1013DC000DF0FABB0122032110460DF0F5BB0022E3
:1013EC00032101200DF0F0BB0222032101200DF09E
:1013FC00EBBB0122002109200DF0E6BB0120704758
:10140C0001207047012070472DE9F84F184E804697
:10141C000D461446994606F1010A0DB9BDE8F88F40
:10142C00102D4FF00D02494650462F4628BF10276D
:10143C00FFF702FD012333700D48F4730023B373DF
:10144C0001341BF0DDF90B495FFA87FBE4B242462D
:10145C0012F8013B11F8010F434002F8013CA2EBDA
:10146C000803DBB25B45F3D3ED1BADB29046D4E77A
:10147C00F7200020F62000202DE9F04F374D85B0E5
:10148C001746BDF83880019003930D220F9B0293F1
:10149C000E460146681CFFF7CFFC49232B702846EB
:1014AC004FEA1823AB7385F80F801BF0A9F92B7842
:1014BC0083EA17232B706B784FF002097B406B701B
:1014CC004C46AA464FF0000B21E0C4F1100CA7EBE0
:1014DC000B031FFA8CFC9BB2634528BF6346304656
:1014EC00A11B00EB010C5FFA8CF2A0EB060C1FFAAF
:1014FC008CFC9C451BD31C44E4B29B44102C1E4416
:10150C001FFA8BFB03D128461BF07AF90024BB454C
:10151C00DBD314B150461BF073F9B9F1010F4FF046
:10152C000004039E47460BD04FF00109CAE710F8A0
:10153C0001CB1AF802E08CEA0E0C0AF802C0D0E7D4
:10154C00029806490422FFF777FC019B0298224679
:10155C00042105B0BDE8F04FFFF756BFF72000207F
:10156C00F7B5099FBDF82040CDE9004706461D465A
:10157C00FFF782FF2CB13346012221462846FFF7A4
:10158C0043FF002003B0F0BD2DE9F743BDF82870F0
:10159C000F4C1E4605468846914603463946304652
:1015AC000122FFF731FF33464A4641462846CDE932
:1015BC000074FFF761FF042221460B98FFF79FFC94
:1015CC00002814BF7E20002003B0BDE8F08300BFCC
:1015DC00F32000202DE9F3410A4F0C4699181546CB
:1015EC001E468046214438460422FFF725FCCDE9EF
:1015FC00006763192A4621464046FFF7C5FF02B033
:10160C00BDE8F081072100200020704700207047C2
:10161C007047704710B5104C1049A1610323216627
:10162C000F491022C4E904330E4BE361C4E91912CB
:10163C0000230D49A362E01D6362E3622367E36646
:10164C00636722622AF04AFA084920462AF046FAD1
:10165C002023A37110BD00BF00380020E1D202008E
:10166C000B2100201B210020EAD20200EED2020046
:10167C002DE9F84F1F4B16461A7881468A46984634
:10168C000AB9FFF7C7FF182707FB09873D6FD7F883
:10169C006CB05D452BD9BC6E796E641BB44228BF0F
:1016AC0034462944504622462AF005FABB6E25449E
:1016BC00A244361BAB4208BF0025ABEB050B5E45C5
:1016CC0028BF5E4656B1182303FB09833246596E78
:1016DC00504629442AF0EFF93444354424B11823F8
:1016EC0003FB0988C8F870502046BDE8F88F002429
:1016FC00E3E700BF00380020F8B504460E46174655
:10170C0004F0A7FA3A46054631462046FFF7B0FFEB
:10171C000446284604F0A3FA2046F8BD2DE9F84308
:10172C00124D1E462B788146884617460BB9FFF79B
:10173C0071FF04F08EFA696900244FF0180C0CFB51
:10174C0004535A6E2AB10134A142F8DC4FF0FF3435
:10175C0007E0A142FADDC3E918989F661A67DA66BA
:10176C005E6704F07CFA2046BDE8F8830038002060
:10177C00FFF750BF012270B51146042004F0A2F807
:10178C001A4B1B4D1A681B4842F001021A60DA68AA
:10179C004FF0604442F08072DA60174BC4F8B03FEF
:1017AC0000260223C4F8006EC4F8806EC5F8F03031
:1017BC0003F094FF00F5D520104B114A00F2FC40C9
:1017CC00B0FBF3F00F4B01382861C4F8406E1A607F
:1017DC000D4BC4F8803E4FF48073C5F80433D4F835
:1017EC00003E43F48073C4F8003E70BDF0ED00E0A1
:1017FC00000004E006000E0055CEACC5F8590D00F3
:10180C00FF030040001000E00D00010010B50121A5
:10181C00104803F083FE104B01241C60002004F0E0
:10182C007BFE234604220221052004F0CDFE204637
:10183C000EF020FAFFF79EFF0EF01DFAFFF798FF4F
:10184C002346402205490648FFF768FF054B186000
:10185C00C00F10BD00350A00108814422B21002047
:10186C00F5D20200B81B0020024B1868003018BFDC
:10187C0001207047F0ED00E0054A4170D123037060
:10188C001378C370090A8170591C117004207047B9
:10189C006B2100202DE9F74F354E33681C5C032C6F
:1018AC00074663D929F077FEDFF8C880019005342C
:1018BC00E4B24FF6FF7A0025C146D8F800204AB1B1
:1018CC00AC4207D929F067FE019BC01A80B2B0F573
:1018DC00FA7F05D9601B18BF012003B0BDE8F08F5B
:1018EC00002D3DD0012D1DD13268D55D4FF0020B7E
:1018FC004FF06042D2F8801ECB0711D51146D9F8B3
:10190C000C0040F08070C9F80C00D1F8000E40F4C7
:10191C008070C1F8000E086A0028F0D082F82050C0
:10192C005D46CAE7E21E05F1010B95425FFA8BFB9F
:10193C0002D15FFA8AF5DBE7A21E954202D1CAF307
:10194C000725D5E7621E95420ED0A91EC9B23846AE
:10195C0013F01AF851460546FFF7DAF98246C7E745
:10196C005B254FF0010BC3E75D25C1E70120B4E710
:10197C00581B0020F0ED00E010B50B4B90B040224E
:10198C0069461868FFF7B8FE58B1C1B2684612F044
:10199C0085FF0446014612200EF07EFA204612F016
:1019AC0021FE10B010BD00BFB81B002042DE7047F6
:1019BC0038B504460D460EF093FF00F0BDFD04F063
:1019CC0040F9294620460EF033FA2B4622460549AB
:1019DC00012007F0CFFB29462046BDE83840FFF731
:1019EC00E5BF00BF05D302006D4B2DE9F0416D4CF6
:1019FC005A68A2655A6AE2656B4AD2F800122166EF
:101A0C00D2F8042262669A6AA266DA6AE2661A6BF5
:101A1C0022675A6B6267DB6BA26BA367D4E90F5327
:101A2C0012F0040F18BF1D4629F0A2FD00228542BA
:101A3C000346606522655CD35C4A954259D8AA6915
:101A4C006264E969A164B4F85810C1F3080106296D
:101A5C0053D157498A4250D356498A424DD21188A4
:101A6C004DF64262914248D16268C4F89420A26853
:101A7C00C4F8982040F201704F4A5049934238BF45
:101A8C0013460A468B423BD3D31AE3640023C4E9C2
:101A9C001F33C4E92133C4E92333484E444FDFF8E4
:101AAC0014C1AE4232D8D4E91FC7D4E92165D4E9B8
:101ABC0023124FF0000E013BDBB2FF2B41D1BEF1E4
:101ACC00000F05D0C4E91FC7C4E92165C4E923127E
:101ADC00B4F85830C3F30803DA1E0F2A55D8DFE8E0
:101AEC0002F03A5B474A545454545451545454548D
:101AFC00543E0022C4E911221D464FF42060BBE77E
:101B0C001E68B6F1CD3FBFD10433BBE756F8042DA8
:101B1C00BA42C6D36245C4D2D107C2D5002104EB68
:101B2C00010EDEF87CE09645BBD004311829F6D1C5
:101B3C000BB9052301E0013BDBB204EB8301CA675F
:101B4C00AFE7E0464FF0010EBC4637462E460D4639
:101B5C0011464246AFE740F60120BDE8F081184B34
:101B6C00DB6913F0020F40F2025318BF1846F4E77A
:101B7C0040F60320F1E740F60423B0F5206F08BFD0
:101B8C001846EAE740F60520E7E7013B40F6072256
:101B9C00412B98BF1046E0E740F60220DDE700BF7E
:101BAC0000ED00E00000002000E100E0C01A002081
:101BBC0024030000FCBA02009C000020E01A002064
:101BCC0000200540062804D007280CBF0120022065
:101BDC0070470020704700002DE9F04385B04FF4AA
:101BEC008073ADF80C3001F0C5FC01211548DFF80D
:101BFC005C80DFF85C9003F091FC0121124803F04B
:101C0C008DFC0024012703AB0122E35C18F8336040
:101C1C0008EBC30330465D680023294604F0D4FC6E
:101C2C004946E8B201F0B4FCCDE9007701232A461D
:101C3C002946304604F07CFC14B105B0BDE8F083B5
:101C4C000124E0E74041050000350A0018D30200EA
:101C5C00E51C000008B5FFF7B5FF022816BF024BC4
:101C6C000020185C08BD00BF6C21002008B5FFF7F0
:101C7C00A9FF02281CBF014B195408BD6C21002080
:101C8C0008B5FFF79FFF022805D0034A135CB3FA8F
:101C9C0083F35B09135408BD6C21002008B5FFF7D2
:101CAC0091FF022811D00A4A12F8301030234B430E
:101CBC0002EBC00207491944536803EBC1039B00B4
:101CCC001868B0FA80F0400908BD0020FCE700BF9E
:101CDC0018D302001CA0104270B50446FFF7DEFFBB
:101CEC000026054601E000261D462046FFF7D6FFDC
:101CFC00A8420346F7D10136052EF2D12046FFF754
:101D0C00A9FFA8420BD029462046FFF7AFFF20467B
:101D1C00FFF7A0FF0146204608F08AFD70BD204663
:101D2C00FFF7AEFF2046FFF795FF0146204608F06F
:101D3C007FFD2046FFF7A4FFE9E7000010B504F093
:101D4C0059FF044604F050FF0022012101FA02F36E
:101D5C00234014D01B4B33F812301B4A062B13D0E4
:101D6C0040F207218B420DD1184919480C68844266
:101D7C0008D14CF23C334B800B88138012E00132BB
:101D8C00112AE3D1104AF8E7104B58884FF20F0193
:101D9C00884214D11988B1F5406F10D211804CF2E1
:101DAC003C325A80084B1A8840F201739A4201BFA8
:101DBC00084A094BD2E90001C3E9000110BD4FF4F8
:101DCC00C061EBE728D3020078210020000000203E
:101DDC0007020FF09400002070210020014B18889E
:101DEC00000A704778210020014B1888704700BF0B
:101DFC00782100202DE9F04F4D4CA36BD4F850B056
:101E0C00D4F840A05A074FBF0027D4F84CB0D4F8F0
:101E1C005480D4F83CA05ABF464FDFF84091DFF80D
:101E2C004091454A48BFB84613F0080F434B18BFC2
:101E3C001A46B7EB08061CBF7308642187B01FBF96
:101E4C0001FB0B33B3FBF6F39BB205933C49CDF886
:101E5C0000804B46CDE9017A08BF0596054601F096
:101E6C00DDF8B3B2CDE900931FFA8BF2059B35492F
:101E7C00284601F0D3F8A36B5B070AD49C3E5E4561
:101E8C0007D1626D304B9A4203D23049284601F09B
:101E9C00C5F8BA4501D8C24504D24A462C49284651
:101EAC0001F0BCF8284607F05FF9236E0BB9636E9E
:101EBC00BBB32849DFF8AC80DFF8AC90284601F0C2
:101ECC0098F800260127226E07FA06F3134207D072
:101EDC0058F8262013781BB14946284601F089F89A
:101EEC000136202EEFD1DFF87C80DFF87C900026C5
:101EFC000127626E07FA06F3134209D008EB86033A
:101F0C00D3F8802013781BB14946284601F071F8AC
:101F1C000136122EEDD1284607B0BDE8F04F01F086
:101F2C0077B80D49284607B0BDE8F04F01F076B8F8
:101F3C0000000020E01A00203AD6020033D602003E
:101F4C0042D6020070D602009C000020A9D60200E6
:101F5C00D5D60200F3D6020022D702002ED60200FC
:101F6C009FEA020038D7020094F902002DE9F843E9
:101F7C000446FFF739FF40F60123984239D010D8B8
:101F8C0040F2025398421DD040F20173984224D083
:101F9C0040F20153984213D16549204601F03EF8B6
:101FAC0022E040F6032398426CD03DD340F6042344
:101FBC00984200F09C8040F60523984200F0B580D2
:101FCC00BDE8F8835B49204601F028F85A4B5B4981
:101FDC005A6C204601F022F806E0574A5849D2E9DB
:101FEC002523204601F01AF82046BDE8F84307F0F7
:101FFC00BBB8514D5349204601F010F895F86C30A0
:10200C009F0703D55049204601F008F895F86F302A
:10201C005E0603D54D49204601F000F895F96F3066
:10202C00002BE1DA4A49B8E7434D4A49204600F013
:10203C00F5FF95F86830980704D06A6C3F49204644
:10204C0000F0ECFF95F96830002B04DA6A6F424916
:10205C00204600F0E3FFDFF80C81DFF81891002632
:10206C000127AA6E07FA06F3134207D058F8262068
:10207C0013781BB14946204600F0D0FF0136082EDC
:10208C00EFD1B1E72C4D3549204600F0C7FF2B4965
:10209C006A6C204600F0C2FF95F86930590703D5E9
:1020AC002F49204600F0BAFF95F96930002B04DA6D
:1020BC006A6F2949204600F0B1FF2A4FDFF8B4803F
:1020CC000826AB6EF340DA0707D557F826201378AD
:1020DC001BB14146204600F0A1FF0136102EF0D175
:1020EC0095F86830002B7FF47FAF1F4955E7124DF0
:1020FC001E491C4FDFF87C80204600F08FFF6A6C75
:10210C000E49204600F08AFF1026AB6EF340DB0729
:10211C0007D557F8262013781BB14146204600F00E
:10212C007DFF01361A2EF0D15EE711494BE700BF57
:10213C00BDD30200FAD30200000000202AD4020012
:10214C0043D402005DD4020075D40200AFD4020067
:10215C00E2D402001ED5020043D5020067D502006E
:10216C007ED502004CD30200C4D50200F4D5020087
:10217C000DD602005FD502002DE9F84F164C174F13
:10218C00DFF86080DFF860A00646002523785FFA50
:10219C0085FB0BB9BDE8F88F57F8043B1049224674
:1021AC00304600F026FF227804F1010982B96278EA
:1021BC0082B10BF0030103290CBF41465146304656
:1021CC0000F017FF304606F0CFFF01354C46DDE737
:1021DC004C46E8E74146F2E700D802000400002034
:1021EC00B4D30200CCBD02004EED020000F00CB8DE
:1021FC0000F00AB800F008B800F006B800F004B817
:10220C0000F002B800F000B872B61EF0080F09D04A
:10221C001EF0040F0DD0DFF850E0AEE8FF1F6FF09A
:10222C0002000CE0DFF840E0AEE8FF1F6FF00E009C
:10223C0005E0DFF834E0AEE8FF1F6FF006006946FA
:10224C00EFF309828EE8070086460848084C85455E
:10225C0001D3A54501D384F30888FFF7C5FB84F3AC
:10226C00088829F061F9000004000020C01100204A
:10227C00E01A0020FFF7C6BF10B501210A4803F091
:10228C004DF90121094803F049F9042211460023B4
:10229C00052004F099F90521002304220846BDE825
:1022AC00104004F091B900BF4041050000350A0010
:1022BC00064B03EBC00213F83030516801228A4000
:1022CC0030215943024B5A50704700BF90DE020038
:1022DC000CA00046064B03EBC00213F830305168DB
:1022EC0001228A4030215943024B5A50704700BF9B
:1022FC0090DE02000CA0004410B10020FFF7D8BF04
:10230C00FFF7E8BF37B57F2A14BF154600254BF2FF
:10231C0034629142044619D17F2241F2020168468F
:10232C000823FFF7EFFF082224496846FEF7E7FD74
:10233C0030B908237F2241F2F0116846FFF7E2FF23
:10234C00082269462046FEF777FD09E041F2F012BB
:10235C0091421AD11A490A6C496C01381D1F0BB9EC
:10236C0003B030BD013B9D4200F8012F4FEA122211
:10237C00F5D1033400229A42F2D00132042A04F837
:10238C00011F4FEA1121F6D1EAE701F47042B2F5D0
:10239C00805F07D1C1F30B0404F17E649AB203FB96
:1023AC000541D0E701F46042B2F5005FD8D1C1F32A
:1023BC000B0404F17E6404F58044EFE74ADF02006D
:1023CC00B081E00F70B5054616461C46DBB14BF2EA
:1023DC003463994210D1082C28BF08247F2241F283
:1023EC0002012346FFF78EFFA2B207492846FEF7EB
:1023FC0086FD40B941F2F011234632462846BDE82D
:10240C007040FFF77FBF70BD4ADF02002DE9F84333
:10241C001646C20704460F4603D594212748FFF7FA
:10242C00C7FAF30703D595212448FFF7C1FA04F442
:10243C007043B3F5805F20D1C4F30B0404F17E64C8
:10244C00731E1F4A23449342254603D99A211B48E5
:10245C00FFF7AEFADFF8649005EB0608454521D18D
:10246C0072083946204628F0EAFF20B34FF48871F1
:10247C001248BDE8F843FFF79BBA04F46043B3F588
:10248C00005F07D1C4F30B0404F17E6404F58044AF
:10249C002546DFE7A1210948FFF78AFA6FF00F05FF
:1024AC000024D7E715F8013BFF2BD7D0AB214846CA
:1024BC00FFF77EFAD2E7BDE8F88300BFAEDE02007C
:1024CC00FF07E00FFFF792BE1FB501211648174C0E
:1024DC0003F024F801221146104603F0F3F904210D
:1024EC00072004F071FB124A1068516801AB03C35A
:1024FC009068186001238DF804300D238DF80C3092
:10250C0001A9032320468DF80D3004F060FD094B22
:10251C0004220221C3F8802161621A60A36A0B4372
:10252C00A36204B010BD00BF00250A0000200540C6
:10253C0052DF020000E100E0014804F03CBD00BFA6
:10254C0000200540A52803D10021024804F01FBD3E
:10255C00704700BF00200540024B186800F00100D6
:10256C00704700BF00200540024A9368002BFCD145
:10257C00704700BF002005400020704700207047C6
:10258C007047000013B572B603F05BFB764B7749CE
:10259C005B698B6000230B76E0204B768B764023B7
:1025AC00C876087748778877CB77714B8022602480
:1025BC0081F8202081F8210081F8220081F8232065
:1025CC0083F8002383F80143202483F8024383F823
:1025DC00034383F8042383F8052383F8062383F845
:1025EC00072383F8082383F8092383F80A2383F845
:1025FC000B2383F80C2383F80D2383F80E2383F825
:10260C000F2383F8102383F8112383F8122383F804
:10261C00132383F8142383F8152383F8162383F8E4
:10262C00172383F8182383F8192383F81A2383F8C4
:10263C001B2383F81C2383F81D2383F81E2383F8A4
:10264C001F2383F8202383F8212383F8224383F864
:10265C00232383F8242383F8252383F8262383F864
:10266C00272383F8282383F8292383F82A2383F844
:10267C002B2383F82C2383F82D2383F82E2383F824
:10268C002F2383F8302383F8312383F83203CB686C
:10269C0023F4E0631B041B0C43F0BF6343F40133CE
:1026AC00CB604B6943F400734B614B6943F01003EF
:1026BC004B614FF4E0234B6200F012F9FFF73EFB45
:1026CC00EFF308832B4A043B4FF0CD3193421DD2DC
:1026DC00294A2A4892B20021FEF70AFC62B6284B1E
:1026EC0001225A64274BDB6C1B0E12D1264927485A
:1026FC004AF6E8520A60026842F0040202600B607B
:10270C00234A136843F40053136004E01960043B3C
:10271C00DCE7012BF4D01F4A136A23F4441343F46F
:10272C0088131362A2F580420124136843F480736A
:10273C001360194B1C6104F0DFFE01F03BF801F053
:10274C00A3FA002368460093ADF804308DF80340DB
:10275C0003F0C0FC00F082F928F02AFF0F481EF0AD
:10276C0049FE02B010BD00BF0000000000ED00E00B
:10277C0000E100E080110020C0100000A00000204B
:10278C0000000E40B081E00F90310E4098310E40A9
:10279C0064310E4000400E4000300E4074070300C0
:1027AC0040F2016028F0C0BEFEF732BF08B5002130
:1027BC000B20FEF72BFFBDE80840FEF72ABF0320D5
:1027CC0000F0C0BA08B5FFF709FB044B0B289ABF01
:1027DC0000B203EB8000184608BD00BFACE002005D
:1027EC0008B5FFF701FB044BC0F30F22C0B253F83E
:1027FC00223003EB800008BD70E0020010B5FFF73B
:10280C00EDFA0446FFF7F0FAC0B228B9012C24D136
:10281C0064F07F04E4B216E0072CF9D801A353F856
:10282C0024F000BF532800001D2800005128000090
:10283C0057280000572800005B2800005F28000084
:10284C00632800000924204610BD0224FBE7032462
:10285C00F9E70B24F7E70624F5E70446F3E700BF96
:10286C00BFF34F8FBFF36F8F054A536A23F4803346
:10287C005362D2F8943023F00103C2F894307047BD
:10288C0000ED00E0054B01229A60022100221A6142
:10289C00996004211A6199601A61704790ED00E00B
:1028AC00084B094930B5094C094D1A46581920589E
:1028BC0043F8040B8B42F9D1064B1360064B074AC5
:1028CC001A6030BD9CED00E0BCED00E0DCE00200E5
:1028DC006412FF1F14000020A0ED00E009000800A6
:1028EC0010B503F0B6F90446FFF7BAFFFFF7D8FFAF
:1028FC00FFF7C8FFBFF34F8FBFF36F8F064B052257
:10290C005A60064A536A43F4803320465362BDE84A
:10291C00104003F0A4B900BF90ED00E000ED00E022
:10292C0007282DE9F84F04460F462DD0082808BF7C
:10293C00022421460120FDF72CFEFFF70DFE651E3B
:10294C00D5F1000848EB050800B3012C1ED1A520D9
:10295C00FFF7F8FD2646EFF31089012383F3108867
:10296C00EFF3118A4FF0000B8BF31188354D404675
:10297C0006F092FE631EC5F800B0042B59D8DFE8B0
:10298C0003F00E4D4D5155000324D2E7FFF7E4FD43
:10299C0018B1FFF7E9FD0026DDE70646DBE72A4A1A
:1029AC00136923F00403136130BF284AD2F828348A
:1029BC00D2F81C2413409BB2254A2B60D2F800118C
:1029CC00480502D51168490506D4D2F80011480310
:1029DC0005D51268510302D543F480332B601C4B90
:1029EC00D3F80021520006D51B685B0042BF2B6850
:1029FC0043F400332B601EB10121164804F0C7FAD2
:102A0C00404606F05FFECFB18AF3118889F3108837
:102A1C0021460020BDE8F84FFDF7BBBD012003F0B7
:102A2C00A9FAC2E7012003F0C3FABEE703F0F0FAFB
:102A3C00BBE784210848FEF7BBFFB6E787F3108895
:102A4C00E6E700BF8021002000ED00E000A0004080
:102A5C0000E100E00020054004E10200044AD2F845
:102A6C001C341B0C1B04C2F82434024A136070473C
:102A7C0000A000407C2100200021FFF751BFFFF790
:102A8C00FBBF00002DE9F04F89B028F027FE074668
:102A9C00002840F0DD806F4E6F4D3168286825F0BE
:102AAC0035F90446002827D033689A69D3E9000128
:102ABC001268904733689B6904A89B6898473368F1
:102ACC009B690220DB6898473C463268059853683E
:102ADC00B3FBF0F3E7B2BB42916904F1010442D8B5
:102AEC00CB680020984733689B695B6898473168CE
:102AFC00286825F00BF90446DFF888910026002C95
:102B0C0053D1564BF35C4FEA8608002B31D1544B12
:102B1C00F35C0193534BA24603EB080B019B286813
:102B2C005FFA8AF7BB4253D84F4BF35C002B3CD077
:102B3C004C4B019F9844FBB27E2B286835D8D8F8B3
:102B4C00003007EB030A03AA02AB514625F018FB31
:102B5C0048452AD05146286825F058FB01370446D1
:102B6C000028E8D021E012680B6907FB0020984789
:102B7C00ABE73C4B286853F8267003AA02AB3946E6
:102B8C0025F0FEFA484507D078B9039B012B0CD0F1
:102B9C003946286825F03AFB344B286853F808303E
:102BAC0039461A6825F016FA04460136222EA6D1AB
:102BBC00B4FA84F32E4A5B0913702E4B9C4241D01D
:102BCC002DD8002C32D0013B9C423FD0C5242DE0A7
:102BDC00DBF800301F4403AA02AB394625F0D0FACB
:102BEC0048450AD010B10AF1010A97E7039B8BB94B
:102BFC00214B029AF35C9A42F5D01F4B1B4A9B5D0A
:102C0C0052F808202868394625F056F90028EAD0F1
:102C1C00044689E73946286825F0F8FAEDE7174BA2
:102C2C009C4211D004339C42D0D1C1242B681B7C14
:102C3C0023B14FF489711248FEF7BAFE204609B051
:102C4C00BDE8F08FC324F1E7C424EFE7C224EDE71D
:102C5C00C624F3E7381C0020341C002058C30200A3
:102C6C00ACC202009CC302007AC30200D0C20200B4
:102C7C008421002002E000F024C4020004E000F0F3
:102C8C00A2E102000BE000F0FF2970B506460D46EC
:102C9C0014461AD80F4A1278DAB10F4A10680F4A44
:102CAC0052F821100E4A525D3AB1324625F0E0F945
:102CBC0078B1BDE87040FEF73AB87F2C08BF00240D
:102CCC003246214425F042F9F2E7BDE87040FFF7A7
:102CDC0079BB70BD84210020341C00209CC30200F1
:102CEC0058C30200FF28F8B505460C46164619D8FD
:102CFC0010490978E1B11049104F0868104951F892
:102D0C0025107D5D3DB1126825F064F980B1BDE8F8
:102D1C00F840FEF70CB87F2C08BF0024214425F0A6
:102D2C00CBF8F3E71A463146BDE8F840FFF76EBB27
:102D3C00F8BD00BF84210020341C002058C30200C1
:102D4C009CC3020008B5084B1B7863B1074B53F8C2
:102D5C002010074B0022186825F0CAF918B1BDE8FD
:102D6C000840FDF7E4BF08BD842100209CC302008D
:102D7C00341C002070B5164685180AB9304470BD55
:102D8C0001F00F030A2B34BF302437242344013ABB
:102D9C00090905F8013DD2B2EFE70000F0B5F9B131
:102DAC0000281CDA2D23B0F1004F137000D04042E4
:102DBC00012115E0801B8642ECB205F10105F9D921
:102DCC0004B927B14D1C303454540127E9B20133F6
:102DDC00092B09D1303050540131C8B2F0BD00215B
:102DEC000023DFF80CC01F465CF823600025E2E7E7
:102DFC003CE202002DE9F04F95B04FF0000B02AC15
:102E0C0081468A4617461D465E46A0463B7863B906
:102E1C0002ABE41AE4B2224619465046C8470028D1
:102E2C0040F093803444E0B290E0252B13D0BBF1FA
:102E3C00000F14D12370013412AB9C426DD3A4EB60
:102E4C000804E4B2224641465046C84700287CD1CB
:102E5C002644F6B260E0BBF1000F00D101373B789D
:102E6C00632B00F092801BD8392B09D8302B80F0C3
:102E7C009E80002BCCD0252B51D04FF0000BDBE7E4
:102E8C00582B00F08B80622BF7D12B6801936B6869
:102E9C0000934FF0000B009B9B4543D10835ECE7AA
:102EAC00702B1ED017D8642B01D06C2BE5D16C2B5A
:102EBC0005F1040B28686CD17B78752B14BF0121AC
:102ECC00002101D0642B00D101372246FFF766FFA9
:102EDC0004445D46D1E7752BE9D0782B5ED0732B7B
:102EEC00CBD1A4EB0804E4B2224602A9504605F16A
:102EFC00040B2D68C84740BB2644F6B2C4B201305F
:102F0C002B5D002BFAD1224629465046C847E0B922
:102F1C0026445D46F6B283464446013776E7237075
:102F2C000134AAE7019B204613F80B100222FFF78D
:102F3C0021FF12AB984204460ED3A0EB0804E4B276
:102F4C00224641465046C84718B1002015B0BDE88E
:102F5C00F08F2644F6B24446009B013B5B4582BF92
:102F6C0020232370013412AB9C420BD3A4EB080436
:102F7C00E4B2224641465046C8470028E5D12644D3
:102F8C00F6B244460BF1010B85E72B682370043530
:102F9C00C6E7752B0CBF0021012196E720460222C3
:102FAC002978FFF7E7FE05F1040B044691E77A78E0
:102FBC0002F0DF02582A19D1322B07F1010B09D18B
:102FCC0029882F1D04222046FFF7D4FE3D460446D7
:102FDC005F4652E7342B09D12F1D2D680422290C92
:102FEC002046FFF7C7FE0422A9B2EDE74FF0010B14
:102FFC0022E70EB403B503AA52F8041B019206F0A3
:10300C00F9FBC0B202B05DF804EB03B070470000EE
:10301C000149FFF7EEBF00BFCCBD02000EB433B5C3
:10302C0005AA054652F8041B019206F0E3FB044680
:10303C002846FFF7EDFFE0B202B0BDE8304003B028
:10304C00704708B506F0D6FBC0B208BD2DE9F04FAD
:10305C009B46584B85B01B78109F9DF844A0DDF81B
:10306C005080064689461546002B00F09280072AB0
:10307C0000F291800E9B002B00F08D800F9B002B9B
:10308C0000F08980129BB3F5006F00F38480012857
:10309C0001D1002F7FD0484B03EB05131B7B002B7A
:1030AC007BD0464C10220021684628F00FFD04EB23
:1030BC0045141022B9F1000F5CD14946204628F086
:1030CC0005FDA37843F01003A370E37843F03003BD
:1030DC00E370BAF1000F03D1DBB243F00303E370EA
:1030EC003649129BCDF800B06A01013B885A01EBBE
:1030FC00020C63F30E1088520E9BCCF808300F9B19
:10310C00CCF804309DF84C109CF80330012E61F380
:10311C0083038CF8033042D11323CCF80C309CE899
:10312C000F000CF1100E8EE80F00DCF81C20CCF810
:10313C0014706FF0030161F39F02B9F1010FCCF829
:10314C001C2004D10F9BCCF81830CCF804701A4911
:10315C002A018B1841F802800027159A5A602846DC
:10316C009F605E732246694603F05AFC384605B0F0
:10317C00BDE8F08F0021204628F0A8FC1023A37096
:10318C000323E370BAF1000FAAD1DBB243F0300392
:10319C00A5E70B48EBE70B48E9E70B48E7E7B8F185
:1031AC00000FD4D19CF8023068F304138CF8023071
:1031BC00CDE700BF08230020882100200822002032
:1031CC00028000F0018000F0078000F038B5104B51
:1031DC001B780546BBB1C0B102F03BFD0D49002385
:1031EC0001EB0312147B3CB92B60012313731460A5
:1031FC0002F035FD204638BD0133082BF0D102F02A
:10320C002EFD0548F7E70548F5E70548F3E700BF4D
:10321C000823002088210020048000F0028000F0A8
:10322C00018000F038B502F014FD0B4A054600236E
:10323C00D1180C7B5CB91033802BF9D103F0A4FBB3
:10324C00064B28461C7002F00AFD204638BD284665
:10325C0002F005FD0248F9E7882100200823002030
:10326C00058000F00D4B1B7810B5044693B1072870
:10327C0012D802F0EEFC0A4B03EB04131A7B2AB1B2
:10328C0000241C7302F0EBFC204610BD02F0E7FC9E
:10329C000448FAE70448F8E70448F6E70823002056
:1032AC0088210020068000F0028000F0018000F0F0
:1032BC0013B5164B1868019000238DF8043002F0FA
:1032CC00C8FC134B1C7824B102F0C9FC114802B0A5
:1032DC0010BD01221A7002F0C2FC0F4B1C731C773C
:1032EC0083F82C4083F83C4083F84C4083F85C40D6
:1032FC0083F86C4083F87C4004230DEB03008DF8BD
:10330C00073003F061FB2046E1E700BF60E20200FA
:10331C0008230020038000F08821002010B588B01D
:10332C000E9C07940D9C06949DF8304005940B9CC4
:10333C0004949DF8284003940024CDE901340092B4
:10334C000B46024621462046FFF780FE08B010BD12
:10335C0010B588B00E9C07940D9C06949DF83040D7
:10336C0005940B9C04949DF8284003940024CDE90B
:10337C00013400920B46024601212046FFF766FEFF
:10338C0008B010BD08B50A4B1B785BB107280BD8E9
:10339C00084B03EB00131B7B43B1002103F00AFB2A
:1033AC00002008BD0448FCE70448FAE70448F8E7A5
:1033BC000823002088210020028000F0018000F00A
:1033CC00078000F008B50A4B1B785BB107280BD8B7
:1033DC00084B03EB00131B7B43B1012103F0EAFA0A
:1033EC00002008BD0448FCE70448FAE70448F8E765
:1033FC000823002088210020028000F0018000F0CA
:10340C00078000F008B50A4B1B7853B107280AD87F
:10341C00084B03EB00131B7B3BB103F053FB002069
:10342C0008BD0548FCE70548FAE70548F8E700BF82
:10343C000823002088210020028000F0018000F089
:10344C00078000F00D4B1B7893B1072812D889B177
:10345C000B4B03EB00131B7B73B10A4B1A6A012352
:10346C0003FA00F010401ABF00200B700870704770
:10347C0005487047054870470548704708230020E9
:10348C008821002000200E40028000F0018000F016
:10349C00078000F00B4B1B7810B50C4663B1072866
:1034AC000CD859B1084B03EB00131B7B43B103F051
:1034BC001FFB2060002010BD0448FCE70448FAE71D
:1034CC000448F8E70823002088210020028000F03F
:1034DC00018000F0078000F02DE9F843174E326EA2
:1034EC00F36E12EA030800D5FEE7154CDFF8549092
:1034FC000127002518EA070F16D02368B7669BB181
:10350C00A16862680131A16028469847637B012B52
:10351C000AD148B909EB4513197B1A7F60F34101B5
:10352C0060F3410219731A770135082D4FEA4707EA
:10353C0004F11004DED1BDE8F88300BF00200E407A
:10354C00882100200822002070B5094E0446012570
:10355C0004B970BD94FAA4F0B0FA80F005FA00F347
:10356C0024EA030456F82030002BF1D09847EFE7FB
:10357C000C230020054B4FF48022C3F880211A60E5
:10358C004FF48062C3F880211A60704700E100E0BC
:10359C0038B504460D4602F05CFB034B43F824504F
:1035AC00BDE8384002F05BBB0C230020074BD3F87E
:1035BC002804D3F81C24104020F42A5020F02A00B0
:1035CC004004400CC3F82404FFF7BEBF00A0004029
:1035DC00074BD3F82804D3F81C24104020F4AA403D
:1035EC0020F055000004000CC3F82404FFF7ACBF16
:1035FC0000A000402DE9F84F284C4FF0000A04F1D0
:10360C00A00580464FF000094FF0010B237F84F892
:10361C001DA06BB1D4E90023994508BF9045104615
:10362C0019460AD2B2EB080063EB0901C4E90001A8
:10363C002834AC42EAD1BDE8F88FE37F33B9237765
:10364C00A369002BF4D084F81DB0F1E7D4E902672C
:10365C00B8EB000069EB010132463B4628F064F8F8
:10366C00B01A67EB030123696269002BC4E90001FE
:10367C000BDD13441D2B6361E2D9461C41F100079D
:10368C001E3BC4E900676361DAE7D31A1D2B636143
:10369C00D6D910F1FF3641F1FF37F1E76023002056
:1036AC0038B5074C0025637F1BB1A369216A2846F6
:1036BC0098470135042D04F12804F4D138BD00BF1E
:1036CC0060230020064B5A6A99690A40D20705D537
:1036DC0001221A62034A136801331360704700BF5A
:1036EC000020044000240020F0B5194E00214FF0BA
:1036FC00FF324FF0FF337418257F3DB1D4E90045FC
:10370C009D4208BF94423CBF22462B462831A0293B
:10371C00F1D1104900240C705C1C08BFB2F1FF3FC2
:10372C000C4614D000279F420B496FF0640608BF6B
:10373C009642086038BF32460849042502440D629F
:10374C0001234A6523704B6A43F004034B62F0BDBE
:10375C00602300205423002050230020002004402C
:10376C000F4B1B7870B50546BBB102F072FA0D49D0
:10377C000023282606FB0312947F14B935B90A4C92
:10378C0007E00133042BF5D1084C02E001219177BD
:10379C002B6002F064FA204670BD054CFBE700BFBD
:1037AC005523002060230020041000F0011000F0CD
:1037BC00061000F070B5204D2C78002C3AD1012168
:1037CC001E481F4E01F0AAFE03211E4802F0FEF80F
:1037DC0001211D48347101F0A1FE304603F050FA6E
:1037EC001A49012003F032FA194B1A485A6A22F48A
:1037FC00FF6222F007025A6240F2FF721A62164A06
:10380C009C604FF08041C2F8801111605A6A42F0FE
:10381C0001025A622146A02228F058F90F4B1C7065
:10382C000F4B1C700F4B1C600F4B1C600F4B1C6024
:10383C0001232B70002070BD5523002000250A00A9
:10384C00C41B002005002400A0091400CD1B00207F
:10385C00002004406023002000E100E04C23002005
:10386C00542300205823002000240020042400208E
:10387C002DE9F74F93465C4A1278074689461E4657
:10388C00002A00F0AD80032800F2AC8002F0E1F9D0
:10389C00564A282404FB07248046A17F924629B966
:1038AC0002F0DDF9524803B0BDE8F08FBBF1000F18
:1038BC0008D116B10C993846B047404602F0CFF902
:1038CC000020F0E74B4A4FF4004C4FF4FA70002103
:1038DC009568A6614FF47A720023ECFB0B0127F07C
:1038EC0023FFB9F1010F02460B46C4E9022309D1AB
:1038FC004FF47A7303FB0BFB1E2303FB10B3236102
:10390C000F236361282303FB07A301304FF001024F
:10391C0041F10001C3E900011A770C9A83F81F905A
:10392C001A62354B1B78002BC7D1344C23680133FA
:10393C001EBF236801332360314B01931A78E2B91F
:10394C00304B2C4E1D600423336200236FF0640255
:10395C008B4208BF824238BF104628447065736A98
:10396C00019A43F004037362012313702368002B44
:10397C00A3D02368013B23609FE72368012BF5D17B
:10398C00282303FB07A30026DFF86890DFF874B048
:10399C001E77D9F8242022F00402C9F82420DBF881
:1039AC000000281AFFF726FEFFF77AFE26B9282218
:1039BC0002FB07A2012010772846FFF795FE114B5A
:1039CC00D9F808501868D9F85420019BA5EB000CC5
:1039DC00121A187801360028C8D09445D9D2C5E7F8
:1039EC00094860E709485EE7552300206023002062
:1039FC00031000F0002004404C230020582300202A
:103A0C005423002050230020061000F0021000F078
:103A1C002DE9F843264B1B7805460C46002B41D06C
:103A2C00032841D8002941D002F013F9214B282258
:103A3C0002FB05339A7F22B902F011F91E48BDE84A
:103A4C00F8831A7F1AB902F00AF91C48F7E7D3E990
:103A5C0000671B4B9D681B4BD3F8008002F0FFF8EE
:103A6C000021A5EB08008F4208BF864215D3361AF9
:103A7C0067EB0107B046B9464FF47A75A8FB0523EE
:103A8C0012F5804005FB09334FEAD03243F10001B7
:103A9C0042EA414222600020D1E74FF000084FF08B
:103AAC000009E9E70848CAE70848C8E70848C6E734
:103ABC005523002060230020031000F0051000F0B7
:103ACC000020044050230020061000F0021000F0EB
:103ADC00041000F0F8B502F0BCF8084D084F2C6843
:103AEC00BE68FFF7EFFD2B689C42F8D102F0B7F8E7
:103AFC000022901944F10001F8BD00BF0024002001
:103B0C00002004402DE910484FF47A74A0FB04BC4B
:103B1C001BF5804204FB01CC4CF10003D00B40EAB6
:103B2C004340BDE8108800002DE9F8431A4C02F020
:103B3C0090F8626AA1690A4022F005015307054614
:103B4C00216221D5154AA768154EDFF8589001213E
:103B5C0011709046636A23F0040363623068381A6C
:103B6C00FFF748FDFFF79CFD3846FFF7BDFD3268B7
:103B7C00A768636DB91A9B1A99F800200AB199428B
:103B8C00E8D2002388F80030FFF79CFD2846BDE8FA
:103B9C00F84302F064B800BF002004404C2300201E
:103BAC005023002054230020044B4FF04042DA6293
:103BBC001A6B22F040421A63704700BF00300E406F
:103BCC002C48F0B5002203682B4D114654592CB1EA
:103BDC001E68AC18002E36D1234601210832282A43
:103BEC00F4D101B103602549254E0B68002214461F
:103BFC0095592DB11F68B518002F2BD12B460124D8
:103C0C000832282AF4D104B10B6000681D4B0268FD
:103C1C0042B3DA69007922F0FF020243DA611A6BCF
:103C2C0042F0804209681A630A68164BF2B1DA69ED
:103C3C00097922F47F4242EA0122DA611A6B42F0DE
:103C4C0000421A63F0BD1E792779B74284BF234620
:103C5C000121C3E71F7995F804C0BC453CBF2B4636
:103C6C000124CDE71A6B22F08042DBE71A6B22F0BD
:103C7C000042E6E71424002024240020182400200D
:103C8C004C24002000300E4008B51B4B1B48012271
:103C9C001A700021282227F019FF28220021184829
:103CAC0027F014FF174A184B13601849184A136071
:103CBC000A684B6DC2F30742FF2A02D0DBB2FF2B1E
:103CCC0001D190231922134802EB820103EBD1019D
:103CDC000160DB000521B3FBF1F313440E4A1360C2
:103CEC00FFF762FF0D4B0122C3F880211A60FFF72A
:103CFC0067FF002008BD00BF0824002024240020FA
:103D0C004C240020142400201C240020B081E00F3F
:103D1C00182400200C2400201024002000E100E0D6
:103D2C00064B186AC0B20523C000B0FBF3F0044B7D
:103D3C001B68181A00F3070040B2704700300E40A1
:103D4C001024002010B5144C226B616A0A4010D567
:103D5C00124B1B681A682AB1002119605960FFF7D1
:103D6C00DFFF90474FF00043E362BDE81040FFF7E0
:103D7C0027BF5300F9D50A4B1B681A6832B10021D2
:103D8C0019605960FFF7CCFF01219047024B4FF0AF
:103D9C008042DA62E9E700BF00300E4018240020B0
:103DAC0014240020FFF7CEBF38B141B1013AB2F56F
:103DBC00006F044838BF0020704703487047014823
:103DCC00704700BF037000F0027000F00D490E4AFE
:103DDC000B7810B54BB9C2E90033C2E902330124A8
:103DEC000C7042F82300002010BD002352F8231061
:103DFC000029F6D08142F4D00133042BF6D10348CC
:103E0C00F2E700BF8424002074240020027000F02C
:103E1C0038B504460D4601F01CFFA28892B222B9B7
:103E2C002A6001F01CFF064838BD6388142202FB8F
:103E3C00034308332B6001F012FF0020F4E700BFAE
:103E4C000B7000F038B504460D4601F002FFA38854
:103E5C009BB223B92B6001F002FF0C4838BD63887C
:103E6C00E188142202FB034308332B6063885A1C3D
:103E7C0092FBF1F301FB13239BB26380A388013BFC
:103E8C009BB2A38001F0EBFE0020E7E70B7000F083
:103E9C007FB5012380F82C3090F8323093B90C4A5E
:103EAC00036803920022049002924A680192012254
:103EBC0000920A68016980681C33FFF749FA07B061
:103ECC005DF804FB012BEAD0002380F82C30F6E7D8
:103EDC002D4700007FB5012380F82D3090F832304B
:103EEC0083B9026834320D4B039300230490029380
:103EFC004B680193012300930B68C1684068FFF77E
:103F0C000DFA07E0012B02D102682832EBE70023FF
:103F1C0080F82D3007B05DF804FB00BF2D3F00008A
:103F2C00F7B5906A01A91446FFF772FF144B98423B
:103F3C0020D0019B00251D619D6001F08AFE019A35
:103F4C00D668074626B1D2E9002329462046B04759
:103F5C0001A9A06AFFF776FFA06A83889BB263B1C0
:103F6C0001A9FFF755FF01992046FFF7B3FF38462B
:103F7C0001F075FE012003B0F0BD84F82D30F6E79A
:103F8C000B7000F0427E30235343044A1A44437FA3
:103F9C0003EBC2039B001868C0B270471CA0104210
:103FAC0013B51D4A002352F82340617F81420ED085
:103FBC000133042BF7D102B010BD0028FBD19DF8C2
:103FCC000730002BF7D06068FFF7DCF9F3E794F8C3
:103FDC003130022BEFD12046FFF7D4FF637D2075E3
:103FEC00022BE8D194F82E3003F0FF02002BE2D123
:103FFC0002A9606801F8012DFFF724FA237D1BB19B
:10400C0094F82F30002BD8D0002384F82F30606820
:10401C00FFF7D8F9CFE700BF7424002090F83230B6
:10402C0053B903680122DA601A69D007FCD55A6FBC
:10403C0042F001025A677047012B0CD103685A6C8D
:10404C009107FCD401225A609A68D207FCD55A6DAC
:10405C0042F001025A65704790F832303BB9036860
:10406C005A6F22F001025A670222DA607047012B64
:10407C0009D103685A6C9207FCD45A6D22F00102E4
:10408C005A6502225A60704710B50446FFF710F9C2
:10409C000021201DFFF79AF8014608B1044810BD15
:1040AC0004F10800FFF792F80028F8D0F6E700BFFB
:1040BC000E7000F0F8B5044617460D4601F0C9FD28
:1040CC00A388E2889A42064605D800233B6001F09B
:1040DC00C6FD1648F8BD2388142202FB034308339F
:1040EC0005F1100C2A4603CA624518605960154642
:1040FC0003F10803F6D1106818602388E1881422B4
:10410C0002FB034308333B6023885A1C92FBF1F3F8
:10411C0001FB13239BB22380A38801339BB230464F
:10412C00A38001F09CFD0020D4E700BF0A7000F0D2
:10413C0073B504460D46C07DE67E002934D00123BC
:10414C000422314602F040FA01230222217F207E14
:10415C0002F03AFA94F83130022B16D100230122E6
:10416C00617F607E02F030FA00230422A07EA17FE2
:10417C0002F02AFA0123627F607E019300931146BC
:10418C0002F0D6F9002002B070BD032BFAD1002347
:10419C000122617F607E02F017FA00230422A17FC6
:1041AC00A07E02F011FAEDE70B460A46314602F00A
:1041BC000BFA2B462A46217F207E02F005FA94F852
:1041CC003130022B10D12B462A46617F607E02F0E3
:1041DC00FBF92B462A46A07EA17F02F0F5F9627FFF
:1041EC00607E01950123C9E7032BCBD12B462A46D0
:1041FC00617F607E02F0E8F92B462A46CFE790F803
:10420C00323013B9036818697047012B1CD103684D
:10421C009B6803F00200DA0748BF40F00100590721
:10422C0048BF40F008001A0748BF40F02000D906EC
:10423C0048BF40F040009A0648BF40F080005B0643
:10424C0003D540F400507047002070472DE9F3412E
:10425C000D460446002879D001F0FBFC012D0646E2
:10426C003BD1A36A9B889BB2002B3DD06068FFF7C3
:10427C00C9F80023A06A84F82D3083889BB273B1EF
:10428C0001A9FFF7C5FD01996068364F0831FFF7AA
:10429C0001F9019B1F61A06A83889BB253BB204626
:1042AC00FFF7ADFF8304FAD5023D012D10D8A068AD
:1042BC00FFF7A8F80023606A84F82C3083889BB23F
:1042CC003BBB94F83130032B02D02046FFF7C4FEE1
:1042DC00304601F0C4FC002009E0022D38D1636A9D
:1042EC009B889BB2002BDFD101F0B9FC1E4802B0B9
:1042FC00BDE8F08101A9FFF7A5FD019BD3F80C8067
:10430C00B8F1000FC7D09B68002239462046C04741
:10431C00C1E76946FFF77CFD0099A068114F083191
:10432C00FFF7B8F8009B1F61606A83889BB2002B73
:10433C00C7D06946FFF786FD009BDD68002DF3D0E2
:10434C009B68002239462046A847EDE70748CEE790
:10435C00032DA9D1A36A9B889BB2002B86D1636ADB
:10436C0080E700BF097000F0087000F0027000F0E8
:10437C00436A9888C0B270472DE9F3410546406AFC
:10438C0084889846A4B200230E461746CDE9003324
:10439C003CB16946FFF73CFD01A90446A868FFF74C
:1043AC0079F8009971B16CB94868019BC01A3860F2
:1043BC00C8F800300B6833602846FFF720FF02B0C6
:1043CC00BDE8F0810021C8F8001039603160F3E7D6
:1043DC00836A9888C0B270472DE9F3410546806A1C
:1043EC0084889846A4B200230E461746CDE90033C4
:1043FC003CB16946FFF70CFD01A904466868FFF75C
:10440C0049F8009971B16CB94868019BC01A3860C1
:10441C00C8F800300B6833602846FFF7F0FE02B096
:10442C00BDE8F0810021C8F8001039603160F3E775
:10443C00007D70472DE9F04104460E461746FFF704
:10444C00B3FC804650BB092001F028FC0546A26A4B
:10445C0093889BB213B194F82E3013B394F8322096
:10446C0022BB23681D6915F0020533D0012384F8A3
:10447C003030002A3FD13744BE42206836D1036920
:10448C009E06FCD555B994F83230002B42D12368E6
:10449C005A6F22F002025A670822DA604046BDE8E1
:1044AC00F081002DD4D0FFF717F8D0E7012A1BD1EB
:1044BC0023689D6815F00205D8D1596C8807FCD487
:1044CC000421596099688907FCD5596D41F00201A6
:1044DC005965CBE70421D96019698907FCD5596F57
:1044EC0041F002015967C1E70025BFE716F8011B2F
:1044FC0002F048FDC0E7012AD0D13744B74220680A
:10450C0003D183681907FCD5BCE716F8011B02F030
:10451C0034FBF3E7012BC1D123685A6C9207FCD40E
:10452C005A6D22F002025A6508225A60B6E7000062
:10453C0010B50446B0B190F82E3033B990F8313044
:10454C00022B0AD06068FEF71DFF94F82E30013361
:10455C00DBB284F82E30002010BDFFF713FD0028CD
:10456C00F3D1EFE70048F7E7027000F010B504460E
:10457C00D0B190F82E30CBB190F82E30012B06D163
:10458C0090F83130022B0AD06068FEF71BFF94F8CC
:10459C002E30013BDBB284F82E30002010BDFFF72B
:1045AC00F1FC0028F3D1EFE70148F7E70148F5E704
:1045BC00027000F0057000F037B590F83150022D04
:1045CC00044618D1A37F407D01229A40A37E30215E
:1045DC005943134B0B4410B903F1806303E00128DA
:1045EC0005D103F1C0631A60002003B030BD217DFA
:1045FC000029F6D1F0E7012DF6D1037D73B9112313
:10460C008DF80730FFF794FF2A460DF1070120467D
:10461C00FFF710FF2046FFF7A9FFE5E71323EFE7AD
:10462C000CA0004090F83130032B05D002294175C5
:10463C0018BF0175FFF7C0BF00487047057000F048
:10464C0010B5044600283AD00321FFF7FFFD0021E6
:10465C002046FFF7E7FF00212046FFF769FD94F89D
:10466C00323003BB23680A22DA600021206A00F092
:10467C0055FF94F83130032B03D00021607FFEF7F7
:10468C0087FF6068FEF7EEFDA068FEF7EBFDFEF716
:10469C00C9FD636A0020188058809880A36A18802E
:1046AC005880988010BD012BDFD1206802F051FAA0
:1046BC0023685A6C9207FCD40A225A60D5E7014849
:1046CC00F0E700BF027000F0F0B587B00446164664
:1046DC00FFF76AFB0546F0B9CDE9011604936A466B
:1046EC000E4B606A039601A90593FFF7E3FC0546A0
:1046FC0088B994F82C3073B92046FFF78FFC0099D9
:10470C002046FFF7C5FB94F83130032B03D02575F9
:10471C002046FFF751FF284607B0F0BD017000F0AE
:10472C0073B5506A01A91446FFF772FB334B9842DC
:10473C002FD094F83200019B002836D12268116CDE
:10474C0011F4007128D02E49196198604FF4007350
:10475C00936401F07EFA0199CD68064635B14A683A
:10476C008B682046D31A0A680969A84701A9606AB0
:10477C00FFF768FB606A8588ADB2002D2FD001A9C8
:10478C00FFF746FB01992046FFF782FB304601F00C
:10479C0066FA012002B070BD106CC5051BD5194816
:1047AC00186199604FF48073D2E7012813D1226805
:1047BC00D16A11F0800106D011491961002199606C
:1047CC0080235363C5E7D06A400604D50D481861B1
:1047DC0099604023F5E700221A619A60B9E701233A
:1047EC0023752046FFF7E8FE94F8313084F82C50FE
:1047FC00032BCBD02046FFF72FFCC7E70B7000F044
:10480C000D7000F00C7000F02DE9F041094F0446DA
:10481C000D460FCF88B001AE0FC697E8070086E8AB
:10482C000700002C00F0C48445B9034E304608B094
:10483C00BDE8F08174E20200037000F03422002124
:10484C00204627F043F92046FFF7C0FA0646002819
:10485C00ECD12B7C84F83130CD4A2B682360934209
:10486C0084F8320040F07F81CA4B2362CA4BE3606C
:10487C004FF440232361D5E906230026626216809B
:10488C005680968084F82C60A3621E805E809E8089
:10489C006B6803936B89ADF81430AB89ADF81230AB
:1048AC00AB7B8DF810300121EB7BBC4884F82D607C
:1048BC0084F82F6005278DF816308DF8117000F0F4
:1048CC002DFE0121B64800F029FE0121206A00F0DE
:1048DC0025FE01A928688DF8046002F015FBD5F8B7
:1048EC0000C06A7ADCF878002B7A20F4F85020F0BB
:1048FC001F00104340EA03200321CCF87800CCF8C9
:10490C0074102068DFF888C2604540F06281BB42B9
:10491C0040F27A81981F042840F27881A3F10B00B1
:10492C00B84240F27581A3F11100062808D9A3F111
:10493C001801062940F26E811F2B14BFFF21394646
:10494C00042AE17540F26881511F042940F2668106
:10495C00A2F10A01052940F26381A2F11001062996
:10496C0040F26081A2F11701072940F25D811F2AF4
:10497C0014BFFF2100212176002B58D0012B56D0DB
:10498C00022B54D0032B52D0042B50D0052B4ED0DD
:10499C00062B00F05381072B00F05281082B00F0FE
:1049AC005181092B00F050810A2B00F04F810B2B09
:1049BC0000F05A810C2B00F039810D2B00F038815E
:1049CC000E2B00F037810F2B00F03681102B00F0EE
:1049DC003581112B00F02E81122B00F02D81132B21
:1049EC0000F02C81142B00F02B81152B00F02A8168
:1049FC00162B00F02981172B00F02881182B00F0C2
:104A0C002781192B00F026811A2B00F025811B2BF6
:104A1C0000F024811C2B00F023811D2B00F022813F
:104A2C001E2B00F021811F2B0CBF0723FF23E376E5
:104A3C00002A00F0A983012A00F0A883022A00F0C2
:104A4C009183032A00F09083042A00F08F83052AB7
:104A5C0000F08E83062A00F08D83072A00F08C83E9
:104A6C00082A00F08B83092A00F08A830A2A00F0B6
:104A7C006F830B2A00F06E830C2A00F06D830D2AD5
:104A8C0000F06C830E2A00F06B830F2A00F0708309
:104A9C00102A00F06383112A00F06283122A00F0BE
:104AAC006783132A00F06683142A00F06583152AA5
:104ABC0000F06483162A00F06383172A00F06283E7
:104ACC00182A00F06183192A00F060831A2A00F07A
:104ADC0049831B2A00F048831C2A00F047831D2AB7
:104AEC0000F036831E2A00F035831F2A14BFFF23E3
:104AFC00002323776B7C6376AB7C6377EB7CA376AC
:104B0C002B7DA37701212046FFF712FB06460028D8
:104B1C007FF48CAE01F09DF82F7C032F804640F083
:104B2C0037832B682A8CDA675A6E42F004025A6675
:104B3C005A6F42F030025A6728684FF0FF33836493
:104B4C002B7C032B0CBF0521042102F0A3F92B684D
:104B5C004FF44062DA602046FFF796FA064640466C
:104B6C0001F07DF862E60F4A934206D10E4B2362A8
:104B7C000E4BE3604FF450237CE60D4A93421DD15B
:104B8C000C4B23620C4BE3604FF4602372E600BFC6
:104B9C00000001400042040001000C0040410500EF
:104BAC0000350A00000401400052040001000D0011
:104BBC00000801400062040001000E00C54A934247
:104BCC007FF433AEC44B2362C44BE3604FF47023C9
:104BDC0050E6DFF80CC3604548D1052B14D9981F5B
:104BEC00042813D9A3F10B00052811D9A3F1110046
:104BFC0006287FF6A5AEA3F1180106290AD91F2BAA
:104C0C0014BFFF2105219BE6314699E6012197E669
:104C1C00022195E6394693E60021ACE60121AAE68D
:104C2C000221A8E60321A6E60521A4E60723FEE659
:104C3C000823FCE60923FAE60A23F8E60B23F6E63A
:104C4C000C23F4E60D23F2E60E23F0E60F23EEE63A
:104C5C000023ECE60123EAE60223E8E60323E6E67A
:104C6C000423E4E60523E2E60623E0E6DFF874C25B
:104C7C00604540F03981042B40F2F880591F03291C
:104C8C0040F2F680A3F10901042940F2F380A3F16C
:104C9C000E010E2940F2F080A3F11D01012940F212
:104CAC00ED801F2B14BFFF210A21032AE17540F26E
:104CBC00E780111F032940F2E580A2F108010429C5
:104CCC0040F2E280A2F10D010E2940F2DF80A2F148
:104CDC001C01022940F2DC801F2A14BFFF21002195
:104CEC002176002B00F0DC80012B00F0DB80022B06
:104CFC0000F0DA80032B00F0D980042B00F0D88070
:104D0C00052B00F0E380062B00F0E280072B00F06F
:104D1C00C180082B00F0C080092B00F0C3800A2B47
:104D2C0000F0C2800B2B00F0C1800C2B00F0C08077
:104D3C000D2B00F0BF800E2B00F0C8800F2B00F065
:104D4C00C780102B00F0A880112B00F0A780122B2D
:104D5C0000F0A680132B00F0A580142B00F0A4808B
:104D6C00152B00F0A380162B00F0A280172B00F05F
:104D7C00A180182B00F0A080192B00F09F801A2B1B
:104D8C0000F09E801B2B00F09D801C2B00F09C8063
:104D9C001D2B00F09B801E2B00F09A801F2B0CBF4C
:104DAC000223FF23E376002A00F0D281012A00F0CF
:104DBC00D181022A00F0D081032A00F0CF81042A8D
:104DCC0000F0E081052A00F0DF81062A00F0DE8188
:104DDC00072A00F0C781082A00F0BA81092A00F0DE
:104DEC00B9810A2A00F0B8810B2A00F0B7810C2A8D
:104DFC0000F0B6810D2A00F0C5810E2A00F0C481A6
:104E0C000F2A00F0AF81102A00F0AE81112A00F0B9
:104E1C00AD81122A00F09C81132A00F09B81142A88
:104E2C0000F09A81152A00F09981162A00F09881D9
:104E3C00172A00F09D81182A00F09C81192A00F095
:104E4C009B811A2A00F09A811B2A00F099811C2A56
:104E5C0000F098811D2A00F097811E2A00F096819F
:104E6C001F2A08BF052318BFFF2342E631461CE763
:104E7C0008211AE7012118E7394616E70A2114E739
:104E8C0000212DE708212BE7012129E7052127E740
:104E9C000A2125E7022385E7032383E7042381E71F
:104EAC0005237FE706237DE707237BE7082379E7C4
:104EBC00092377E70A2375E70B2373E70C2371E7C4
:104ECC000D236FE70E236DE70F236BE7002369E7D4
:104EDC00012367E7000C01400072040001000F0081
:104EEC000004014000080140B34EB0427FF49DAC79
:104EFC00072B21D9A3F10801012940F2EF80A3F17E
:104F0C000A01052940F2EC80A3F11001012940F2BD
:104F1C00E980A3F11201052940F2E680A3F1180102
:104F2C00042940F2E380A3F11D01012940F2E08045
:104F3C001F2B14BFFF210A21062AE17540F2DA80EB
:104F4C00D11F012940F2D880A2F10901052940F2B4
:104F5C00D580A2F10F01012940F2D280A2F11101FA
:104F6C00052940F2CF80A2F11701042940F2CC8030
:104F7C00A2F11C01022940F2C9801F2A14BFFF2193
:104F8C0003212176002B00F0C780012B00F0C68096
:104F9C00022B00F0C580032B00F0CC80042B00F01A
:104FAC00CB80052B00F0CA80062B00F0C980072BA4
:104FBC0000F0C880082B00F0B580092B00F0B480FD
:104FCC000A2B00F0A5800B2B00F0A4800C2B00F01A
:104FDC00A3800D2B00F0A2800E2B00F0A1800F2BD4
:104FEC0000F0A880102B00F0AB80112B00F0AA80F1
:104FFC00122B00F0A980132B00F0A880142B00F0CA
:10500C009180152B00F09080162B00F08F80172BC1
:10501C0000F08E80182B00F08D80192B00F08C8006
:10502C001A2B00F08B801B2B00F08A801C2B00F0BD
:10503C0089801D2B00F088801E2B00F087801F2B91
:10504C000CBF0223FF23E376002A00F08780012A9D
:10505C0000F08680022A00F08B80032A00F08A8000
:10506C00042A00F08980052A00F08880062A00F0C6
:10507C008780072A00F08A80082A73D0092A67D013
:10508C000A2A67D00B2A67D00C2A67D00D2A67D062
:10509C000E2A6DD00F2A71D0102A71D0112A71D01E
:1050AC00122A71D0132A71D0142A5BD0152A5BD026
:1050BC00162A5BD0172A5BD0182A5BD0192A5BD032
:1050CC001A2A5BD01B2A5BD01C2A5BD01D2A5BD012
:1050DC001E2A5BD01F2A08BF0823C4E608212BE731
:1050EC00012129E7092127E7022125E7052123E7EB
:1050FC000A2121E7032144E7082142E7012140E787
:10510C0009213EE702213CE705213AE70A2138E76D
:10511C00062398E7072396E7082394E7092392E7E9
:10512C000A2390E702238EE703238CE704238AE704
:10513C00052388E70B2386E70C2384E70D2382E7FE
:10514C000E2380E70F237EE700237CE701237AE719
:10515C000623CEE40723CCE40823CAE40923C8E4DD
:10516C000A23C6E40323C4E40423C2E40523C0E4F5
:10517C000B23BEE40C23BCE40D23BAE40E23B8E4E9
:10518C000F23B6E40023B4E40123B2E40223B0E419
:10519C00022F7FF4D1AC607F0849FEF7F9F9FEF7D6
:1051AC00E9F9A675267567752046FFF705FAC3E47D
:1051BC00034EFFF73BBB00BF000C0140AD3F0000AE
:1051CC00027000F090F83120012A10B5034610D17E
:1051DC0002290ED0827D8A4201D1002010BD997522
:1051EC0011B9FFF7C3F9F8E70129F6D1FFF7A0F9D8
:1051FC00F3E70148F2E700BF057000F0F0B587B0A7
:10520C0004461646FEF7D0FD054600BBCDE9011657
:10521C0004936A460F4BA06A039601A90593FEF707
:10522C0049FF054698B994F82D3083B900F011FD6B
:10523C00A36A9B889BB2064633B100992046FEF7C1
:10524C0049FE012384F83030304600F008FD284632
:10525C0007B0F0BD017000F070B588B00D220021D0
:10526C00294C2A4E04A826F031FC002502230121EA
:10527C0027488DF81010CDE9015503958DF80A30AB
:10528C0000F04CF9294601AA204601F09AFD4FF690
:10529C00FF73E3618DF81250354604A9204601F0E6
:1052AC003DFD1C4800F01AFA9DF81230D84001332D
:1052BC00DBB20A2B30608DF8123002D8164B9842B4
:1052CC00EBD81648164C00F009FA1649B1FBF0F170
:1052DC002868154A0025E1FB004500232046294695
:1052EC0026F022FA114B084A1860114B0020187056
:1052FC00936923F0100393610E4B4FF40062C3F8D3
:10530C0080211A6008B070BD008001408824002004
:10531C00000204004041050080841E007000020061
:10532C0020A1070000B0710B40420F008C2400201C
:10533C009024002000E100E01E4BF7B519681E4CCC
:10534C001E4A1F4E0025E0FB01452046294600233E
:10535C0026F0EAF9DFF86CC04FF6E85400254FF65A
:10536C00E75E4FF0FF378D4208BF844211D380B205
:10537C0060B1144A516A89B2536A9BB2ADF80630D7
:10538C00BDF806305B1A9BB29842F5D8002003B0EA
:10539C00F0BDDCF8242092B2DCF824309BB2ADF8DE
:1053AC000430BDF804309B1A9BB27345F4D98019B4
:1053BC007941D8E78824002020A1070040420F0043
:1053CC001802FFFF00800140044BDA68D20604D5B6
:1053DC0010225A61024B01221A7070470080014062
:1053EC00902400200C4B984210D90C4B984210D9A9
:1053FC00022201230A490B600A49D1F8003123F03B
:10540C00807343EA0263C1F80031704700221346EF
:10541C00F0E70122FBE700BF0048E8010090D00351
:10542C004000C84300400E400E4B30B50E4C5B683C
:10543C00C9B2002304EBC30215798D4203D154F891
:10544C00335085420BD20133052BF3D1032205498E
:10545C004B6823F0407343EA02634B6030BD5279D2
:10546C00F5E700BF00000E40A0E2020038B5074C83
:10547C0041F67133256C236401F0FAFD0021FFF72E
:10548C00D3FF0DB10023236438BD00BF00000E40D4
:10549C00044BD3F84421D20703D4D3F84021104253
:1054AC00FBD1704700400E400C4AD2F89030516A44
:1054BC000B4B21F0300141F0100110B55162146B0F
:1054CC00C0F3C31103310F2903EA040328BF0F21D2
:1054DC00034343EA0173136310BD00BF00400E4049
:1054EC0000F8FF0F044A1368002BFCD1034B5868DB
:1054FC00C0F30140704700BFC800C64300300E40E7
:10550C0038B5054C41F67133256C2364FFF78CFFDD
:10551C000DB10023236438BD00000E40C0F30322FC
:10552C00013A38B50546092A13D8DFE802F02313EF
:10553C001212051619121C20104C0020C5F304354C
:10554C0008B1FFF7A5FF04F1047405EBC404A40033
:10555C00216038BD00200A4CF0E70120094CEDE732
:10556C001020094CEAE74FF48030084CE6E70020A5
:10557C00074CE3E70020074CE0E700BFB0400E40CB
:10558C00C0400E40E0400E40E8400E40F0400E405F
:10559C0050410E4000400E4000F00F00013807282B
:1055AC0048D8DFE800F0040F1947232D4735244B6A
:1055BC00D3F8943003F00703023B052B3CD8214A67
:1055CC00D05C70471E4BD3F8803003F00703013BCF
:1055DC00032B33D81C4AF3E7194BD3F8843003F070
:1055EC000703013B032B29D8184AE9E7144BD3F8DE
:1055FC00883003F00703013B032B1FD8144ADFE765
:10560C000F4B1B6F13F0010F14BF092007207047BD
:10561C000B4BD3F85C3103F03003202B06D0302B2E
:10562C0006D0102B0CBF07200120704704207047B8
:10563C0008207047002070470520704701207047F4
:10564C0000400E4090E2020096E202009AE2020054
:10565C0096E2020008B50146FFF79EFF1B4B9942EC
:10566C0011D01B4B994212D01A4B994204D11A4BB0
:10567C00D3F8800000F007000138032824D8DFE8B5
:10568C0000F00A0E1612144BD3F88400F2E7124BFA
:10569C00D3F88800EEE7BDE8084001F047BDBDE84F
:1056AC00084001F049BDBDE8084001F042BD01F0E1
:1056BC0007FD094BD3F80031C3F300635A1C0123D7
:1056CC009340B0FBF3F008BD0020FCE70300200082
:1056DC000500240002001E0000400E4000F478106B
:1056EC00B0F5A01F08B56CD021D8B0F5202F07D08D
:1056FC000AD8B0F5003F59D0B0F5802F4BD0A8BBDD
:10570C00BDE8084001F0B8BCB0F5602F00F0838014
:10571C00B0F5801F00F08780B0F5402F26D101F046
:10572C00ABFC474BD3F81431C3F304233AE0B0F588
:10573C00001F59D013D8B0F5D01F57D0B0F5F01FBB
:10574C003AD0B0F5B01F11D13E48FFF783FF3C4B68
:10575C00D3F8202102F00F020123934023E0B0F58F
:10576C00381F38D004D8B0F5101F52D0002008BD17
:10577C00B0F5401F43D0B0F5481FF7D13248FFF7C2
:10578C000BFF07284FD0082850D00428EED1BDE8D5
:10579C00084001F0A7BC01F06FFC294BD3F80C3189
:1057AC00C3F308230133B0FBF3F0E0E701F064FC32
:1057BC00234BD3F80831F3E72248BDE80840FFF744
:1057CC0049BF2248FFF746FF1D4BD3F8303103F099
:1057DC000303D840CBE71B48FFF73CFF184BD3F82B
:1057EC002031C3F30113F4E71948E6E71848FFF733
:1057FC0031FF134BD3F82821C2F30112ACE7144844
:10580C00FFF728FF0E4BD3F82831C3F301231A1DE1
:10581C00A2E70E48D1E70F48FFF7BEFE072802D0DB
:10582C000928A3D16CE70C4B1868A0E701F024FC05
:10583C00034BD3F80031C3F3042303FB000096E7BA
:10584C0000400E4002001E00B8003200050024008B
:10585C000300200006000E00D41B00200E4B5A6AD9
:10586C0012F0300F04D0202913D0302900D011B9F8
:10587C004FF4400200E0094AD3F8901032EA0101DB
:10588C00FAD1520246BFD3F8A000C0F38020012009
:10589C0070474FF40002EFE700400E40FF33E10782
:1058AC0002280AD129B1064B4FF48060C3F8A80036
:1058BC00596612B10220FFF7D1BF0120704700BF1B
:1058CC0000400E40F8B5042850D8DFE800F00A0379
:1058DC00116F74008026402406230725002951D01F
:1058EC0048E04FF400764FF4807408230925F5E75F
:1058FC00002944D0324C636A13F0300F37D1314B4E
:10590C00DB6B636ADB0705D5636A23F0300343F076
:10591C0010036362042402230325294E34662A4EA5
:10592C0033449B001F68002FFCD0FAB13544AD0006
:10593C002B68002BFCD0022818D1B9B1204E716A0B
:10594C0011F0010118D001222021FFF7A9FFD6F890
:10595C009C70012200210220FFF7B4FFC7F30A005C
:10596C00FFF7A2FD34662B68002BFCD0F8BD042495
:10597C00022303250021D0E7FFF770FFE7E7082695
:10598C00022303250E4901200E6600FA03F3D1F819
:10599C0090001842FBD1002AE8D00123084A03FAF0
:1059AC0005F5D2F890302B42FBD1DFE7012402261B
:1059BC000023254692E720261024042305258DE795
:1059CC0000400E4000300E408004F210112870B5DB
:1059DC0006460C4626D1042912D101F083FB05465C
:1059EC00A8B10021284600F055FB06F00F06013E39
:1059FC00072E72D8DFE806F023186D716B8B719649
:105A0C00052904D1624B1D68624B9D42E9D8023CCA
:105A1C000A2C62D8DFE804F01E51434A61616161CF
:105A2C006155B7000025E0E75B4D013C092C54D8CB
:105A3C00DFE804F06B545B53536253535351023CF5
:105A4C000A2C4AD8DFE804F0073A2C334949494973
:105A5C00493E410000250020042401221146FFF795
:105A6C0031FFFFF703FD1DB14C4A1368002BFCD12D
:105A7C004B4B4C485C67FFF731FEFFF7B3FC01F072
:105A8C001FFB0446FFF72EFD01462046FFF738FDAD
:105A9C001DBB28460121BDE8704000F0FBBA002573
:105AAC004148FFF79FFC02200446D6E700253E48FC
:105ABC00FFF798FC01240320CFE7002501200324E5
:105ACC00CBE7002503200524C7E70724C9E7374D9A
:105ADC00ABE7374DA9E704232B6070BD01221146BB
:105AEC000020FFF7EFFE0223F6E7012211461046D5
:105AFC00FFF7E8FE0123EFE701F0E2FAFFF772FC93
:105B0C002C4B01221A600323E6E70023E4E7072C61
:105B1C0004D0092CE1D1224B012201E0204B0022C0
:105B2C001A67DAE7013C072CD7D801A353F824F005
:105B3C008F5B0000E75A0000E75A0000815B000011
:105B4C00E75A0000E75A0000735B00005D5B000041
:105B5C0003221349D1F85C3123F0300343EA0213DA
:105B6C00C1F85C31B9E7012211460420FFF7AAFE07
:105B7C000122EEE7012211460220FFF7A3FE0222CA
:105B8C00E7E70022E5E7FFF771FC002507246FE744
:105B9C00E01B0020002D310180400E40C800C643A0
:105BAC0000400E4000250A000148E80188400E40E4
:105BBC0084400E400816C84310B504461120FFF768
:105BCC00EBFC012200210220FFF77CFE174A217C0E
:105BDC00536A23F00103022908BF43F00103536207
:105BEC00134B21781960637AA18843EAC123D362ED
:105BFC00136BA07A217A03F07F630343E08843EAB6
:105C0C00C02343EAC11303310F2928BF0F2143EAF4
:105C1C0001731363A37B617B1B0143EA0133E17BBB
