:10000000C01A002051E001003D4A0000414A0000B2
:10001000A70A02020002000004180FAC0067950056
:1000200000000000000000000000000000000000D0
:1000300000000000A08D0300000000000000000090
:100040000000000000000000FFFFFFFFFFFFFFFFB8
:10005000FFFFFFFFFFFFFFFFFFFFFFFFFFFFFFFFB0
:1000600000E00F000000000000000000FFFFFFFFA5
:10007000FFFFFFFF1C000000000000000000000068
:100080000000000000000000944200209442002084
:10009000C01A002064E60300D05B0300601100205A
:0C00A000241100200000100000000000EF
:10020000C01A002051E001003D4A0000414A0000B0
:10021000FDB20000454A00004D4A00004DE00100DB
:100220004DE001004DE001004DE001004DE0010016
:10023000514A00004DE001004DE001004DE0010099
:100240005D63000019C80100314D0000C44A000080
:10025000F1BF010085C8010025C801003DC80100AB
:100260001DC80100915A0000655B00008179000003
:10027000A9F80000C44A0000C44A00008927000011
:10028000C44A0000C44A0000895B0000C44A000060
:10029000C44A0000C44A0000C44A0000C44A000026
:1002A000C44A0000C44A0000C44A0000C44A000016
:1002B00089C8010021C8010025610000C9C80100EA
:1002C000C44A000075AE0100C44A0000C44A0000E0
:1002D000C44A0000C44A0000C44A0000C44A0000E6
:1002E000C44A0000C44A0000C44A0000C44A0000D6
:1002F000C44A0000C44A0000C44A0000C44A0000C6
:0C030000C44A0000C44A00004DE00100A7
:10030C00F8B500BFF8BC08BC9E467047F8B500BFF6
:10031C00F8BC08BC9E46704710B5054C237833B921
:10032C00044B13B10448AFF300800123237010BDBC
:10033C005C21002000000000C0DF030008B5034B67
:10034C001BB103490348AFF3008008BD0000000057
:10035C0060210020C0DF0300154B002B08BF134B9E
:10036C009D46A3F5803A00218B460F461348144A4C
:10037C00121A35F014FC0F4B002B00D098470E4B83
:10038C00002B00D098470020002104000D000D48E0
:10039C00002802D00C48AFF3008035F0D1FB2000D0
:1003AC0029000FF0FFFC35F0B7FB00BF0000080080
:1003BC00C01A002000000000000000005C2100209A
:1003CC009442002000000000000000001FB5012333
:1003DC00009300220DF10F03062111F0B5FF20B997
:1003EC009DF80F3023B104F085FB05B05DF804FBDC
:1003FC0004F092FBF9E7000030B5154D85B00024F0
:10040C002C7010F027FC022817D100900DF10E0370
:10041C0022460321012011F097FFBDF80E0048B1D0
:10042C00204604F08BFB4FF47A61284624F032FE10
:10043C0005B030BD04F05EFBFAE70DF02BF8054B70
:10044C000090054A0549012013F0CCF9F0E700BFF4
:10045C0028300020A87803001C5C0300215C0300FA
:10046C0008B510F0F7FB02280CD1074B0022012035
:10047C001A7009F057F905490246BDE808400120F9
:10048C0013F0B0B908BD00BF20300020805C030021
:10049C00912808B504D1002004F03EFB002008BDD3
:1004AC009028FBD1002004F025FB024824F0E6FD47
:1004BC00F4E700BF20300020014824F0DFBD00BF6E
:1004CC002830002013B50E4B009004460D4A0E49FF
:1004DC00012013F087F98CB116F006F9024618B119
:1004EC000A49012013F07EF900200CF0F9F9084BB1
:1004FC000090084A0449012013F074F902B010BDB1
:10050C00465C03001C5C0300215C03004F5C030091
:10051C00A87803007B5C030007B500230093044A12
:10052C00044B0549012013F05DF903B05DF804FBA1
:10053C00355C0300465C0300215C0300FFF746BFFB
:10054C0009B9FFF743BF704711B9024824F096BDB3
:10055C00704700BF2030002038B5C37B05460BB177
:10056C00832038BDC47C2CB902F060F920B9EB7B38
:10057C00002BF5D18120F4E72046F2E7C37B10B5C0
:10058C0004460BB1832010BDC37C012B13D003D3C5
:10059C00402B13D08120F6E7017D82898B1C9A4277
:1005AC0018D3806812F07EFC0AF01CFFA0B9E37B24
:1005BC00002BE7D1EEE70AF02DFFF7E7037D8189E9
:1005CC009A1C914206D38268591CD05C515C16F07F
:1005DC0077FAEBE78020D6E70020D4E7F8B5C37BA9
:1005EC0004460BB18320F8BDC37C052B29D8DFE86A
:1005FC0003F0032A35414C4F057D8289AB1C9A428E
:10060C0001D28020EFE7ADB22946806812F04AFC97
:10061C000646A068A7890235284412F05BFC2844E2
:10062C0001308742EDD32946A289A06812F040FC24
:10063C00014630460AF072FB002848D1E37B002BC0
:10064C00D0D18120CFE7017D82898B1C9A42D8D3EF
:10065C00806812F027FC0AF081FBEDE7037D8189AD
:10066C005A1C9142CDD38268591C1144D05C0AF0BB
:10067C00A5FBE1E7017D82898B1C9A42C1D380687E
:10068C0012F010FC0AF01CFCD6E70AF075FCD3E75C
:10069C00057D8289AB1C9A42B3D3ADB229468068E2
:1006AC0012F000FC0646A068A7890235284412F017
:1006BC0011FC284401308742A3D32946A289A068A3
:1006CC0012F0F6FB014630460AF09EFCB4E700201F
:1006DC0089E7C37B2DE9F7430446002B40F03E81AC
:1006EC00C37C042B00F0B7800BD8012B00F0888062
:1006FC003FD3022B00F09480032B00F0A1808120CB
:10070C003DE0402B00F0DA800FD8052B00F0B380D1
:10071C00062BF4D1017D82898B1C9A422ED38068E2
:10072C0012F0C0FB0EF0FCF861E0412B00F00581EB
:10073C00422BE4D1037D8289D91D8A421ED39DB2FE
:10074C008068691CC65C12F0ADFBEB1C0746A06808
:10075C00A28910F80380291D12F0A4FB0635A368AA
:10076C005B5D0093424603463946304616F090FCDA
:10077C003DE0057D8289AB1C9A4203D2802003B0F8
:10078C00BDE8F083ADB22946806812F08BFBA289DC
:10079C00E91C8A42064605F10203EFD3881C82420B
:1007AC00ECD3A068C75C12F07DFB8046A068B4F85F
:1007BC000C900535284412F08DFB284401308145FE
:1007CC00DCD32946A289A06812F072FB8146A0688E
:1007DC00284412F07FFB01300544A06810FA85F51F
:1007EC0000954B464246394630460EF0B1FC002887
:1007FC0040F0B680E37B002B14BF83208120BEE742
:10080C00057D8289EB1C9A42B8D3ADB2294680682B
:10081C0012F048FB0235A368595D0EF07FFDE6E748
:10082C00057D8289EB1C9A42A8D3ADB2294680681B
:10083C0012F038FB0235A368595D0DF09BFFD6E72B
:10084C00017D82898B1C9A4298D3806812F02AFB16
:10085C000DF0FEFFCBE7057D8289EB1C9A428DD310
:10086C00ADB22946806812F01DFB0235A368595DB4
:10087C000EF0A2F9BBE7057D8289AB1C9A42FFF40E
:10088C007DAFADB22946806812F00CFBA289E91C41
:10089C008A42064605F10203FFF470AFA068C75CFC
:1008AC008B1C9A4207D312F0FDFA024639463046A9
:1008BC000EF05AFA9BE74FF6FF72F7E7057D828937
:1008CC00AB1C9A42FFF45AAFADB22946806812F0C5
:1008DC00E9FAA289E91C8A42064605F10203FFF4F3
:1008EC004DAF881C8242FFF449AFA068C75C12F080
:1008FC00D9FA8046A068B4F80C900535284412F05B
:10090C00E9FA284401308145FFF438AFA289A06888
:10091C00294612F0CDFA8146A068284412F0DAFA82
:10092C0001300544A06810FA85F500954B46424607
:10093C003946304616F094FB59E7057D8289EB1C4D
:10094C009A42FFF41BAFADB22946806812F0AAFAA6
:10095C000235A368595D16F093FB48E783200EE738
:10096C0000200CE7F8B5C37B04460BB18320F8BD1F
:10097C00C37C022B21D004D8ABB1012B1AD081201F
:10098C00F5E7412B1CD0422B1DD0402BF7D1037D1A
:10099C0081899A1C91422DD38268591CD05C515C80
:1009AC0016F0D8F901E00CF0B1FE28BBE37B002B6C
:1009BC00E5D0DBE70CF0C4FEF7E70CF0DBFEF4E768
:1009CC0016F00EFAF1E7037D8289591D8A4211D384
:1009DC009DB28068691CC65C12F064FAA289074655
:1009EC00E91CA06812F05EFA39460246304616F051
:1009FC0037FADAE78020BAE70020B8E7C37BF7B50F
:100A0C000446002B40F0D180C37C072B00F2CF8032
:100A1C00DFE813F008003700590085009A00A900A0
:100A2C00B500C800037D8289591C8A42C0F0C18080
:100A3C009DB2691C881C8242C0F0BB80A068C75C58
:100A4C0012F030FAEB1CA6895A1C964222BFA268FF
:100A5C00D25C2B1D014603F1010038BFFF228642F8
:100A6C002ABFA068FF23C35C38460BF099FA002814
:100A7C0040F0A180E37B002B14BF8320812003B0C6
:100A8C00F0BD067D8589731C9D42C0F09280B7B283
:100A9C00BA1C954207F10103C0F08B808068C15CE1
:100AAC0013460132954224BFC25CFB1C03F10107C3
:100ABC0038BFFF22BD4228BFC35C805D38BFFF2317
:100ACC000BF08BFAD3E7037D8289591C8A4270D3D1
:100ADC009DB2A91C8A4205F101076AD3881C824287
:100AEC0067D3A068C65CC75D12F0DCF9291DB4F8A9
:100AFC000CC04B1C9C4522BFA3685B5C691D024665
:100B0C0001F1010038BFFF2384452ABFA068FF21F3
:100B1C00415C0091304639460BF077FAA7E7027D2D
:100B2C008189501C814293B222BFA0680133805C42
:100B3C0003F1010238BFFF2091422ABFA268FF21B6
:100B4C00D15C0BF07EFA92E7017D8289CB1C9A4234
:100B5C002FD38068455C013112F0A4F90146284678
:100B6C000BF02CFA83E7037D81899A1C914220D3E8
:100B7C008268591CD05C515C0BF03BFA77E7037D23
:100B8C008289191D8A4214D3806899B2C55C4B1CAA
:100B9C000231C65C12F086F93146024628460BF04B
:100BAC0042FA64E70BF055FA61E7832067E781208E
:100BBC0065E7802063E7002061E72DE9F04FC37BF8
:100BCC008FB004461BB183200FB0BDE8F08FC37CFF
:100BDC000B2B4DD8DFE813F00C00550030014C0006
:100BEC004C004C0057014C004C004C00C301D70189
:100BFC00037D8289581C824224BFA06810F80380B0
:100C0C0099B234BF4FF0FF08013118F0070509D134
:100C1C000F1DBA422FD3A06812F03EF9B9B20646A6
:100C2C00FF2711E0022D25D101F108039A42C0F0F3
:100C3C00DF81A5680D4499B24B1C9A421BD3A26864
:100C4C004FF0FF36575C99B2A2890B1D9A4215D30F
:100C5C00A06812F021F900903B462A4631464046E6
:100C6C0008F0EAFF002840F0C181E37B002BAAD1F9
:100C7C008120A9E700254FF0FF36D1E74FF0FF3078
:100C8C00E9E7037D82899DB203339A4218D3294642
:100C9C00806812F004F90335064616F0070712D1E6
:100CAC00A28905F104084245C0F0AD802946A06830
:100CBC0012F0F2F81FFA88F583464FF0FF0A18E09D
:100CCC004FF0FF36E9E7022F40F09C80A28905F136
:100CDC0008039A42C0F08E81A7682F449DB26B1C0A
:100CEC009A42C0F09080A2684FF0FF3B12F805A02A
:100CFC009DB216F0100340F0898016F0600903D005
:100D0C00B9F1600F40F07B81A28905F108039A428A
:100D1C00C0F07281A168294409919DB2B9F1000F0C
:100D2C0003D0B9F1600F40F06B81AB1C9A42C0F05C
:100D3C006C812946A0680A9312F0B4F80A9B80468D
:100D4C009DB2B9F1200F02D0B9F1400F62D1A28946
:100D5C00AB1C9A420A935DD32946A06812F0A2F804
:100D6C000A9B81469DB206F01803082B55D1A28927
:100D7C006B1C9A4251D3A268525D0A929DB27104C7
:100D8C004ED5A2892B1D9A424AD32946A0680C93B2
:100D9C0012F082F80C9B0B909DB216F4004344D0D9
:100DAC00A28905F110039A423ED3A2682A440C9200
:100DBC009DB2F2033BD5A289AB1C9A4237D329468C
:100DCC00A0680D9312F06EF80D9B9DB2B30331D554
:100DDC00A2896B1C9A422DD3A3685B5DCDF804806D
:100DEC00CDE906030C9B05930B9B04930A9BCDE961
:100DFC000293099B00933A4653465946304608F0F5
:100E0C001DFF2FE700274FF0FF3B56E700234FF65F
:100E1C00FF7809934FF6FF79A5E7FF230A93AEE716
:100E2C004FF0FF330B93B8E700230C93C1E74FF659
:100E3C00FF70CBE7FF23D1E7017D8289481C8242FA
:100E4C0024BFA068455C8BB234BFFF250133A907D2
:100E5C0014D59E1CB24211D31946A06812F022F888
:100E6C00B3B20146EA060CD5A0895A1C904208D3AD
:100E7C00A268D25C284608F09BFEF3E64FF6FF71A1
:100E8C00F0E7FF22F6E7037D82898068591C8A42CD
:100E9C009DB228BF013505F102062CBF10F8038066
:100EAC004FF0FF08B24233D3294611F0FBFFB5B225
:100EBC008146A289A0686B1C9A422ABF10F805A033
:100ECC004FF0FF0A9DB218F0070624D105F1040B70
:100EDC005A4530D3294611F0DFFF1FFA8BF5074630
:100EEC004FF0FF0BA289A0680A92691C8A4223BFAB
:100EFC00435D09938DB2FF23284438BF099311F049
:100F0C00E9FF0A9A28440130824217D280205BE61E
:100F1C004FF6FF79CDE7022E0CD105F108039A426A
:100F2C0071D346199DB210F805B00135ADB24FF032
:100F3C00FF37D7E700264FF0FF37D1E7A289A0682B
:100F4C00294611F0B5FF099B0390CDE901B300963A
:100F5C003B4652464946404608F006FF82E6007D75
:100F6C00A289031D9A42D1D386B2A568F31CB21C88
:100F7C00711C0436EB5CAA5C695C285C35440095FA
:100F8C0008F0B0FF6EE6037D8289591C8A42BDD3FE
:100F9C008068C65C9FB216F01F0507F1010104D1F1
:100FAC0011F07AFF791D002206E0022D1BD14218A8
:100FBC0007F109014FF0FF3006F00703022B01BFC8
:100FCC00A3684D1C5B5CA9B206F0180518BFFF2383
:100FDC00082D0ABFA568FF256D5C009501463046BB
:100FEC0009F06EF83EE64FF0FF30DCE70020EBE551
:100FFC00002521E6002772E6002309938EE609936B
:10100C004FF6FF789DE600268DE7B9F1200F4FF6DD
:10101C00FF787FF499AEFDE62DE9F043C37B85B0F4
:10102C000446002B40F0A482C37C062B00F05C81AC
:10103C003AD8022B00F0EB8007D8002B00F08F8001
:10104C00012B00F0C48081208FE0042B067D858964
:10105C0000F02A8140F20481731C9D42C0F0848010
:10106C00B7B207F1010C0CF101039D427CD3FA1CC1
:10107C00954207F1020377D38068F91CC25C4B1CC4
:10108C009D4224BF435C391D01F1010738BFFF238A
:10109C00BD4228BF455C10F80C10805D38BFFF25A1
:1010AC00009502F05DF989E00A2B00F0AA8139D88D
:1010BC00082B017D828900F07B8140F244818B1CDE
:1010CC009A4251D38DB22946806811F0EBFEA91CCF
:1010DC00A2898B1C9A42074646D3A06811F0E2FE07
:1010EC00291DA2898B1C9A4280463DD3A06811F021
:1010FC00D9FEA91DA6894B1C9E4222BFA3685B5C2E
:10110C00E91D024601F1010038BFFF2386422ABFC8
:10111C00A068FF21415C009138B20FFA88F102F00F
:10112C0037FA4BE04B2B00F097814C2B00F0D4811D
:10113C00472B88D1027D8189501C814293B222BFFA
:10114C00A0680133805C03F1010238BFFF2091429B
:10115C002ABFA268FF21D15C02F0BCFB2EE0037D0C
:10116C008289591C8A4203D2802005B0BDE8F083E5
:10117C009DB2A91C8A4205F10107F5D3881C824255
:10118C00F2D3A068C65CC75D11F08CFE291DB4F8C3
:10119C000CC04B1C9C4522BFA3685B5C691D0246BE
:1011AC0001F1010038BFFF2384452ABFA068FF214D
:1011BC00415C00913046394601F0C4FF002840F0F4
:1011CC00D981E37B002B14BF83208120CDE7067DE2
:1011DC008589731C9D42C7D3B7B2BA1C954207F1DF
:1011EC000103C1D38068C15C13460132954224BF10
:1011FC00C25CFB1C03F1010738BFFF22BD4228BFB4
:10120C00C35C805D38BFFF2301F0E8FED6E7077DA5
:10121C0085897B1C9D42A7D3BEB206F1010C0CF153
:10122C0001039D42A0D3F21C954206F102039BD30D
:10123C008068F11CC25C4B1C9D4224BF435C311D79
:10124C0001F1010638BFFF23B54228BF455C10F8F9
:10125C000C10C05D38BFFF25009502F025F8ADE7F6
:10126C00731C9D4280D3B7B2791C8B1C9D42FFF43A
:10127C007BAF80682A46865D11F014FEFB1CA589A5
:10128C005A1C954222BFA268D25C3B1D014603F159
:10129C00010038BFFF2285422ABFA068FF23C35C30
:1012AC00304601F0B7FF89E7731C9D42FFF45CAF39
:1012BC00B7B2BA1C954207F10103FFF455AF806831
:1012CC00C15C13460132954224BFC25CFB1C03F186
:1012DC00010738BFFF22BD4228BFC35C805D38BF09
:1012EC00FF2301F0DDFE69E7037D8289591C8A42E8
:1012FC00FFF43AAF9DB2A91C8A4205F10107FFF435
:10130C0033AF881C8242FFF42FAFA068C65CC75D68
:10131C0011F0C8FD291DB4F80CC04B1C9C4522BF14
:10132C00A3685B5C691D024601F1010038BFFF2315
:10133C0084452ABFA068FF21415C009130463946A4
:10134C0001F0DEFD3AE78B1C9A42FFF40DAF8DB233
:10135C002946806811F0A6FDA91CA2898B1C9A4213
:10136C000746FFF401AFA06811F09CFD291DA2896E
:10137C008B1C9A428046FFF4F7AEA06811F092FDE8
:10138C00A91DA6894B1C9E4222BFA3685B5CE91D6C
:10139C00024601F1010038BFFF2386422ABFA06834
:1013AC00FF21415C00913846414602F031F805E7D7
:1013BC008B1C9A42FFF4D8AE8DB22946806811F08E
:1013CC0071FDA91CA2898B1C9A420746FFF4CCAE76
:1013DC00A06811F067FD2B1DA6895A1C964222BFEE
:1013EC00A268D25C6B1D01B203F1010038BFFF2271
:1013FC0086422ABFA068FF23C35C38B202F05CF8B7
:10140C00DCE6057D8289AB1C9A42FFF4ADAEADB231
:10141C002946806811F046FDA91CA2898B1C9A42B2
:10142C000746FFF4A1AEA06811F03CFD2B1DA68968
:10143C005A1C964222BFA268D25C6B1D014603F176
:10144C00010038BFFF2286422ABFA068FF23C35C7D
:10145C00384602F017F9B1E6037D8289591C8A429D
:10146C00FFF482AE9DB2691C881C8242FFF47CAEF4
:10147C00A068C65C11F016FDE91CA2898B1C9A426F
:10148C000746FFF471AEA06811F00CFD691DA2892E
:10149C008B1C9A428046FFF467AEA06811F002FDE7
:1014AC00EA1DB4F80CC0511C8C4522BFA168895CA4
:1014BC0005F10802034602F1010038BFFF21844503
:1014CC0026BFA068825CFF22CDE90012304642465E
:1014DC00394602F0F1F871E6037D8289591C8A4283
:1014EC00FFF442AE9DB2691C881C8242FFF43CAEF4
:1014FC00A068C65C11F0D6FCE91CA2898B1C9A4230
:10150C000746FFF431AEA06811F0CCFC691DA2892E
:10151C008B1C9A428046FFF427AEA06811F0C2FCE7
:10152C00E91DA2898B1C9A428146FFF41DAEA0686E
:10153C0011F0B8FC05F10902A389511C8B4222BFA2
:10154C00A168895C05F10A0202F1010538BFFF218F
:10155C00AB4224BFA3689A5C009038BFFF22CDE950
:10156C0001124B4642463946304602F00BF925E64D
:10157C008320FAE50020F8E5C37B10B504460BB1D7
:10158C00832010BDC37C412B03D0422B0FD0812074
:10159C00F7E7037D81895A1C914212D38268D05C93
:1015AC0015F068FE78B9E37B002BE9D1EFE7037DFA
:1015BC0081895A1C914204D38268D05C15F0A2FE3A
:1015CC00F0E78020DDE70020DBE738B5C37B002B9C
:1015DC00437D14BF8325C325012B04460FD103681B
:1015EC00028A5988587910F067F840B123685B88F3
:1015FC00212B16D12046BDE83840FFF7DEBA637DBB
:10160C007BB92368228A5988587910F04CF840B17C
:10161C0023685B88052B2AD005D8032B1DD021D835
:10162C00B3B1284638BD082B26D006D8062BF8D1E6
:10163C002046BDE83840FFF795B9B3F5407F20D080
:10164C00B3F5805FEDD12046BDE83840FFF794BF7D
:10165C002046BDE83840FEF77FBF2046BDE8384045
:10166C00FEF78CBF2046BDE83840FEF7B7BF2046DA
:10167C00BDE83840FFF72DB82046BDE83840FFF7ED
:10168C00BDB92046BDE83840FFF7C6BC7047012005
:10169C007047012070470120704770470020704749
:1016AC0000207047002070470020704700207047D2
:1016BC00002070470120704701207047B52070470B
:1016CC0000207047002070470020704700207047B2
:1016DC00704700207047002070477047002070470B
:1016EC008420704770477047704770477047704749
:1016FC007047002070477047704770470020704754
:10170C00704700F061BD0320704700207047000057
:10171C00034B1B681878012808BF0220704700BFD4
:10172C00E828002000207047034A03460120C3E943
:10173C00032000221A7070470100FEFF70477047AB
:10174C007047002070470020704700207047002031
:10175C00704770470020704770470020704700208A
:10176C007047002070470020704700207047002011
:10177C00704700207047002070477047B5207047B5
:10178C00002070470020704770470020704770475A
:10179C007047B520704770477047704700207047FE
:1017AC0070477047094A0023FF21137082F8783084
:1017BC0082F8653082F8773082F8793082F87A10C6
:1017CC0082F87B30024A1360704700BF78210020FA
:1017DC0030300020F8B50D468C680A68284906465A
:1017EC00202003F0DCFE6B687BB92649202003F037
:1017FC00D6FE20200DF01EFE2349202003F0E4FE2F
:10180C002020BDE8F8400DF015BE002EF1D01F4D84
:10181C001F4E204F013C14F8013F23B91A492020D8
:10182C0003F0D2FEE5E7752B18D0762B18D0772B6A
:10183C0018D0732B18D0722B18D0712B18D0622B98
:10184C0018D06E2B18D02A2B18D01349134A212BE1
:10185C0018BF1146202003F0A2FEDCE72946F9E769
:10186C003146F7E73946F5E70D49F3E70D49F1E75E
:10187C000D49EFE70D49EDE70D49EBE70D49E9E7B8
:10188C0055B40300345D0300E55C0300F25C030017
:10189C00E65C0300FD5C03003E5D03003B5D030062
:1018AC00095D0300135D03001E5D0300295D030049
:1018BC00335D0300385D0300F0B5214A92F87B30AC
:1018CC00184452FA80F01F4B90F865C090F866509F
:1018DC001F78A5EB0C050026EDB23046F4B2A542FC
:1018EC0025D90CEB060313445B7811B10CB92D2BE5
:1018FC0017D0782B1FD0582B05D108B137240AE00C
:10190C00013C012C14D9602B17D8402BF6D83A2B5C
:10191C0034BF302400241B1BDBB29F4203D900FBD5
:10192C0007300136DAE7052382F879300020F0BD64
:10193C0010270020F5E70028E2D05724EBE700BF82
:10194C0078210020C81A0020FFF72CBF034B93F816
:10195C00770093F87B30C01AC0B270477821002012
:10196C000021FFF7A9BF000010B50A4B93F87B20AC
:10197C00024453FA82F292F8652013445C78A4F185
:10198C002D0359425941FFF797FF2D2C08BF4042B8
:10199C0010BD00BF7821002030B50C4A92F87B3086
:1019AC000344C043DBB2C00F39B1D51895F866407B
:1019BC0095F86550641B241A0C7042FA83F393F863
:1019CC0065301844024B184430BD00BF782100200C
:1019DC0079210020F7B50E460DF1070115461C467E
:1019EC00FFF7DAFF9DF80730AB42074688BF8DF84A
:1019FC0007501CB19DF807402C1BE4B22246304620
:101A0C00002100F0B5FB30199DF80720394600F095
:101A1C0053FB9DF8070003B0F0BD38B508220C4607
:101A2C000123FFF7D7FF04F10803621E043413F8F7
:101A3C00011D12F8015F1D70A3421170F7D138BD62
:101A4C0038B5014605460120FFF7C4FED5E9014330
:101A5C006CB91C46084D236863B12946202003F05D
:101A6C009EFD21460020FFF7B5FE0C34F3E71B78F2
:101A7C006E2BEFD038BD00BF71B6030008B504491A
:101A8C00202003F08CFD2020BDE808400DF0D2BCD6
:101A9C00A65C030038B5FFF7F1FF064D0024611971
:101AAC000C34631953F80C3C03B938BD0020FFF714
:101ABC0091FEF4E7E46D03002DE9F84F1F4B204D28
:101ACC0053F820201F49202003F069FD2B681BB917
:101ADC00BDE8F84FFFF7DEBF1B4FDFF874A0FFF730
:101AEC00CDFF0026B94697F87B30F4B2013B9C42FF
:101AFC0004DB2868BDE8F84FFFF7A2BF47FA86F36E
:101B0C004C4493F865800023C84494F8662094F8FC
:101B1C006510521A03F1010BD2B2DBB2934205D31A
:101B2C000A49202003F03BFD0136DCE743445146D3
:101B3C005A78202003F033FD5B46E6E7CC1A0020F0
:101B4C0030300020A15C03007821002072B6030025
:101B5C00D8B803002DE9F74F884C94F87730002B58
:101B6C0000F0A280864B1B7813F0010F04F10107E3
:101B7C001FD00025834E14E06319202093F86620B3
:101B8C0093F86530D21A44FA85F3D2B293F8651003
:101B9C0039440DF04AFC3146202003F000FD01359C
:101BAC00EDB294F87730AB42E6D87749202003F0B9
:101BBC00F6FC94F877300193DFF8D8E1734B0026EC
:101BCC009EF800801EF801CF1EF8012C4FF0000982
:101BDC00ACEB020CB8445FFA8CFC4D46186800283C
:101BEC0052D00138C24619E02AB9002D4AD04FF024
:101BFC0001090C33F2E71AF8011BA1F1410BBBF1FF
:101C0C00190F98BF2031A2F1410B98BFC9B2BBF19B
:101C1C00190F9CBF2032D2B28A42EAD1AAEB08013A
:101C2C00614510F8012FDFD1002ADED11D46584B3B
:101C3C001D6094F87B30013384F87B30D5E90123A7
:101C4C000136F6B2002A35D01B786E2B31D03F2BE3
:101C5C0023D04FF00009C8464FF0070B042394F82B
:101C6C007710AA68B14212F808702BD8AFB1904423
:101C7C0098F801302A2B10D0212F1CBF032384F895
:101C8C0079300AE01D46B4E7B9F1000F01D1002DFF
:101C9C00CDD1022384F87930002594F879000028FE
:101CAC0069D1686810F0CCFD03B0BDE8F04FFFF7C8
:101CBC0079BD1346019AB24282D8032284F8792066
:101CCC001D46EAE7732F09D8712F0BD2212F1FD095
:101CDC00622F3CD0002F4BD1032246E0A7F17502B6
:101CEC00022A45D8752F29D0762F2AD0732F2BD0C6
:101CFC00722F47F6FF7A18BF4FF0FF3A0121484682
:101D0C000193FFF7D9FD5045019B01D984F8793037
:101D1C00AA68424452782A2A94F879201CBF08F108
:101D2C0001085FFA88F8002AB7D1212F1FBF0136AE
:101D3C0009F10109F6B25FFA89F990E74FF0FF0A51
:101D4C00DCE74FF6FF7AD9E74FF07F0AD6E794F835
:101D5C007B204A4454FA82F292F86520224452784D
:101D6C00222AD5D07B2AD3D0052284F87920CFE73C
:101D7C0084F879B0CCE7FFF79FFE95E77821002037
:101D8C00F421002072B60300E35C0300E46D030051
:101D9C0030300020DD2100202DE9F3415E4C5F4FF7
:101DAC0006460D464FF0000866B90DF107012846AE
:101DBC000DF036FB78B1262800F0A980012384F8B9
:101DCC0079304BE0002D00F0A28016F8013B8DF825
:101DDC000730013DEDB23A789DF807303B700D2A83
:101DEC0001D10A2BE0D00D2B0CD0A3F10A025142E9
:101DFC00514122788846042AD6D8DFE802F0051D26
:101E0C00263C31000121F4E721B1FFF7A3FE4FF08E
:101E1C000108C9E7202B63D0222B07D102232370A2
:101E2C0094F87820642A5DD10623C8E77B2B01D176
:101E3C000323F4E70123F2E709B9202BF0D194F83E
:101E4C007730112B3FD10323B9E7222BF7D0002990
:101E5C00E6D0052384F879304FF001080423237071
:101E6C00B8F1000FA0D094F8790008B1FFF724FE68
:101E7C00FFF798FC98E77D2B94F87A0003D1FF28A4
:101E8C00DDD005239BE7602B13D8402B13D8392BBF
:101E9C008CBF002230229A1AD2B20F2A10D8FF28F7
:101EAC000BD002EB0012FF238DF8072084F87A3058
:101EBC00B6E75722EFE73722EDE784F87A2073E78D
:101ECC00202BDED170E70133DBB284F8773023446A
:101EDC0094F8782083F8652000232370002994D18E
:101EEC00884661E72378012B09D19DF80730A3F1CF
:101EFC00410119299CBF2033DBB28DF80730A318A0
:101F0C009DF807105970013284F878204CE7404650
:101F1C0002B0BDE8F08100BF78210020F52100203F
:101F2C0049BA89B24840C0F303114140080380B25A
:101F3C004840C3B280EA431070471FF0D7BA000084
:101F4C0038B5A0F1430305460A2B31D8DFE803F07E
:101F5C00060A0A121230303030301100BDE8384019
:101F6C001DF008B81CF0D2FF20B11DF003F80028BA
:101F7C00FBD138BD114C20780028FAD10123443D07
:101F8C0023700DF0A1FE032D0DD8DFE805F0060639
:101F9C00090240F601001CF00DF900232370E8E75C
:101FAC0040F60200F7E77A21054802F023F9F4E73E
:101FBC008C210348BDE8384002F01CB9F621002002
:101FCC00C85D030070477047704770477047704793
:101FDC0070477047704770477047704700207047D4
:101FEC00704770470020704770477047002070475B
:101FFC007047012070470120704770477047704749
:10200C0070477047704770472DE9F047204DDFF857
:10201C00A090DFF8A0A000245FFA84F8404622F0DC
:10202C0021FEFF2806460CD122461A49287803F0D7
:10203C00CBFA287801340DF0FDF9142CECD1BDE865
:10204C00F087154B59F82420144947B213EA27039B
:10205C0038BF5346287803F0B7FA002FE9DA14B1E9
:10206C00B8F1030F08D10E4B0E49287816F0010F6A
:10207C0018BF194603F0A8FA0A2CDAD10A4B0B49FF
:10208C00287816F0010F18BF194603F09DFAD0E717
:10209C00911E0020F15E0300E55C0300195F030054
:1020AC00B45E0300CA5E0300DC5E0300E65E030060
:1020BC00605E0300C8B403008842F0B54FEA920397
:1020CC001AD89BB29E00871904460D460437043477
:1020DC00BC4205F104053AD1C3EB8333314402EB26
:1020EC008303013E304411FA83F3994220D011F856
:1020FC00012B00F8012FF8E7541E20449BB2214419
:10210C00A0EB830604460D46043E043CB442A5F104
:10211C0004050ED16FF003045C43C3EB833302EB75
:10212C00830321449BB201342044CB1A994209D138
:10213C00F0BD2F792771EF78E770AF78A7706F78C3
:10214C006770E2E711F8012900F8012DEEE715F8A8
:10215C0004CC04F804CC15F803CC04F803CC15F823
:10216C0002CC04F802CC15F801CC04F801CCAEE793
:10217C000244904200D1704700F8011BF9E710B5FA
:10218C00013801390AB9104606E010F8014F11F870
:10219C00013F9C4201D0E01A10BD013A92B2F1E726
:1021AC0082B2074B42B11A80000C064B0ABF4FF6A5
:1021BC00CE2218801A8070474BF6EF62F3E700BF0F
:1021CC00A81B0020AA1B0020094B1888020448BF3A
:1021DC0080F0620042001A80064A1388190444BF3A
:1021EC0083F4805383F00B035900118058407047DF
:1021FC00A81B0020AA1B0020034B1870034B19705E
:10220C00034B00221A70704700220020FF2100208F
:10221C00012200202DE9F04F234E337885B007467C
:10222C008846002B3DD0214D4FF6FB7398422C78FD
:10223C0003D952211E4801F0DDFF1E4B4FF0000B5D
:10224C009A46327818785FFA8BF94A4511D9484486
:10225C0002A9C0B201932BF023FB082241460DEBDF
:10226C000200FFF78CFF0BF1010B019B0028E8D15A
:10227C004C462B78A34207D1631C3278DBB29A42CE
:10228C002B7004BF00232B709AF800301C44E4B26E
:10229C00414620462BF05EFC18B9394620462BF0FF
:1022AC00CDFA05B0BDE8F08FFF21002001220020FF
:1022BC000E60030000220020024B187800F07F0013
:1022CC00704700BF02220020034B18780130C0B2C7
:1022DC00187000F07F007047022200201FB5030A1F
:1022EC008DF80E300323009303AB8DF80D0000F036
:1022FC00BDF905B05DF804FB1FB5030A8DF80F108E
:10230C0004218DF80E30009103AB8DF80D0000F018
:10231C00ADF905B05DF804FB2DE9F04389B0074633
:10232C00BDF840509DF84460BDF84C4088460DF116
:10233C000900114608229946FFF7BEFE8DF812508F
:10234C00012E4FEA15258DF811908DF813508DF84C
:10235C00146017D0032E1CD1082212990DF1150010
:10236C00FFF7AAFE9DF850308DF81D301623009310
:10237C00BDF8542002AB4146384600F077F909B05D
:10238C00BDE8F0838DF81540240A8DF816400F2314
:10239C00EDE70120F3E71FB50C46194602238DF833
:1023AC000D2000930A4603AB0146204600F05EF96F
:1023BC0004B010BD70B586B0044616460DF10D0084
:1023CC0008221D46FFF778FE0A2300932A4603AB2A
:1023DC00342120468DF8156000F048F906B070BD28
:1023EC0030B585B00024ADF80A20021D92B2012A46
:1023FC001D46ADF80840ADF80610ADF8044003D901
:10240C004FF6FF72904207D1064A2B46127801A96B
:10241C0029F094FB05B030BD014601AA204629F0F5
:10242C0053FCF7E7AC1B00202DE9F74FFF2A984629
:10243C001DBF464B1B689C5C002418BF6408B8F198
:10244C00FF0F1EBF414B1B6813F808700E468146E8
:10245C0014BF7F0800271546FFF736FF4FEA1923F4
:10246C008DF800008DF803600621360A68468DF859
:10247C0004608DF801908DF802308DF8054023F042
:10248C0083F9FF28064604D11824204603B0BDE882
:10249C00F08F4FEA440B0BF1070A0AEB4701C9B264
:1024AC0023F026F90028EFD10446A3451BD10BF1EC
:1024BC0006013A4601F0FE01304623F0E0F95FFADE
:1024CC008AF44FF0000A5FFA8AF5AF4223D83346FC
:1024DC00BDF8302006214846FFF782FF04463046FF
:1024EC0022F0F6FFD1E72146284623F0C3F9A11DBF
:1024FC000246C9B2304623F0C2F9611CC9B2284663
:10250C0023F0B8F9E11D0246C9B23046023423F07B
:10251C00B6F9E4B2C9E76D00EDB22946404623F0A6
:10252C00A9F921460246304623F0A9F9691CC9B223
:10253C00404623F09FF9611C0246C9B23046023472
:10254C0023F09DF90AF1010AE4B2BCE7441B002018
:10255C002DE9F04188B00F4602A906460EF048FC62
:10256C0000287CD0FFF7B0FE8DF8100022F022FD81
:10257C008DF8110022F01EFD000A8DF812000822C1
:10258C0039490DF11300FFF797FDBDF808308DF8B0
:10259C001C301B0A8DF81D300F219DF80D308DF865
:1025AC001B6004A88DF81E3023F0EEF8FF280446BB
:1025BC0057D04FF000089DF80D305FFA88F2934227
:1025CC0008F101081DD801220DF10E01204623F05F
:1025DC001DF94FF000089DF80E305FFA88F2934217
:1025EC0008F1010824D823463A4620210020FFF7A1
:1025FC00F7FE0546204622F06BFF284608B0BDE8E2
:10260C00F081002130460EF01FFC0DF107018DF812
:10261C00070005460122204623F0F8F82D0A012276
:10262C000DF1070120468DF8075023F0EFF8C2E7B3
:10263C00012130460EF008FC0DF107018DF8070062
:10264C0005460122204623F0E1F82D0A01220DF166
:10265C00070120468DF8075023F0D8F8BBE7A325D7
:10266C00CBE71825C9E700BF61410020F8B51C462F
:10267C000E4617460546FFF727FE9DF818102070EA
:10268C00204623F081F8FF2804460BD003463A4637
:10269C0028463146FFF7A4FE0546204622F018FFD7
:1026AC002846F8BD1825FBE708B5FDF705FF12F025
:1026BC003FF9BDE808400AF009BA08B5FFF70DF874
:1026CC0012F066F9BDE8084008F016BE7047FFF737
:1026DC0048B8FFF74CB830B4BDF80840BDF80C5002
:1026EC00CDE9024530BC07F0B7BD38B504460D4600
:1026FC00FFF756F8294620460AF004FA29462046E8
:10270C00BDE838400DF08ABBFFF733B8FFF73DB892
:10271C0001220021092012F0FDBD000070B5134C00
:10272C008A00A31822449B781D09062D98BF104ED1
:10273C0003F00F0394BF755DFF25062B05719ABF3F
:10274C000C4DEB5CFF234371FF3B18BF01238371DE
:10275C00D37014F82130084C4370537883700146C1
:10276C00204605F07DF90123A36070BD03220020F3
:10277C001D79030016790300002000407FB5224923
:10278C0022480022FF23CDE901228DF8093003787D
:10279C004C6C8D6B03922C40E407DBB228D5022BDA
:1027AC0026D88C6C1A4901EB8301A5B2CE78194955
:1027BC0006B326041ED521F813201749012202FA6C
:1027CC0003F30A781343154A0B701378CBB100232B
:1027DC001478DC40E407D9B20FD5017010780124CD
:1027EC0004FA03F34340DBB201A81370FFF796FF22
:1027FC0004B070BD21F81350DFE70133032BE7D190
:10280C00F6E703230370F3E7002000400F220020BB
:10281C00032200201222002011220020102200206E
:10282C0001207047012070470120704710B5084CFB
:10283C0023681B6858790FF01CFA23681B685879B9
:10284C00FEF751FF002012F02DFA012010BD00BF41
:10285C005C3F002010B5036C00221A70037804460C
:10286C00042B4ED8DFE803F003090B222600436B40
:10287C009847E36BBDE810401847036BF8E7436BD0
:10288C009847637813B901232370F2E7FF2B1CBF21
:10289C0003F1FF3363706378002BF4D003232370B0
:1028AC006188206CBDE8104022F0F4BB036B9847A4
:1028BC000223F4E7437813B9436B9847E3E790F8A6
:1028CC002D30DB074CBF436B036B984794F82D30CE
:1028DC00206C04EB4303998822F0DCFB94F82D3038
:1028EC0094F82C200133DBB29A4284F82D3008D8AE
:1028FC00002384F82D306378FF2B1CBF03F1FF33CA
:10290C00637010BD0148FFF7A5BF00BF6430002005
:10291C000148FFF79FBF00BFA830002070470000A0
:10292C002DE9F84F184E80460D461446994606F18F
:10293C00010A0DB9BDE8F88F102D4FF00D02494674
:10294C0050462F4628BF1027FFF7B6FB01233370E4
:10295C000D48F4730023B37301342BF095F90B4934
:10296C005FFA87FBE4B2424612F8013B11F8010F03
:10297C00434002F8013CA2EB0803DBB25B45F3D306
:10298C00ED1BADB29046D4E71C2200201B22002088
:10299C002DE9F04F374D85B01746BDF838800190C2
:1029AC0003930D220F9B02930E460146681CFFF702
:1029BC0083FB49232B7028464FEA1823AB7385F809
:1029CC000F802BF061F92B7883EA17232B706B782F
:1029DC004FF002097B406B704C46AA464FF0000B3F
:1029EC0021E0C4F1100CA7EB0B031FFA8CFC9BB27B
:1029FC00634528BF63463046A11B00EB010C5FFA10
:102A0C008CF2A0EB060C1FFA8CFC9C451BD31C44CF
:102A1C00E4B29B44102C1E441FFA8BFB03D12846B6
:102A2C002BF032F90024BB45DBD314B150462BF00C
:102A3C002BF9B9F1010F4FF00004039E47460BD060
:102A4C004FF00109CAE710F801CB1AF802E08CEA42
:102A5C000E0C0AF802C0D0E7029806490422FFF7D0
:102A6C002BFB019B02982246042105B0BDE8F04FD8
:102A7C00FFF756BF1C220020F7B5099FBDF8204078
:102A8C00CDE9004706461D46FFF782FF2CB13346C1
:102A9C00012221462846FFF743FF002003B0F0BD7A
:102AAC002DE9F743BDF828700F4C1E4605468846A5
:102ABC0091460346394630460122FFF731FF334633
:102ACC004A4641462846CDE90074FFF761FF0422CF
:102ADC0021460B98FFF753FB002814BF7E200020E3
:102AEC0003B0BDE8F08300BF182200202DE9F341AC
:102AFC000A4F0C46991815461E4680462144384606
:102B0C000422FFF7D9FACDE9006763192A4621465A
:102B1C004046FFF7C5FF02B0BDE8F0812C22002033
:102B2C00002070470020704770477047034A00230D
:102B3C001370034A1370034A13707047043100205A
:102B4C00FC3000200C3100201FB50223009344F20E
:102B5C000B020DF10E034FF440710FF0F5FB10B1A9
:102B6C000023ADF80E30BDF80E0005B05DF804FB87
:102B7C001FB50223009344F20C020DF10E034FF427
:102B8C0040710FF0E1FB18B14FF6FF63ADF80E305A
:102B9C00BDF80E0005B05DF804FB81B14388808858
:102BAC0083429EBF1A46034610461B1A0A205843FE
:102BBC00B0FBF1F0B0F5803F01D280B270474FF618
:102BCC00FF7070471FB50123009300220DF10F0316
:102BDC004FF440710FF0B8FB20B140F23231044891
:102BEC0001F008FB9DF80F0005B05DF804FB00BF79
:102BFC00247903001FB50123009308220DF10F0364
:102C0C004FF440710FF0A0FB18B19121034801F073
:102C1C00F1FA9DF80F0005B05DF804FB2479030070
:102C2C00F0B585B00F460546FFF7E4FFB842044601
:102C3C0038D004AE202306F8017D44F20102009343
:102C4C004FF44071334628460FF02DFB20B14FF462
:102C5C008171174801F0CEFA2023009308223346E5
:102C6C004FF4407128460FF01EFB20B140F20911C1
:102C7C000F4801F0BFFA04EB0710C0B2102813D0B4
:102C8C0007D801280BD002280CD12846FEF72DFDC1
:102C9C0008E0202808D0212801D01228F4E7284683
:102CAC00FEF724FD05B0F0BD2846FEF71DFDF9E743
:102CBC00247903001FB5012200920DF10F034FF48C
:102CCC0040710FF041FB20B14FF45071034801F0FB
:102CDC0091FA9DF80F0005B05DF804FB2479030010
:102CEC0070B5084C00260546A680FFF76BFF2572D1
:102CFC006070054C2846E680FFF7DCFFA57360800A
:102D0C0070BD00BF302200203C2200201FB50223E2
:102D1C00009303220DF10E034FF440710FF014FBDE
:102D2C0020B140F21B41044801F064FABDF80E00DA
:102D3C0005B05DF804FB00BF247903001FB5022326
:102D4C00009304220DF10E034FF440710FF0FCFAC6
:102D5C0020B140F22941044801F04CFABDF80E00B4
:102D6C0005B05DF804FB00BF247903001FB50223F6
:102D7C00009307220DF10E034FF440710FF0E4FAAB
:102D8C0018B19F21034801F035FABDF80E0005B0CB
:102D9C005DF804FB247903002DE9F84391460546C0
:102DAC000C46FFF7D1FE07462846FFF7E1FEB9F1C6
:102DBC00000F064608BF4FF00109FFF7B7FE0221CE
:102DCC002846FFF72DFFBC4238BF3C46A4B2B442A4
:102DDC00284628BF3446FFF7C9FFDFF83C80A8F827
:102DEC0000002846FFF7C2FFA4B2A8F80200A8F81A
:102DFC000440A8F80690A8F8089088F80E50A8F897
:102E0C000A70A8F80C6064210248BDE8F84322F06F
:102E1C0041B900BF043100204C220020F0B50E4611
:102E2C0085B00621074615460EF04FFC01230446DB
:102E3C0048B300930F220DF10E034FF44071384646
:102E4C000FF082FA10B100238DF80E30012300939D
:102E5C0000220DF10F03062138460FF075FA50B918
:102E6C009DF80F403CB9FF2E08D1FF2D06D19DF8DF
:102E7C000E4004F00104204605B0F0BDF307F6D572
:102E8C0005F00104F7E71C46F5E700001FB504AB9D
:102E9C00212223F8021D00924FF4407102220FF000
:102EAC0002FA18B1F821034801F0A4F905B05DF855
:102EBC0004FB00BF2479030010B50446C088E8B1B8
:102ECC00013881B2E180A07BFFF7E0FFA288638824
:102EDC00E08893420FD0238821899A428BBFD31A62
:102EEC009B1A434343438BBFB3FBF1F3B3FBF1F3A7
:102EFC00D31A9B186380B0FA80F0400910BD000013
:102F0C002DE9F8431E46314B1B681B685C798046E3
:102F1C00204615460F46FFF755FE002D08BF01252C
:102F2C00B8F1FF0F814601D0FF2F05D1802011F0A1
:102F3C00B9FE0120BDE8F8839DF8202031462046DB
:102F4C00FFF76CFF0028F2D0C14538D2A8EB090678
:102F5C007E2ECCBF00260126FFF7E8FD002120467F
:102F6C00FFF75EFE2046FFF7BBFE194B204683F8A9
:102F7C0002804FF000085E7283F8009083F8019095
:102F8C009D80DD801C7283F80A80FFF793FE114E42
:102F9C0030802046FFF78EFEFE23708029462046A7
:102FAC00B381B780F5803581B473A6F80A80FFF73A
:102FBC006DFF0948642122F06DF84046B7E7A9EB94
:102FCC0008067F2ED4BF00260126C5E75C3F0020F3
:102FDC00302200203C2200200C310020F8B50D4698
:102FEC0011462B4A12681268567907461A46304623
:102FFC00FFF714FF20B9002011F054FE0120F8BD9A
:10300C00FFF794FD002FF6D000213046FFF708FEA5
:10301C003046FFF765FE3046FFF7D4FD1D4C20709F
:10302C003046FFF7CFFD012F607020D13046FFF7FF
:10303C00C9FD15FA80F080B2FE2884BFFE3880B23C
:10304C00A070012363720A23A380E3804FF6FF7103
:10305C0001233046A3722672FFF718FF0E4B0F4860
:10306C0000246421DC8022F015F82046C4E7032FED
:10307C000BD13046FFF7A6FD83B2A8423CBFFE330E
:10308C009BB25D1BA5700023DCE78020B4E700BF7A
:10309C005C3F0020302200203C2200200C3100201C
:1030AC002DE9F0410E461146224A126812685579F4
:1030BC0080461A462846FFF7B1FE28B9002011F0C9
:1030CC00F1FD0120BDE8F081FFF730FDB8F1000FF4
:1030DC00F4D0002EF2D000212846FFF7A1FD28469F
:1030EC00FFF7FEFD144B154C002728469F80FFF779
:1030FC00E1FD20802846FFF7DDFDB8F1010F08BF88
:10310C00FE23314660800D480CBFA380A780FFF7DB
:10311C0044FD00260146FE23E08020812846A38141
:10312C00A5736681FFF7B2FE0548642121F0B2FF5A
:10313C003046C4E75C3F0020302200203C220020B7
:10314C000C3100202DE9F04117462E4A1268126806
:10315C0055799DF8182080460C4628461946FFF7ED
:10316C005DFE20B911F09EFD0120BDE8F0812846DE
:10317C00FFF728FD002F08BF0127B8F1FF0F01D181
:10318C008020EFE7032CFBD8DFE804F0023239098A
:10319C00A0EB080010F0800F0CBF03240124FFF7F4
:1031AC00C5FC00212846FFF73BFD2846FFF798FD9C
:1031BC002846FFF707FD144E30702846FFF702FD36
:1031CC00631E5C425C41114B707074723946002472
:1031DC002846DC8086F80280B780F7803572B4729E
:1031EC00FFF754FE0A48642121F054FF2046B9E74A
:1031FC00A0EB080010F0800F18BF0324CFE70124C8
:10320C00CDE700BF5C3F0020302200203C22002094
:10321C000C3100202DE9F0410E4611461E4A126871
:10322C001268557980461A462846FFF7F7FD20B9F3
:10323C0011F038FD0120BDE8F081002E08BF0126F9
:10324C00B8F1FF0F01D18020F2E7FFF76FFC0021EE
:10325C002846FFF7E5FC2846FFF742FD0F4B104CC4
:10326C00002728469F80FFF725FD20802846FFF782
:10327C0021FDFE23608031462846A381A4F80480FA
:10328C00E6802681A5736781FFF700FE054864215F
:10329C0021F000FF3846CBE75C3F002030220020B5
:1032AC003C2200200C3100202DE9F0411446284A24
:1032BC001268126855799DF8182080460F462846EA
:1032CC001946FFF7ABFD28B9002011F0EBFC0120EB
:1032DC00BDE8F0812846FFF775FC002C08BF0124DF
:1032EC000646FFF723FCB8F1000FEDD0002128466D
:1032FC00FFF796FC2846FFF7F3FC164AB8F1010FCE
:10330C0016705670B3B2B9B219D10B449BB2FE2BE6
:10331C0084BFFE3B9BB29370012353720E4B15720C
:10332C00A1B2284600249180D1809472DC80FFF7F2
:10333C00ADFD0A48642121F0ADFE2046C5E7BE4232
:10334C003CBFFE339BB25B1A93700023E5E700BFD2
:10335C005C3F0020302200203C2200200C31002059
:10336C002DE9F0411446264A1268126855799DF8E9
:10337C00182080460F4628461946FFF74FFD28B9FE
:10338C00002011F08FFC0120BDE8F0812846FFF7EA
:10339C0091FC002C08BF01240646FFF7C7FBB8F1CF
:1033AC00000FEDD000212846FFF73AFC2846FFF726
:1033BC0097FC144B00209880134BB2B2B8F1010F5C
:1033CC001A805A8016D13A4492B2FE2A28BFFE22A5
:1033DC00A1B29A800024FE222846D98019819D73BF
:1033EC005C819A81FFF752FD0848642121F052FE5E
:1033FC002046C6E7BE4226BFF21BD2B20246E7E722
:10340C005C3F0020302200203C2200200C310020A8
:10341C002DE9F8431546244A1268126854799DF830
:10342C0020200746894620461946FFF7F7FC20B9AD
:10343C0011F038FC0120BDE8F883002D08BF0125F0
:10344C00FFF774FB01212046FFF7EAFB2046FFF74C
:10345C005DFC164E30802046FFF758FC4FF6FF6897
:10346C007080B78020460027F5803581B473778152
:10347C00A6F80C80FFF762FC0D4E30802046FFF75B
:10348C005DFC294670802046A6F80490F5803581B5
:10349C00B4737781A6F80C80FFF7F8FC054864211B
:1034AC0021F0F8FD3846C3E75C3F00205C22002089
:1034BC006C220020FC3000202DE9F8430E4611460A
:1034CC002F4A12681268557907461A462846FFF7A4
:1034DC00A5FC28B9002011F0E5FB0120BDE8F8831C
:1034EC00FFF724FB0FB9002EF4D001212846FFF77B
:1034FC0097FB2846FFF70AFC224C002FB9B2D7BF26
:10350C0049424FF6FF63002389B2208060801D483A
:10351C00CCBFA380A380FFF740FB4FF00008074609
:10352C00E08020814FF6FF692846A573A4F80A8035
:10353C00A4F80C90FFF702FC134C4645B1B2DCBF6B
:10354C00494289B2208060800F48CCBFA4F8049017
:10355C00A4F80480FFF721FB002387420146E0809A
:10356C002081638138BF39464FF6FF632846A57327
:10357C00A381FFF78BFC6421044821F08BFDA9E7A4
:10358C005C3F00205C2200206C220020FC300020DC
:10359C002DE9F0471746374A1268126854799DF89E
:1035AC00202006460D4620461946FFF737FC20B969
:1035BC0011F078FB0120BDE8F0872046FFF7A6FB51
:1035CC0086194CD4B6F57F4F4BDAB6B22046FFF7CE
:1035DC00B5FB451948D4B5F57F4F47DAADB2002F8E
:1035EC0008BF0127FFF7A2FA01212046FFF718FBBD
:1035FC002046FFF78BFBDFF88880A8F800002046F8
:10360C00FFF784FB4FF00009A8F802004FF6FF6AA1
:10361C002046A8F80460A8F80670A8F8087088F886
:10362C000E40A8F80A90A8F80CA0FFF787FB124EE2
:10363C0030802046FFF782FB394670802046B580EB
:10364C00F7803781B473A6F80A90A6F80CA0FFF7A0
:10365C001DFC0A48642121F01DFD4846A8E7002600
:10366C00B4E74FF6FF66B1E70025B8E74FF6FF6504
:10367C00B5E700BF5C3F00206C220020FC3000202E
:10368C005C22002070B50E4611460A4A1268126878
:10369C00547905461A462046FFF7C0FB18B911F0BD
:1036AC0001FB012070BD204632462946FFF774FB12
:1036BC000020F4E75C3F00202DE9F84F1E462E4B0E
:1036CC001B681B685D798346894617469DF8281050
:1036DC009DF82C202846FFF7A1FB08B9002010E02C
:1036EC002846FFF731FA80462846FFF741FA824612
:1036FC00FFF71CFABBF1000FF0D0B9F1000F05D1A8
:10370C00852011F0CFFA0120BDE8F88F474538BF6E
:10371C004746864228BF064602212846FFF780FA14
:10372C002846FFF723FB154C20802846FFF71EFB8D
:10373C00BBF1010FBFB2B6B2608016D1B24528BF43
:10374C00B246A4F804A049460C48FFF726FA0146F5
:10375C00E08020812846A5736781A681FFF796FB40
:10376C006421074821F096FCB8E7B84538BFB84645
:10377C00A4F80480E7E700BF5C3F00204C22002047
:10378C00043100202DE9F0471C462C4B1B681B68AC
:10379C005D7982460F4616469DF824109DF8282028
:1037AC002846FFF73BFB28B9002011F07BFA0120DB
:1037BC00BDE8F0872846FFF7C7F981462846FFF792
:1037CC00D7F9002E08BF0126FFF7B0F9BAF1000FA8
:1037DC00EAD0BDF82080A14538BFA146404528BF9E
:1037EC00404602211FFA80F82846FFF719FA2846AE
:1037FC00FFF7BCFA124C20802846FFF7B7FABAF153
:10380C00010F60801FFA89F9284613D1FFF7AEFA31
:10381C003844A08031462846E6802681A573A4F85A
:10382C000A90A4F80C80FFF731FB6421054821F0C5
:10383C0031FCB9E7FFF79AFAC01BEAE75C3F0020BE
:10384C004C220020043100207FB54FF44071044617
:10385C000DF03BFF00283BD02046FFF7CBF90228A8
:10386C0036D100900DF10E0344F20D024FF440716D
:10387C0020460EF069FD20B12046FFF765F9ADF842
:10388C000E002046BDF80E60FFF772F901230546C5
:10389C00009300220DF10E03082120460EF054FD7A
:1038AC0010B17F238DF80E309DF80E30012B0AD904
:1038BC00FD2B9FBFA91B5943FE23B1FBF3F19ABF0C
:1038CC00691A8DB23546002229462046FFF764FA64
:1038DC0004B070BD08B5084B1B681B680A4601464E
:1038EC005879FFF79BFA08B1FFF720F9002011F087
:1038FC00D9F9012008BD00BF5C3F00207FB5524CB8
:10390C00A188257A002933D100265048FFF7D4FA34
:10391C0016B9002800F09380FFF708F904AB627821
:10392C0003F8012D20220092207A00224FF44071DE
:10393C000EF0B9FC20B140F21311454800F05AFCCE
:10394C00424B5A88987B04AB4FF4407103F8022D1C
:10395C002022009201220EF0A6FC20B140F21D1193
:10396C003B4800F047FC2846FDF7BEFE04B070BD96
:10397C000139A37A89B2A18013B92846FFF786FAD8
:10398C00A0786378834219D02378617A9AB286B290
:10399C00002930D0984234BF06F1FE0131468A1A14
:1039AC00A188E388D2B24A43B2FBF3F2D2B290427E
:1039BC003CBF06F1FE039EB2B21A6270A388002BC4
:1039CC00A2D1A37A002B38D02278667A93B281B236
:1039DC002EB3904234BF01F1FE020A46D31A51FABB
:1039EC0083F39BB2FE2B84BFFE3B9BB22070A37073
:1039FC000A23A38088E7984284BFFE3292B2931BBD
:103A0C00A288DBB25343E288B3FBF2F356FA83F39A
:103A1C009BB2FE2B84BFFE3B9BB26370CEE7904201
:103A2C0084BFFE339BB25B1ADAB290423CBF01F109
:103A3C00FE0399B220708B1AD9E7012665E7642141
:103A4C00044821F027FB69E7302200203C220020AB
:103A5C00247903000C3100207FB51E4C2046A57B39
:103A6C00FFF72AFA06461C48FFF726FA06B958B3A0
:103A7C00FFF75CF804AB628823F8022D2122009238
:103A8C00A07B03224FF440710EF00DFC20B140F2EC
:103A9C002711124800F0AEFB0F4BA07B5A8804ABE9
:103AAC004FF4407123F8042D2122009204220EF0D1
:103ABC00FAFB20B140F23111084800F09BFB28467C
:103ACC00FDF714FE04B070BD6421054821F0E2FA44
:103ADC00D0E700BF5C2200206C2200202479030078
:103AEC00FC30002030B5124C85B02046A57BFFF78A
:103AFC00E3F9C0B1FFF71AF804AB628823F8022D82
:103B0C0021220092A07B07224FF440710EF0CBFBD8
:103B1C0020B140F23B11074800F06CFB2846FDF742
:103B2C00E4FD05B030BD6421034821F0B3FAE3E7AE
:103B3C004C2200202479030004310020F0B587B01A
:103B4C0006AB4FF6FF7223F8042D02260022CDE9B6
:103B5C000162009344F2100240234FF4407104467A
:103B6C000EF0E4FB002842D106AD4FF6FF6325F8BA
:103B7C00023D0722CDE90160009540234FF44071CE
:103B8C0020460EF0D3FB90BB2046FEF7DDFF074628
:103B9C002046FEF7EDFFBDF81430BB4227D383421D
:103BAC0025D8ADF816302123CDE900530722402348
:103BBC004FF4407120460EF056FBC0B906AD3027CD
:103BCC0005F8056D402308224FF44071CDE90057EC
:103BDC0020460EF048FBCDE90057402344F2010289
:103BEC004FF4407120468DF813600EF03CFB07B08B
:103BFC00F0BD0000F7B50A4E0A4F0B4D002456F8E5
:103C0C00243003B93B6835F814200092074922464A
:103C1C00012001340FF0E6FD292CF0D103B0F0BDEA
:103C2C00B01B0020581C002088310020DE790300D6
:103C3C0008B5FFF7DFFFBDE8084000F0EFB8000063
:103C4C0007B50020FDF78CFEC2B2282A0DD8084B10
:103C5C0053F822300BB9074B1B68074931F8121087
:103C6C000091012005490FF0BDFD03B05DF804FB88
:103C7C00B01B0020581C002088310020DE79030086
:103C8C00FFF7B8BF7047000038B50020FDF768FE9D
:103C9C0004460120FDF764FE0549054601200FF09E
:103CAC00A1FDA9B2E0B2BDE8384000F0CFB800BF2A
:103CBC00E9790300F7B50A4E0A4F0B4D002456F86C
:103CCC00243003B93B6835F814200092074922468A
:103CDC00012001340FF086FD292CF0D103B0F0BD8A
:103CEC00B01B0020581C002036310020DE79030068
:103CFC0073B502AB03E906000446019D20F0A2FE59
:103D0C000646204620F0ACFE9DF800008EB1202C1B
:103D1C000FD82B78012B36D803EB431338492344A7
:103D2C004FF6FF7531F81320AA4202D0013221F868
:103D3C001320344B344A33F8145032F814604FF6D5
:103D4C00FF718D421CBF691C23F8141004F0FD0197
:103D5C00092930D1998A928A0144914235DA9982A3
:103D6C0033F81430B34204D3B54202D22046FDF7E7
:103D7C00BEFC264B0025EA5CA24228D00135112D51
:103D8C00F9D102B070BD022BD3D11D4B33F81420E6
:103D9C004FF6FF718A421CBF013223F8142004F144
:103DAC0021014FF6FF7533F81120AA421CBF0132D6
:103DBC0023F81120BDE71D2CD2D1598F0144508F0F
:103DCC00814201DA5987CBE7928A9A82C8E71CF0C4
:103DDC002CFE0F4B1B788342044603D8E0210D4880
:103DEC0000F008FA04EB04140B4A2C444FF6FF7154
:103DFC0032F814308B42C4D0013322F81430C0E7AF
:103E0C00DA3100208831002036310020777D030024
:103E1C008D1B0020D17C0300143100205222002184
:103E2C000148FEF7A5B900BF883100205222FF21BE
:103E3C000148FEF79DB900BF3631002008B5FFF7E9
:103E4C00EDFFBDE80840FFF7F1BF0000014B23F880
:103E5C00101070473631002010B5104C1049A1617C
:103E6C00032321660F491022C4E904330E4BE3618E
:103E7C00C4E9191200230D49A362E01D6362E362D9
:103E8C002367E3666367226231F091FE084920469E
:103E9C0031F08DFE2023A37110BD00BF0034002033
:103EAC00887D03007C2200208C220020917D030061
:103EBC00957D03002DE9F84F1F4B16461A78814665
:103ECC008A4698460AB9FFF7C7FF182707FB0987E8
:103EDC003D6FD7F86CB05D452BD9BC6E796E641B09
:103EEC00B44228BF344629445046224631F04CFE99
:103EFC00BB6E2544A244361BAB4208BF0025ABEB7E
:103F0C00050B5E4528BF5E4656B1182303FB09839B
:103F1C003246596E5046294431F036FE344435440D
:103F2C0024B1182303FB0988C8F870502046BDE85B
:103F3C00F88F0024E3E700BF00340020F8B50446F6
:103F4C000E46174604F017FA3A4605463146204607
:103F5C00FFF7B0FF0446284604F013FA2046F8BDDC
:103F6C002DE9F843124D1E462B788146884617469C
:103F7C000BB9FFF771FF04F0FEF9696900244FF0EB
:103F8C00180C0CFB04535A6E2AB10134A142F8DC14
:103F9C004FF0FF3407E0A142FADDC3E918989F66A1
:103FAC001A67DA665E6704F0ECF92046BDE8F88320
:103FBC0000340020FFF750BF012270B511460420D9
:103FCC0004F016F81A4B1B4D1A681B4842F00102FC
:103FDC001A60DA684FF0604442F08072DA60174B76
:103FEC00C4F8B03F00260223C4F8006EC4F8806EFB
:103FFC00C5F8F03003F008FF00F5D520104B114A3E
:10400C0000F2FC40B0FBF3F00F4B01382861C4F810
:10401C00406E1A600D4BC4F8803E4FF48073C5F8A7
:10402C000433D4F8003E43F48073C4F8003E70BDF2
:10403C00F0ED00E0000004E006000E0055CEACC52B
:10404C00F8590D00FF030040001000E00D000100C6
:10405C0010B50121104803F0F7FD104B01241C6032
:10406C00002004F009FE234604220221052004F05E
:10407C005BFE204618F08DFCFFF79EFF18F08DFCC0
:10408C00FFF798FF2346402205490648FFF768FFD3
:10409C00054B1860C00F10BD00350A001088144283
:1040AC009C2200209C7D03005C1C0020024B1868A5
:1040BC00003018BF01207047F0ED00E0054A417058
:1040CC00D12303701378C370090A8170591C1170C5
:1040DC0004207047DC2200202DE9F74F354E336861
:1040EC001C5C032C074663D91AF099F8DFF8C880DA
:1040FC0001900534E4B24FF6FF7A0025C146D8F89A
:10410C0000204AB1AC4207D91AF089F8019BC01AB9
:10411C0080B2B0F5FA7F05D9601B18BF012003B03F
:10412C00BDE8F08F002D3DD0012D1DD13268D55D3D
:10413C004FF0020B4FF06042D2F8801ECB0711D526
:10414C001146D9F80C0040F08070C9F80C00D1F879
:10415C00000E40F48070C1F8000E086A0028F0D000
:10416C0082F820505D46CAE7E21E05F1010B95422C
:10417C005FFA8BFB02D15FFA8AF5DBE7A21E954250
:10418C0002D1CAF30725D5E7621E95420ED0A91EAF
:10419C00C9B2384621F06EFB51460546FDF7C0FE0C
:1041AC008246C7E75B254FF0010BC3E75D25C1E7EE
:1041BC000120B4E7441B0020F0ED00E010B50B4BE0
:1041CC0090B0402269461868FFF7B8FE58B1C1B2EA
:1041DC00684621F0D9FA0446014612201BF02EF84D
:1041EC00204621F075F910B010BD00BF5C1C0020FA
:1041FC0042DE704738B504460D461DF045FA00F016
:10420C00CBFD04F0B0F8294620461AF0E3FF2B460C
:10421C002246054901200BF013F929462046BDE83A
:10422C003840FFF7E5BF00BFAC7D03006D4B2DE9B7
:10423C00F0416D4C5A68A2655A6AE2656B4AD2F835
:10424C0000122166D2F8042262669A6AA266DA6AC1
:10425C00E2661A6B22675A6B6267DB6BA26BA36711
:10426C00D4E90F5312F0040F18BF1D4619F0C6FF06
:10427C00002285420346606522655CD35C4A954208
:10428C0059D8AA696264E969A164B4F85810C1F3F9
:10429C000801062953D157498A4250D356498A42BC
:1042AC004DD211884DF64262914248D16268C4F8F1
:1042BC009420A268C4F8982040F201704F4A5049EB
:1042CC00934238BF13460A468B423BD3D31AE3645E
:1042DC000023C4E91F33C4E92133C4E92333484E16
:1042EC00444FDFF814C1AE4232D8D4E91FC7D4E929
:1042FC002165D4E923124FF0000E013BDBB2FF2BFA
:10430C0041D1BEF1000F05D0C4E91FC7C4E9216536
:10431C00C4E92312B4F85830C3F30803DA1E0F2A89
:10432C0055D8DFE802F03A5B474A54545454545180
:10433C0054545454543E0022C4E911221D464FF4E7
:10434C002060BBE71E68B6F1CD3FBFD10433BBE79D
:10435C0056F8042DBA42C6D36245C4D2D107C2D591
:10436C00002104EB010EDEF87CE09645BBD0043155
:10437C001829F6D10BB9052301E0013BDBB204EBA4
:10438C008301CA67AFE7E0464FF0010EBC463746E3
:10439C002E460D4611464246AFE740F60120BDE8D9
:1043AC00F081184BDB6913F0020F40F2025318BF77
:1043BC001846F4E740F60320F1E740F60423B0F585
:1043CC00206F08BF1846EAE740F60520E7E7013BF7
:1043DC0040F60722412B98BF1046E0E740F602203A
:1043EC00DDE700BF00ED00E00000002000E100E090
:1043FC00A01A002024030000D05B03009C000020C6
:10440C00C01A002000200540062804D007280CBF45
:10441C000120022070470020704700002DE9F04376
:10442C0085B04FF48073ADF80C3001F079FB0121AD
:10443C001548DFF85C80DFF85C9003F005FC012187
:10444C00124803F001FC0024012703AB0122E35CBA
:10445C0018F8336008EBC30330465D680023294627
:10446C0004F062FC4946E8B201F068FBCDE9007744
:10447C0001232A462946304604F00AFC14B105B043
:10448C00BDE8F0830124E0E74041050000350A0057
:10449C00C07D03002945000008B5FFF7B5FF0228D1
:1044AC0016BF024B0020185C08BD00BFDD220020A7
:1044BC0008B5FFF7A9FF02281CBF014B195408BD12
:1044CC00DD22002008B5FFF79FFF022805D0034A24
:1044DC00135CB3FA83F35B09135408BDDD2200208F
:1044EC0008B5FFF791FF022811D00A4A12F83010D4
:1044FC0030234B4302EBC00207491944536803EBCA
:10450C00C1039B001868B0FA80F0400908BD002078
:10451C00FCE700BFC07D03001CA0104270B5044630
:10452C00FFF7DEFF0026054601E000261D4620466B
:10453C00FFF7D6FFA8420346F7D10136052EF2D17C
:10454C002046FFF7A9FFA8420BD029462046FFF7CB
:10455C00AFFF2046FFF7A0FF014620460CF0BAFA49
:10456C0070BD2046FFF7AEFF2046FFF795FF0146D2
:10457C0020460CF0AFFA2046FFF7A4FFE9E7000055
:10458C0010B504F011FE044604F008FE00220121CF
:10459C0001FA02F3234014D01B4B33F812301B4AA0
:1045AC00062B13D040F207218B420DD11849194824
:1045BC000C68844208D14CF23C334B800B8813803E
:1045CC0012E00132112AE3D1104AF8E7104B588857
:1045DC004FF20F01884214D11988B1F5406F10D2F7
:1045EC0011804CF23C325A80084B1A8840F201730D
:1045FC009A4201BF084A094BD2E90001C3E9000104
:10460C0010BD4FF4C061EBE7D07D0300E822002021
:10461C000000002007020FF094000020E022002090
:10462C00014B1888000A7047E8220020014B1888BB
:10463C00704700BFE82200202DE9F04F4D4CA36BD2
:10464C00D4F850B0D4F840A05A074FBF0027D4F884
:10465C004CB0D4F85480D4F83CA05ABF464FDFF885
:10466C004091DFF84091454A48BFB84613F0080F17
:10467C00434B18BF1A46B7EB08061CBF73086421DE
:10468C0087B01FBF01FB0B33B3FBF6F39BB2059353
:10469C003C49CDF800804B46CDE9017A08BF059620
:1046AC00054600F091FFB3B2CDE900931FFA8BF2EF
:1046BC00059B3549284600F087FFA36B5B070AD49E
:1046CC009C3E5E4507D1626D304B9A4203D2304915
:1046DC00284600F079FFBA4501D8C24504D24A46B3
:1046EC002C49284600F070FF28460AF0A3FE236EE2
:1046FC000BB9636EBBB32849DFF8AC80DFF8AC9024
:10470C00284600F04CFF00260127226E07FA06F31C
:10471C00134207D058F8262013781BB14946284677
:10472C0000F03DFF0136202EEFD1DFF87C80DFF862
:10473C007C9000260127626E07FA06F3134209D01B
:10474C0008EB8603D3F8802013781BB14946284622
:10475C0000F025FF0136122EEDD1284607B0BDE83A
:10476C00F04F00F02BBF0D49284607B0BDE8F04FC5
:10477C0000F02ABF00000020C01A0020E2800300D5
:10478C00DB800300EA800300188103009C000020FA
:10479C00518103007D8103009B810300CA810300CA
:1047AC00D6800300FE9D0300E081030054B4030097
:1047BC002DE9F8430446FFF739FF40F601239842F0
:1047CC0039D010D840F2025398421DD040F20173F8
:1047DC00984224D040F20153984213D165492046A7
:1047EC0000F0F2FE22E040F6032398426CD03DD359
:1047FC0040F60423984200F09C8040F60523984232
:10480C0000F0B580BDE8F8835B49204600F0DCFE83
:10481C005A4B5B495A6C204600F0D6FE06E0574ACC
:10482C005849D2E92523204600F0CEFE2046BDE8AB
:10483C00F8430AF0FFBD514D5349204600F0C4FE29
:10484C0095F86C309F0703D55049204600F0BCFE0C
:10485C0095F86F305E0603D54D49204600F0B4FE46
:10486C0095F96F30002BE1DA4A49B8E7434D4A49D4
:10487C00204600F0A9FE95F86830980704D06A6CC1
:10488C003F49204600F0A0FE95F96830002B04DA71
:10489C006A6F4249204600F097FEDFF80C81DFF882
:1048AC00189100260127AA6E07FA06F3134207D0C7
:1048BC0058F8262013781BB14946204600F084FE98
:1048CC000136082EEFD1B1E72C4D3549204600F0CA
:1048DC007BFE2B496A6C204600F076FE95F8693019
:1048EC00590703D52F49204600F06EFE95F9693023
:1048FC00002B04DA6A6F2949204600F065FE2A4F26
:10490C00DFF8B4800826AB6EF340DA0707D557F80A
:10491C00262013781BB14146204600F055FE013687
:10492C00102EF0D195F86830002B7FF47FAF1F4923
:10493C0055E7124D1E491C4FDFF87C80204600F0D5
:10494C0043FE6A6C0E49204600F03EFE1026AB6E0C
:10495C00F340DB0707D557F8262013781BB14146E7
:10496C00204600F031FE01361A2EF0D15EE71149D7
:10497C004BE700BF657E0300A27E03000000002011
:10498C00D27E0300EB7E0300057F03001D7F030036
:10499C00577F03008A7F0300C67F0300EB7F030071
:1049AC000F80030026800300F47D03006C8003005D
:1049BC009C800300B5800300078003002DE9F84FAD
:1049CC00164C174FDFF86080DFF860A00646002514
:1049DC0023785FFA85FB0BB9BDE8F88F57F8043BD9
:1049EC0010492246304600F0DAFD227804F1010924
:1049FC0082B9627882B10BF0030103290CBF4146E6
:104A0C005146304600F0CBFD30460AF013FD01351F
:104A1C004C46DDE74C46E8E74146F2E7A882030046
:104A2C00040000205C7E0300E35C03006FA3030022
:104A3C0000F00CB800F00AB800F008B800F006B8A6
:104A4C0000F004B800F002B800F000B872B61EF026
:104A5C00080F09D01EF0040F0DD0DFF850E0AEE8BF
:104A6C00FF1F6FF002000CE0DFF840E0AEE8FF1F24
:104A7C006FF00E0005E0DFF834E0AEE8FF1F6FF0DA
:104A8C0006006946EFF309828EE80700864608485F
:104A9C00084C854501D3A54501D384F30888FFF75D
:104AAC00C5FB84F3088819F085FB00000400002086
:104ABC00A0110020C01A0020FFF7C6BF10B50121BD
:104ACC000A4803F0C1F80121094803F0BDF804229B
:104ADC0011460023052004F027F9052100230422A8
:104AEC000846BDE8104004F01FB900BF4041050066
:104AFC0000350A00064B03EBC00213F83030516846
:104B0C0001228A4030215943024B5A50704700BF52
:104B1C00388903000CA00046064B03EBC00213F8C7
:104B2C003030516801228A4030215943024B5A508F
:104B3C00704700BF388903000CA00044074A12F8E4
:104B4C00301002EBC002536801229A4030234B43D1
:104B5C0003F1804303F520439A61704738890300C1
:104B6C007047000037B57F2A14BF154600254BF25D
:104B7C0034629142044619D17F2241F20201684607
:104B8C000823FFF7EFFF082224496846FDF7F7FAE0
:104B9C0030B908237F2241F2F0116846FFF7E2FF9B
:104BAC00082269462046FDF787FA09E041F2F01227
:104BBC0091421AD11A490A6C496C01381D1F0BB964
:104BCC0003B030BD013B9D4200F8012F4FEA122289
:104BDC00F5D1033400229A42F2D00132042A04F8AF
:104BEC00011F4FEA1121F6D1EAE701F47042B2F548
:104BFC00805F07D1C1F30B0404F17E649AB203FB0E
:104C0C000541D0E701F46042B2F5005FD8D1C1F3A1
:104C1C000B0404F17E6404F58044EFE7F48903008F
:104C2C00B081E00F70B5054616461C46DBB14BF261
:104C3C003463994210D1082C28BF08247F2241F2FA
:104C4C0002012346FFF78EFFA2B207492846FDF763
:104C5C0096FA40B941F2F011234632462846BDE897
:104C6C007040FFF77FBF70BDF48903002DE9F84356
:104C7C001646C20704460F4603D5DD212748FFF729
:104C8C00B9FAF30703D5DE212448FFF7B3FA04F48D
:104C9C007043B3F5805F21D1C4F30B0404F17E643F
:104CAC00731E1F4A23449342254603D9E3211B4814
:104CBC00FFF7A0FADFF8649005EB0608454522D112
:104CCC0056B372083946204619F000FA20B340F268
:104CDC000F111248BDE8F843FFF78CBA04F4604397
:104CEC00B3F5005F07D1C4F30B0404F17E6404F543
:104CFC0080442546DEE7EA210848FFF77BFA6FF08F
:104D0C000F050024D6E715F8013BFF2BD6D0F42174
:104D1C004846FFF76FFAD1E7BDE8F88358890300DE
:104D2C00FF07E00FFFF784BE1FB501211648174C93
:104D3C0002F08AFF01221146104603F059F90421B2
:104D4C00072004F01BFA124A1068516801AB03C328
:104D5C009068186001238DF804300D238DF80C3009
:104D6C0001A9032320468DF80D3004F010FC094BEB
:104D7C0004220221C3F8802161621A60A36A0B43EA
:104D8C00A36204B010BD00BF00250A00002005403E
:104D9C00FC89030000E100E0014804F0ECBB00BF1B
:104DAC0000200540A52803D10021024804F0CFBB08
:104DBC00704700BF00200540024B186800F001004E
:104DCC00704700BF00200540024A9368002BFCD1BD
:104DDC00704700BF0020054000207047002070473E
:104DEC007047000013B572B603F0BDFA754B7649E7
:104DFC005B698B6000230B76E0204B768B7640232F
:104E0C00C876087748778877CB77704B80226024F8
:104E1C0081F8202081F8210081F8220081F82320DC
:104E2C0083F8002383F80143202483F8024383F89A
:104E3C00034383F8042383F8052383F8062383F8BC
:104E4C00072383F8082383F8092383F80A2383F8BC
:104E5C000B2383F80C2383F80D2383F80E2383F89C
:104E6C000F2383F8102383F8112383F8122383F87C
:104E7C00132383F8142383F8152383F8162383F85C
:104E8C00172383F8182383F8192383F81A2383F83C
:104E9C001B2383F81C2383F81D2383F81E2383F81C
:104EAC001F2383F8202383F8212383F8224383F8DC
:104EBC00232383F8242383F8252383F8262383F8DC
:104ECC00272383F8282383F8292383F82A2383F8BC
:104EDC002B2383F82C2383F82D2383F82E2383F89C
:104EEC002F2383F8302383F8312383F83203CB68E4
:104EFC0023F4E0631B041B0C43F0BF6343F4013346
:104F0C00CB604B6943F400734B614B6943F0100366
:104F1C004B614FF4E0234B6206F070F9FFF730FB66
:104F2C00EFF308832A4A043B4FF0CD3193421DD254
:104F3C00284A294892B20021FDF71AF962B6274B8C
:104F4C0001225A64264BDB6C1B0E12D125492648D4
:104F5C004AF6E8520A60026842F0040202600B60F2
:104F6C00224A136843F40053136004E01960043BB5
:104F7C00DCE7012BF4D01E4A136A23F4441343F4E8
:104F8C0088131362A2F580420124136843F48073E2
:104F9C001360184B1C6106F075F801F04BF90023F7
:104FAC0068460093ADF804308DF8034003F042FCE2
:104FBC0000F022F919F040F90F4812F0F9F902B09B
:104FCC0010BD00BF0000000000ED00E000E100E0BB
:104FDC006011002084100000A000002000000E4092
:104FEC00B081E00F90310E4098310E4064310E408C
:104FFC0000400E4000300E40E4BF030040F2016060
:10500C0019F0D8B8FDF790BD08B500210B20FDF7BD
:10501C0089FDBDE80840FDF788BD032000F078B994
:10502C0008B5FFF7FDFA044B0B289ABF00B203EB4F
:10503C008000184608BD00BF548B030008B5FFF76D
:10504C00F5FA044BC0F30F22C0B253F8223003EB35
:10505C00800008BD188B030010B5FFF7E1FA044679
:10506C00FFF7E4FAC0B228B9012C24D164F07F0414
:10507C00E4B216E0072CF9D801A353F824F000BFD2
:10508C00AF50000079500000AD500000B35000004C
:10509C00B3500000B7500000BB500000BF500000E0
:1050AC000924204610BD0224FBE70324F9E70B2456
:1050BC00F7E70624F5E70446F3E700BF07282DE9D8
:1050CC00F84F04460F462DD0082808BF022421466D
:1050DC000120FCF766FBFFF76FFE651ED5F100089B
:1050EC0048EB050800B3012C1ED1A520FFF75AFE92
:1050FC002646EFF31089012383F31088EFF3118A0E
:10510C004FF0000B8BF31188354D40460AF01AFC1A
:10511C00631EC5F800B0042B59D8DFE803F00E4D20
:10512C004D5155000324D2E7FFF746FE18B1FFF7A7
:10513C004BFE0026DDE70646DBE72A4A136923F01F
:10514C000403136130BF284AD2F82834D2F81C2447
:10515C0013409BB2254A2B60D2F80011480502D5AA
:10516C001168490506D4D2F80011480305D5126818
:10517C00510302D543F480332B601C4BD3F8002130
:10518C00520006D51B685B0042BF2B6843F400330A
:10519C002B601EB10121164804F0D9F940460AF0E3
:1051AC00E7FBCFB18AF3118889F3108821460020E0
:1051BC00BDE8F84FFCF7F5BA012003F081FAC2E71D
:1051CC00012003F09BFABEE703F0C8FABBE7882185
:1051DC000848FFF70FF8B6E787F31088E6E700BF3B
:1051EC00F022002000ED00E000A0004000E100E013
:1051FC0000200540848B0300044AD2F81C341B0C9D
:10520C001B04C2F82434024A1360704700A000400B
:10521C00EC2200200021FFF751BFFFF7FBBF00007D
:10522C002D2910B40C4607D80B49097889B1E1B285
:10523C005DF8044B19F0F0BCFF2903D95DF8044B61
:10524C00FFF7F0BC40F2D91104485DF8044BFEF7AF
:10525C00D1BF5DF8044B7047F5220020228C03006F
:10526C0037B5104C0123002023700AF02DFD254684
:10527C0040B100200AF028FD20B100232370492002
:10528C0003B030BD02230DF106007F220021FFF791
:10529C00C7FFBDF806300020B3F57F7F1CBF287018
:1052AC000720EDE7F52200202D282DE9F0410546D9
:1052BC00884616461F4616D8124B1B788BB1124CDB
:1052CC00237823B14FF4F2711048FEF793FF0123BA
:1052DC00237042463B463146E8B219F0DFFC00230E
:1052EC002370BDE8F081FF2805D931461A46BDE888
:1052FC00F041FFF7BBBC4FF4F8710448BDE8F04136
:10530C00FEF778BFF5220020F4220020228C030047
:10531C00024B1B780BB119F0AFBD7047F522002082
:10532C0070B5164685180AB9304470BD01F00F03EC
:10533C000A2B34BF302437242344013A090905F8D9
:10534C00013DD2B2EFE70000F0B5F9B100281CDA4C
:10535C002D23B0F1004F137000D04042012115E015
:10536C00801B8642ECB205F10105F9D904B927B1CD
:10537C004D1C303454540127E9B20133092B09D1A7
:10538C00303050540131C8B2F0BD00210023DFF899
:10539C000CC01F465CF823600025E2E7BC8C0300C0
:1053AC002DE9F04F95B04FF0000B02AC81468A46C8
:1053BC0017461D465E46A0463B7863B902ABE41A1D
:1053CC00E4B2224619465046C847002840F0938064
:1053DC003444E0B290E0252B13D0BBF1000F14D174
:1053EC002370013412AB9C426DD3A4EB0804E4B2DD
:1053FC00224641465046C84700287CD12644F6B286
:10540C0060E0BBF1000F00D101373B78632B00F05B
:10541C0092801BD8392B09D8302B80F09E80002B22
:10542C00CCD0252B51D04FF0000BDBE7582B00F0E4
:10543C008B80622BF7D12B6801936B6800934FF034
:10544C00000B009B9B4543D10835ECE7702B1ED01D
:10545C0017D8642B01D06C2BE5D16C2B05F1040B08
:10546C0028686CD17B78752B14BF0121002101D0E9
:10547C00642B00D101372246FFF766FF04445D46DA
:10548C00D1E7752BE9D0782B5ED0732BCBD1A4EB65
:10549C000804E4B2224602A9504605F1040B2D681B
:1054AC00C84740BB2644F6B2C4B201302B5D002B7A
:1054BC00FAD1224629465046C847E0B926445D46F3
:1054CC00F6B283464446013776E723700134AAE7E7
:1054DC00019B204613F80B100222FFF721FF12ABA1
:1054EC00984204460ED3A0EB0804E4B2224641468F
:1054FC005046C84718B1002015B0BDE8F08F2644BF
:10550C00F6B24446009B013B5B4582BF20232370CF
:10551C00013412AB9C420BD3A4EB0804E4B2224638
:10552C0041465046C8470028E5D12644F6B24446C9
:10553C000BF1010B85E72B6823700435C6E7752B3F
:10554C000CBF0021012196E7204602222978FFF7A3
:10555C00E7FE05F1040B044691E77A7802F0DF02CE
:10556C00582A19D1322B07F1010B09D129882F1D8B
:10557C0004222046FFF7D4FE3D4604465F4652E720
:10558C00342B09D12F1D2D680422290C2046FFF73E
:10559C00C7FE0422A9B2EDE74FF0010B22E70EB4CF
:1055AC0003B503AA52F8041B01920AF06DFAC0B2BB
:1055BC0002B05DF804EB03B0704700000149FFF73F
:1055CC00EEBF00BFE35C03000EB433B505AA05467D
:1055DC0052F8041B01920AF057FA04462846FFF7CA
:1055EC00EDFFE0B202B0BDE8304003B0704708B543
:1055FC000AF04AFAC0B208BD2DE9F04F9B46584B51
:10560C0085B01B78109F9DF844A0DDF850800646AD
:10561C0089461546002B00F09280072A00F29180F3
:10562C000E9B002B00F08D800F9B002B00F08980CF
:10563C00129BB3F5006F00F38480012801D1002F79
:10564C007FD0484B03EB05131B7B002B7BD0464CC8
:10565C0010220021684630F0A2FA04EB4514102207
:10566C00B9F1000F5CD14946204630F098FAA37886
:10567C0043F01003A370E37843F03003E370BAF106
:10568C00000F03D1DBB243F00303E3703649129BE6
:10569C00CDF800B06A01013B885A01EB020C63F3B0
:1056AC000E1088520E9BCCF808300F9BCCF80430AF
:1056BC009DF84C109CF80330012E61F383038CF899
:1056CC00033042D11323CCF80C309CE80F000CF1C2
:1056DC00100E8EE80F00DCF81C20CCF814706FF064
:1056EC00030161F39F02B9F1010FCCF81C2004D126
:1056FC000F9BCCF81830CCF804701A492A018B187F
:10570C0041F802800027159A5A6028469F605E7304
:10571C002246694603F096FB384605B0BDE8F08F8B
:10572C000021204630F03BFA1023A3700323E370D2
:10573C00BAF1000FAAD1DBB243F03003A5E70B4856
:10574C00EBE70B48E9E70B48E7E7B8F1000FD4D1DA
:10575C009CF8023068F304138CF80230CDE700BFDC
:10576C0078240020F822002078230020028000F00A
:10577C00018000F0078000F038B5104B1B7805460F
:10578C00BBB1C0B102F0F7FD0D49002301EB0312D0
:10579C00147B3CB92B6001231373146002F0F1FDF0
:1057AC00204638BD0133082BF0D102F0EAFD054844
:1057BC00F7E70548F5E70548F3E700BF7824002034
:1057CC00F8220020048000F0028000F0018000F03C
:1057DC0038B502F0D0FD0B4A05460023D1180C7BDE
:1057EC005CB91033802BF9D103F0E0FA064B284654
:1057FC001C7002F0C6FD204638BD284602F0C1FDE3
:10580C000248F9E7F822002078240020058000F0F7
:10581C000D4B1B7810B5044693B1072812D802F033
:10582C00AAFD0A4B03EB04131A7B2AB100241C7348
:10583C0002F0A7FD204610BD02F0A3FD0448FAE7D4
:10584C000448F8E70448F6E778240020F822002002
:10585C00068000F0028000F0018000F013B5164BBA
:10586C001868019000238DF8043002F084FD134B6E
:10587C001C7824B102F085FD114802B010BD012244
:10588C001A7002F07EFD0F4B1C731C7783F82C40B2
:10589C0083F83C4083F84C4083F85C4083F86C40C0
:1058AC0083F87C4004230DEB03008DF8073003F0E4
:1058BC009DFA2046E1E700BFE08C0300782400202D
:1058CC00038000F0F822002010B588B00E9C0794DD
:1058DC000D9C06949DF8304005940B9C04949DF807
:1058EC00284003940024CDE9013400920B46024673
:1058FC0021462046FFF780FE08B010BD10B588B0D9
:10590C000E9C07940D9C06949DF8304005940B9CBE
:10591C0004949DF8284003940024CDE901340092AE
:10592C000B46024601212046FFF766FE08B010BD6B
:10593C0008B50A4B1B785BB107280BD8084B03EB57
:10594C0000131B7B43B1002103F046FA002008BD75
:10595C000448FCE70448FAE70448F8E778240020F8
:10596C00F8220020028000F0018000F0078000F097
:10597C0008B50A4B1B785BB107280BD8084B03EB17
:10598C0000131B7B43B1012103F026FA002008BD54
:10599C000448FCE70448FAE70448F8E778240020B8
:1059AC00F8220020028000F0018000F0078000F057
:1059BC0008B50A4B1B7853B107280AD8084B03EBE0
:1059CC0000131B7B3BB103F08FFA002008BD054888
:1059DC00FCE70548FAE70548F8E700BF7824002003
:1059EC00F8220020028000F0018000F0078000F017
:1059FC000D4B1B7893B1072812D889B10B4B03EBD5
:105A0C0000131B7B73B10A4B1A6A012303FA00F0D3
:105A1C0010401ABF00200B70087070470548704783
:105A2C00054870470548704778240020F82200206C
:105A3C0000200E40028000F0018000F0078000F092
:105A4C000B4B1B7810B50C4663B107280CD859B119
:105A5C00084B03EB00131B7B43B103F05BFA206094
:105A6C00002010BD0448FCE70448FAE70448F8E7B6
:105A7C0078240020F8220020028000F0018000F041
:105A8C00078000F02DE9F843174E326EF36E12EAE0
:105A9C00030800D5FEE7154CDFF8549001270025CC
:105AAC0018EA070F16D02368B7669BB1A168626825
:105ABC000131A16028469847637B012B0AD148B974
:105ACC0009EB4513197B1A7F60F3410160F3410226
:105ADC0019731A770135082D4FEA470704F11004A2
:105AEC00DED1BDE8F88300BF00200E40F822002074
:105AFC007823002070B5094E0446012504B970BD09
:105B0C0094FAA4F0B0FA80F005FA00F324EA030446
:105B1C0056F82030002BF1D09847EFE77C2400207A
:105B2C00054B4FF48022C3F880211A604FF4806239
:105B3C00C3F880211A60704700E100E038B50446D4
:105B4C000D4602F018FC034B43F82450BDE83840D6
:105B5C0002F017BC7C240020074BD3F82804D3F8A0
:105B6C001C24104020F42A5020F02A004004400C41
:105B7C00C3F82404FFF7BEBF00A00040074BD3F8C6
:105B8C002804D3F81C24104020F4AA4020F055001F
:105B9C000004000CC3F82404FFF7ACBF00A00040C5
:105BAC00104A4161136830B51546ABB9106083607B
:105BBC0011E0091B9C6841611A467CB123465C6963
:105BCC008C42F6D9002CF4D052B19060836013B1A2
:105BDC005A69511A596130BD0022F0E72346F4E7A7
:105BEC002860F3E7CC24002010B500F057FA094BDD
:105BFC00094A196831B11368C41A4B69A34203D31B
:105C0C001B1B4B61106003E0C01A002310604B613A
:105C1C0010BD00BFCC240020C0240020074B1B6803
